:020000040800F2
:1000000090070020114E0008890A00088B0A00089A
:100010008F0A0008930A0008970A000800000000F1
:100020000000000000000000000000009B0A000823
:100030009D0A0008000000009F0A0008A10A0008AD
:100040002B4E00082B4E00082B4E00082B4E0008AC
:100050002B4E00082B4E00082B4E00082B4E00089C
:100060002B4E00082B4E00082B4E00082B4E00088C
:100070002B4E00082B4E00082B4E00082B4E00087C
:100080002B4E00082B4E00082B4E00082B4E00086C
:100090002B4E00082B4E00082B4E00082B4E00085C
:1000A0002B4E00082B4E00082B4E00082B4E00084C
:1000B0002B4E00082B4E00082B4E00082B4E00083C
:1000C0002B4E00082B4E00082B4E00082B4E00082C
:1000D0002B4E0008874D00082B4E00082B4E0008C1
:1000E0002B4E00082B4E00082B4E000800F002F8A3
:1000F00000F042F80AA090E8000C82448344AAF180
:100100000107DA4501D100F037F8AFF2090EBAE87D
:100110000F0013F0010F18BFFB1A43F0010318473B
:100120007068000090680000103A24BF78C878C159
:10013000FAD8520724BF30C830C144BF04680C60ED
:10014000704700000023002400250026103A28BF35
:1001500078C1FBD8520728BF30C148BF0B60704739
:10016000642905F0CD84782905F0068500207047C4
:100170001FB51FBD10B510BD05F02CFE1146FFF7D1
:10018000F7FF00F009F805F04AFE03B4FFF7F2FFAD
:1001900003BC04F09DFD00001CB54FF000080024D6
:1001A00000260027F648F749086000F0EAFC4820DE
:1001B00004F032FD04F086FD4FF4E13004F097FDC9
:1001C00000F060FD00F090FD01F0C6F803F050F97A
:1001D000EC48006804F0F3FC4FF4FC60EA49088046
:1001E000EAA246215A2002F0E9FF4FF47840E6499E
:1001F0000880E8A25A21552002F0E0FFE8A26E2113
:100200005A2002F0DBFF1F20DF490880E7A2962179
:100210003C2002F0D3FFE8A2AA213C2002F0CEFF4E
:10022000E8A2BE213C2002F0C9FFEAA2D2213C2074
:1002300002F0C4FF1F20D4490880002003F0BCF95D
:10024000012003F0B9F9022003F0B6F9032003F00E
:10025000B3F9042003F0B0F94FF47A71042003F0ED
:10026000F9F9CCE300F05BFD0546012D7DD1804618
:100270004FF6FF7040F27E23EF22002100900846E7
:1002800002F07DFD4FF4FC60BF490880D5A200213B
:10029000552002F093FFD6A21E21052002F08EFF0A
:1002A00014200090B748006804231E21026D7820B6
:1002B00002F00CFFD1A23221052002F07FFF1420B2
:1002C0000090B0480068042332218269782002F04F
:1002D000FDFECDA24621052002F070FF1420009003
:1002E000A848006804234621426D782002F0EEFE03
:1002F000C8A25A21052002F061FFC9A26E21052083
:1003000002F05CFFCAA28221052002F057FFCBA2B7
:100310009621052002F052FF1420009099480068B1
:10032000806F98490968D1F88010421A04239621F9
:10033000782002F0CBFE01AA0221082004F02FF958
:100340009DF805004FEA4009BFA2AA21052002F04E
:1003500035FF142004234A46AA210090782002F099
:10036000B5FEBBA2BE21052000E04DE002F026FF55
:1003700014200090834800680423BE21C26E7820B8
:1003800002F0A4FEB4A2D221052002F017FF14202F
:1003900000907C4800680423D221C26F782002F0CC
:1003A00095FE4FF4784078490880AEA2E6210520FA
:1003B00002F004FF14200090724800680423E62134
:1003C000826F782002F082FE4FF4FC606E49088054
:1003D000A8A2FA21052002F0F1FE1420009069483D
:1003E00000680423FA21D0F88020782002F06EFE05
:1003F000A4A24FF48771052002F0E0FEA4A24FF4FE
:100400009171052002F0DAFE022D39D14FF000087B
:100410004FF6FF7040F27E23EF2200210090084645
:1004200002F0ADFC4FF4FC605749088057A246210A
:100430005A2002F0C3FE4FF478405349088055A279
:100440005A21552002F0BAFE55A26E215A2002F020
:10045000B5FE1F204C49088054A296213C2002F092
:10046000ADFE55A2AA213C2002F0A8FE55A2BE2155
:100470003C2002F0A3FE57A2D2213C2002F09EFEB7
:10048000032D7BD14FF00008012C02D1002003F096
:10049000BAF8022C02D1012003F0B5F8032C02D1E6
:1004A000022003F0B0F8042C02D1032003F0ABF8D3
:1004B000052C02D1042003F0A6F8062C07D14FF436
:1004C0007A71002003F0C6F8002003F075F8072CBD
:1004D00007D14FF47A71012003F0BCF8012003F03A
:1004E0006BF8082C07D1022003F066F84FF47A71FC
:1004F000022003F0AFF8092C07D1032003F05CF8C9
:100500004FF47A71032003F0A5F80A2C08D10420D7
:1005100003F052F84FF47A71042003F09BF80024A2
:100520004FF6FF7040F27E23EF2200210090084634
:1005300002F025FC4FF4FC601349088057A200210B
:10054000552002F03BFE58A23221052002F036FE73
:10055000032003F065F990B1032003F005F982460A
:10056000142004235246322100903C2002F0AEFDBC
:100570004FA23221822002F021FEA0E034E199E076
:1005800060000020000000201A000020582D706F2D
:10059000776572004158503137335F5445535400EA
:1005A0004350553A2073746D33320000636F6E749C
:1005B000726F6C3A000000004B4559313A686F6D1C
:1005C000650000004B4559303A4675656C2047750B
:1005D000616765004B4559323A44434443264C44D5
:1005E0004F0000004675656C204775616765000027
:1005F00042415453454E53453A000000434852206F
:100600004375723A00000000444953434852204366
:1006100075723A0043485220436F756C3A000000EF
:1006200044495343485220436F756C3A0000000020
:10063000436F756C20436F756E743A00436F756C31
:10064000205043543A0000005244433A0000000056
:100650004F43563A000000004F4356205043543A4F
:10066000000000004675656C20526573756C743A25
:100670000000000042617443617061636974793AFB
:100680000000000050435420574C313A0000000055
:1006900050435420574C323A000000004443444336
:1006A000264C444F0000000044434443313A0000CC
:1006B0006D560000D2A232213C2002F07FFDD2A272
:1006C0004621052002F07AFD042003F0A9F890B13C
:1006D000042003F049F882461420042352464621A0
:1006E00000903C2002F0F2FCAFF23C024621822056
:1006F00002F064FD04E0C2A246213C2002F05EFD4F
:10070000C3A25A21052002F059FDC7A26E2105207F
:1007100002F054FD002003F083F890B1002003F0B4
:1007200023F882461420042352466E2100903C2078
:1007300002F0CCFCAFF288026E21822002F03EFD76
:1007400004E0AFA26E213C2002F038FDB8A2822165
:10075000052002F033FD012003F062F890B1012082
:1007600003F002F8824614200423524682210090AE
:100770003C2002F0ABFCAFF2C8028221084602F036
:100780001DFD04E09EA282213C2002F017FDAAA2DA
:100790009621052002F012FD022003F041F890B1ED
:1007A000022002F0E1FF82461420042352469621E3
:1007B00000903C2002F08AFCAFF20C1296218220BD
:1007C00002F0FCFC04E08EA296213C2002F0F6FC34
:1007D0009BA2C8215A2002F0F1FC9CA2E6215A20DB
:1007E00002F0ECFC601CC4B20A2004F02FFA701C6A
:1007F00086B27F1CB7F57A7F18D10027954800682C
:1008000003F076FC93480068806FDFF848C2DCF89C
:1008100000C0DCF880C0A0EB0C028E480068C36FFB
:100820008C480068816F8CA005F02AF9142E7CD1C9
:100830009348006808B9012000E000209049086052
:100840000026B8F1010FF2D14FF6FF7040F27E237F
:10085000EF2200210090084602F091FA4FF4FC606C
:1008600088490880AFF284220021552002F0A6FCBE
:10087000AFF284221E21052002F0A0FC142000907B
:100880007448006804231E21026D782002F01EFCCB
:10089000AFF298223221052002F090FC1420009043
:1008A0006C480068042332218269782002F00EFC33
:1008B000AFF2AC224621052002F080FC142000900B
:1008C0006448006804234621426D782002F0FEFB54
:1008D000AFF2C0225A21052002F070FCAFF2C02214
:1008E0006E21052002F06AFCAFF2BC2282210520B5
:1008F00002F064FCAFF2BC229621052002F05EFCFF
:100900001420009053480068806F52490968D1F85C
:100910008010421A04239621782002F0D7FB01AA06
:100920000221082003F03BFE00E068E09DF805008E
:100930004FEA4009AFF2F022AA21052002F03EFC66
:10094000142004234A46AA210090782002F0BEFB1E
:10095000AFF20432BE21052002F030FC14200090DA
:100960003C4800680423BE21C26E782002F0AEFB32
:10097000AFF21C32D221052002F020FC142000909E
:10098000344800680423D221C26F782002F09EFB15
:100990004FF478403B490880AFF23832E621052019
:1009A00002F00CFC142000902A4800680423E62181
:1009B000826F782002F08AFB4FF4FC603149088096
:1009C000AFF25032FA21052002F0F8FB142000901B
:1009D000204800680423FA21D0F88020782002F013
:1009E00075FBAFF260324FF48771052002F0E6FB31
:1009F000AFF264324FF49171052002F0DFFB31E475
:100A0000436C6F736500000044434443323A000076
:100A10004C444F313A52544320504F454E20414CA4
:100A20004C574159530000004C444F323A000000EB
:100A30004C444F333A0000004C444F343A0000001D
:100A4000582D506F77657273000000004158503187
:100A500037330000000000204675656C2052657336
:100A6000756C743A25642C436F756C205043543A6E
:100A700025642C4F4356205043543A25640A000005
:100A8000A00121421A000020704700BFFEE700BF0E
:100A9000FEE700BFFEE700BFFEE770477047704704
:100AA000704700000CB50020019000906C48006871
:100AB00040F480306A49086000BF6948006800F46B
:100AC000003000900198401C0190009818B90198DE
:100AD000B0F5A06FF1D16248006800F4003010B1A9
:100AE0000120009001E0002000900098012843D1EF
:100AF0005C48006840F010005A49086008460068E9
:100B000020F0030008600846006840F0020008601A
:100B10005348406852494860084640684860084663
:100B2000406840F4806048600846406820F47C10CB
:100B300048600846406840F4E8104860084600688D
:100B400040F08070086000BF4548006800F0007009
:100B50000028F9D04248406820F00300404948602E
:100B60000846406840F00200486000BF3C484068CA
:100B700000F00C000828F9D10CBD10B5FFF792FF6A
:100B800010BD10B53648006840F0010034490860D7
:100B900008464068344908403149486008460068C2
:100BA000324908402E4908600846006820F4802039
:100BB00008600846406820F4FE0048604FF41F00BB
:100BC0008860FFF7DAFF4FF000602949086010BD28
:100BD00010B5002100200022214B5B6803F00C01BE
:100BE00021B1042906D0082928D107E0214B224C45
:100BF000236027E01F4B204C236023E0184B5B68E9
:100C000003F47010164B5B6803F48032022303EB8D
:100C1000904022B9194B4343174C23600DE0104B11
:100C20005B6803F4003323B1144B4343124C23603D
:100C300003E0104B4343104C236003E00D4B0E4C7C
:100C4000236000BF00BF064B5B68C3F303130C4C6B
:100C5000E15C094B1B68CB40074C236010BD0000D2
:100C600000100240002002400000FFF8FFFFF6FEE7
:100C700008ED00E000127A000400002000093D00A9
:100C80000800002008B50121042004F06BFC4FF49B
:100C90008070ADF8000010208DF8030003208DF85F
:100CA000020069460E4804F0A1F94FF480710C4827
:100CB00004F049FA0121202004F054FC0420ADF88E
:100CC000000010208DF8030003208DF80200694613
:100CD000044804F08BF90421024804F034FA08BDFA
:100CE000000801400014014008B50121042004F06F
:100CF00039FC4FF42040ADF8000048208DF8030087
:100D000069462E4804F072F90120ADF80000282051
:100D10008DF803006946294804F068F908BD10B54C
:100D20000121274804F033FA2648007878B3264892
:100D3000006840B124480830006820B122483438A7
:100D40000068012824D10A2003F080FF00201D49FB
:100D500008701D48006828B901211C4804F017FAE2
:100D6000012010BD18480830006828B90121174833
:100D700004F00DFA0220F4E7134834380068012823
:100D800016D10121114804F002FA0320E9E7FFE738
:100D90000D48006801280BD10B4808300068012875
:100DA00006D109483438006810B901200549087097
:100DB0000121064804F0EBF90020D2E700080140C9
:100DC00000043000180000203401214200023000ED
:100DD0004FF48071FE4A516149005161FD4908603C
:100DE00080215161116189001161704710B54FF088
:100DF0008830F8490C390860091D08600020F54961
:100E000008608815F2490861400048614020486147
:100E1000F148008848F68911884202D1022003F087
:100E200031FF4020EA490861EA48001F006884B2A7
:100E3000481508614FF03330E6490C390860091D48
:100E400008604FF6FF70E3490860204610BD10B5FA
:100E500004460B462046FFF7BBFF4FF48070DC4989
:100E6000086140004861DB480360802048610861F8
:100E70008000086110BD10B504462046FFF7A8FFAA
:100E8000FFF7B4FF10BD00B5D348008849F24131E7
:100E9000884203D12C20FFF79BFF02E02220FFF7BE
:100EA00097FF00BD4FF48071C94A1161490051613B
:100EB000C849086080215161116189001161704742
:100EC00030B5014601F01F04C1F34513CA0AE5021B
:100ED00005EB43151544A8B230BD2DE9F041054698
:100EE0000E46F02D02DAB6F5A07F02DB0020BDE849
:100EF000F0813146284604F09FFFB748008849F248
:100F00004131884203D12E20FFF762FF02E0222008
:100F1000FFF75EFF4FF08830AE490C390860091DBD
:100F200008604FF6FF70AB4908608815A849086152
:100F3000400048614020486108614861A648008837
:100F400048F68911884202D1022003F09BFE40201E
:100F50009F4908619F48001F006884B29E4800882E
:100F600049F2413188420DD14020994948610861D8
:100F70009848001F00681FFA80F8E7B24FF6FF702C
:100F800000EA07274FF40070914908614FF03330B1
:100F900090490C390860091D08604FF6FF708D49B3
:100FA00008608D48008844F23551884210D08A4844
:100FB0000088091F88420BD08748008848F68911AD
:100FC000884205D0844800884BF20551884201D1FF
:100FD00020468CE78048008849F24131884207D199
:100FE000E012C002B91240EA411040EAE8207EE770
:100FF0002046FFF765FF7AE700B57748008849F299
:101000004131884203D12920FFF7E2FE04E040F29B
:1010100073110720FFF71BFF00BD00B56E48008865
:1010200049F24131884203D12820FFF7D1FE03E085
:1010300000210720FFF70BFF00BD70B50546002417
:1010400000266548008849F2413188427ED1082D4A
:101050001CD2DFE805F00406090C0F12151800BFBA
:1010600014E044F0800411E044F040040EE044F049
:10107000C0040BE044F0200408E044F0600405E004
:1010800044F0A00402E044F0E00400BF00BF3626B4
:1010900044F0080421463046FFF7D9FE04F0200052
:1010A000002875D02A20FFF793FE4FF4807048493E
:1010B000086140004861002046490860802044499A
:1010C0004861086180000861401008614000486183
:1010D00000204049086080203D4948610861800047
:1010E00008614010086140004861012039490860EA
:1010F000802037494861086180000861401008611C
:10110000400048613F2033490860802030494861F1
:101110000861800008612B20FFF75AFE4FF48070B1
:101120002B4908614000486100202A49086080205E
:10113000274948610861800008614010086140004B
:101140004861002023490860802000E09AE020499F
:1011500048610861800008614010086140004861F2
:1011600000201C49086080201949486108618000FE
:1011700008614010086140004861EF20154908608F
:10118000802013494861086180000861ACE0FFE7F6
:101190002A20FFF71DFE4FF480700D4908614000C2
:1011A000486100200B4908608020094948610861B6
:1011B0008000086140100861400048610020054936
:1011C000086080200249486108618000086105E0EC
:1011D000001001400C0C01401E000020401008616E
:1011E000400048610020FE4908608020FD494861B8
:1011F0000861800008614010086140004861EF20EC
:10120000F74908608020F74948610861800008615B
:101210002B20FFF7DDFD4FF48070F249086140009C
:1012200048610020EE4908608020EE49486108616D
:101230008000086140100861400048610020E849D2
:1012400008608020E749486108618000086140101B
:101250000861400048610120E14908608020E149BF
:1012600048610861800008614010086140004861E1
:101270003F20DB4908608020DA494861086180002E
:10128000086131E0082D1CD2DFE805F004070A0DE3
:101290000F12151844F0300413E044F0100410E06D
:1012A00044F020040DE000BF0BE044F0380408E0F7
:1012B00044F0280405E044F0180402E044F0080477
:1012C00000BF00BFC848008848F68911884204D191
:1012D000112646F24000044302E0032644F4805401
:1012E00021463046FFF7B3FD70BD70B504460D468C
:1012F0002946204604F0A0FDFFF7C5FD4FF480709D
:10130000B849086140004861B8480088B44908609D
:101310008020B449486108618000086170BD70B5E3
:10132000044600250021084604F086FDFFF7ABFDCA
:1013300000BF0DE04FF48070AA4908614000486189
:10134000A7480460802048610861800008616D1C26
:10135000B5F5963FEED370BD08B50121192004F014
:1013600001F90121A24803F012FF4FF4F860ADF833
:10137000000010208DF8030003208DF8020069465C
:10138000984803F033FE4FF4F861964803F0DBFE13
:101390004FF6FF70ADF80000694691480C3803F035
:1013A00025FE4FF6FF718E480C3803F0CCFE32203C
:1013B00003F04CFC01210020FFF749FD322003F02F
:1013C00045FC0020FFF757FD874908800846008844
:1013D00028B1084600884FF6FF7188421BD1D32000
:1013E000FFF7F6FCFFF702FDFFF700FDFFF7FEFC3D
:1013F00000F0BF007C490880084600884FF6FF7166
:1014000001EA002078490880FFF7F0FC7649098856
:101410000843754908807448018876A004F030FBC1
:101420007148008849F2413188427DD1CF20FFF7D1
:10143000CFFC4FF480706B49086140004861002088
:101440006749086080206749486108618000086139
:101450004010086140004861C12061490860802057
:1014600060494861086180000861401008614000DF
:10147000486130205A49086080205A494861086113
:1014800080000861ED20FFF7A3FC4FF48070554900
:10149000086140004861642051490860802051493A
:1014A000486108618000086140100861400048619F
:1014B00003204B49086080204A4948610861800048
:1014C00008614010086140004861122044490860EA
:1014D000802044494861086180000861401008612B
:1014E0004000486181203E49086080203D494861B4
:1014F000086180000861E820FFF76AFC4FF4807003
:1015000038490861400048618520354908608020DD
:10151000344948610861800008614010086140005A
:10152000486110202E4900E08AE3086080202D49A0
:10153000486108618000086140100861400048610E
:101540007A20274908608020264948610861800088
:101550000861CB20FFF73CFC4FF480702149086103
:101560004000486139201E49086080201D494861BB
:1015700008618000086140100861400048612C202B
:101580001749086080201749486108618000086198
:101590004010086140004861002011490860802027
:1015A00010494861086180000861401008614000EE
:1015B000486134200A49086080200A49486108616E
:1015C0008000086140100861400048610220044921
:1015D000086080200349486108618000086111E0CB
:1015E0000C0C0140001001401E0000201A000020D9
:1015F00000023000204C43442049443A25780D0A2B
:1016000000000000F720FFF7E3FB4FF48070FE4975
:101610000861400048612020FC4908608020FA49A8
:101620004861086180000861EA20FFF7D1FB4FF4B0
:101630008070F5490861400048610020F349086066
:101640008020F1494861086180000861401008610C
:10165000400048610020ED4908608020EA49486167
:10166000086180000861C020FFF7B2FB4FF4807072
:10167000E5490861400048611B20E449086080207A
:10168000E1494861086180000861C120FFF7A0FBC3
:101690004FF48070DC490861400048610120DB495B
:1016A00008608020D8494861086180000861C52031
:1016B000FFF78EFB4FF48070D3490861400048610A
:1016C0003020D24908608020CF49486108618000FD
:1016D000086140100861400048613020CB49086033
:1016E0008020C9494861086180000861C720FFF770
:1016F0006FFB4FF48070C449086140004861B72017
:10170000C24908608020C0494861086180000861C2
:101710003620FFF75DFB4FF48070BB490861400045
:1017200048614820B94908608020B749486108618C
:10173000800008613A20FFF74BFB4FF48070B249FC
:101740000861400048615520B04908608020AE49DA
:101750004861086180000861B120FFF739FB4FF450
:101760008070A9490861400048610020A7490860CD
:101770008020A54948610861800008614010086127
:10178000400048611A20A149086080209E494861B4
:10179000086180000861B620FFF71AFB4FF48070E3
:1017A00099490861400048610A20984908608020F2
:1017B0009549486108618000086140100861400057
:1017C0004861A2209149086080208F4948610861E2
:1017D00080000861F220FFF7FBFA4FF480708A491D
:1017E00008614000486100208849086080208649DF
:1017F00048610861800008612620FFF7E9FA4FF48C
:101800008070814908614000486101207F4908607B
:1018100080207D494861086180000861E020FFF771
:10182000D7FA4FF4807078490861400048610F2072
:101830007649086080207449486108618000086129
:1018400040100861400048612A20704908608020EB
:101850006D494861086180000861401008614000DE
:10186000486128206949086080206749486108610B
:101870008000086140100861400048610820634909
:10188000086080206049486108618000086140105C
:101890000861400048610E205C49086080205A4978
:1018A000486108618000086140100861400048619B
:1018B000082056490860802053494861086180002B
:1018C0000861401008614000486154204F49086099
:1018D00080204D494861086180000861401008611E
:1018E00040004861A9204949086080204649486174
:1018F0000861800008614010086140004861432091
:1019000042490860802040494861086180000861C0
:1019100040100861400048610A203C49086080206E
:101920003949486108618000086140100861400041
:1019300048610F20354908608020334948610861BB
:1019400080000861401008614000486100202F4974
:10195000086080202C4948610861800008614010BF
:10196000086140004861002028490860802026491D
:1019700048610861800008614010086140004861CA
:1019800000202249086080201F49486108618000CA
:101990000861401008614000486100201B49086050
:1019A000802019494861086180000861E120FFF743
:1019B0000FFA4FF48070144908614000486100201C
:1019C0001249086080201049486108618000086160
:1019D000401008614000486115200C4908608020D3
:1019E00009494861086180000861401008614000B1
:1019F0004861172005490860802003494861086153
:101A000080000861401003E0001001400C0C014010
:101A10000861400048610720F84908608020F849C3
:101A20004861086180000861401008614000486119
:101A30001120F24908608020F14948610861800066
:101A4000086140100861400048610620EB490860C9
:101A50008020EB49486108618000086140100861FE
:101A6000400048612B20E54908608020E449486136
:101A700008618000086140100861400048615620FC
:101A8000DE4908608020DE49486108618000086105
:101A900040100861400048613C20D849086080201F
:101AA000D749486108618000086140100861400022
:101AB00048610520D14908608020D149486108610A
:101AC0008000086140100861400048611020CB4947
:101AD00008608020CA4948610861800008614010A0
:101AE0000861400048610F20C44908608020C44953
:101AF0004861086180000861401008614000486149
:101B00003F20BE4908608020BD49486108618000CF
:101B1000086140100861400048613F20B7490860F3
:101B20008020B74948610861800008614010086161
:101B3000400048610F20B14908608020B0494861E9
:101B40000861800008612B20FFF742F94FF4807094
:101B5000AB490861400048610020A8490860802026
:101B6000A749486108618000086140100861400091
:101B700048610020A14908608020A14948610861AE
:101B800080000861401008614000486101209B49C5
:101B9000086080209A49486108618000086140100F
:101BA0000861400048613F209449086080209449C2
:101BB00048610861800008612A20FFF709F94FF4A5
:101BC00080708F4908614000486100208B4908609F
:101BD00080208B49486108618000086140100861DD
:101BE00040004861002085490860802084494861A0
:101BF00008618000086140100861400048610020D1
:101C00007E49086080207E49486108618000086143
:101C10004010086140004861EF207849086080204A
:101C2000774948610861800008611120FFF7D0F80A
:101C3000782003F00BF82920FFF7CAF801F094B8D8
:101C40007048008849F2253188427DD147F6F0017D
:101C5000E520FFF7FCF84FF480710120FFF7F7F85B
:101C60004FF4E0610220FFF7F2F841F23001032067
:101C7000FFF7EDF800210420FFF7E9F840F2022118
:101C80000820FFF7E4F800210920FFF7E0F8002121
:101C90000A20FFF7DCF800210C20FFF7D8F800211C
:101CA0000D20FFF7D4F800210F20FFF7D0F8002116
:101CB0001020FFF7CCF807211120FFF7C8F800210A
:101CC0001220FFF7C4F800211320FFF7C0F800210D
:101CD0000720FFF7BCF841F290611020FFF7B7F83A
:101CE00040F227211120FFF7B2F89D211220FFF7C3
:101CF000AEF84FF4C8511320FFF7A9F82521292089
:101D0000FFF7A5F80D212B20FFF7A1F807213020C0
:101D1000FFF79DF840F203313120FFF798F80321D7
:101D20003220FFF794F840F206213520FFF78FF8B4
:101D300008213620FFF78BF840F206413720FFF7E5
:101D400086F84FF4417100E05EE03820FFF77FF83D
:101D500007213920FFF77BF840F202613C20FFF7B2
:101D600076F808213D20FFF772F800215020FFF798
:101D70006EF8EF215120FFF76AF800215220FFF79B
:101D800066F840F23F115320FFF761F84FF4274106
:101D90006020FFF75CF801216120FFF758F800216F
:101DA0006A20FFF754F800218020FFF750F8002147
:101DB0008120FFF74CF800218220FFF748F800212E
:101DC0008320FFF744F800218420FFF740F800212A
:101DD0008520FFF73CF810219020FFF738F84FF4EA
:101DE000C0619220FFF733F840F233110720FFF76C
:101DF0002EF822210020FFF72AF81FE70C0C0140E3
:101E0000001001401E000020FE48008849F22831E1
:101E100088427DD11021E720FFF719F80121002029
:101E2000FFF715F84FF480710120FFF710F84FF419
:101E3000E0610220FFF70BF841F230010320FFF7C9
:101E400006F800210420FFF702F840F207210820DD
:101E5000FEF7FDFF00210920FEF7F9FF00210A200F
:101E6000FEF7F5FF01210C20FEF7F1FF00210D2008
:101E7000FEF7EDFF00210F20FEF7E9FF0021102003
:101E8000FEF7E5FF07211120FEF7E1FF00211220F8
:101E9000FEF7DDFF00211320FEF7D9FF322002F00C
:101EA000D5FE41F290511020FEF7D1FF40F22721DC
:101EB0001120FEF7CCFF322002F0C8FE9C21122038
:101EC000FEF7C5FF322002F0C1FE4FF4C8511320C7
:101ED000FEF7BDFF23212920FEF7B9FF0E212B209D
:101EE000FEF7B5FF322002F0B1FE00212020FEF700
:101EF000AEFF40F23F112120FEF7A9FF322002F091
:101F0000A5FE07213020FEF7A2FF40F2077100E096
:101F100087E03120FEF79BFF06213220FEF797FF76
:101F200040F204713520FEF792FF41F6047136202D
:101F3000FEF78DFF04213720FEF789FF00213820AE
:101F4000FEF785FF40F206713920FEF780FF40F270
:101F500001713C20FEF77BFF0F213D20FEF777FF4C
:101F6000322002F073FE00215020FEF770FFEF21B7
:101F70005120FEF76CFF00215220FEF768FF40F26F
:101F80003F115320FEF763FF4FF427416020FEF717
:101F90005EFF01216120FEF75AFF00216A20FEF753
:101FA00056FF00218020FEF752FF00218120FEF71E
:101FB0004EFF00218220FEF74AFF00218320FEF71A
:101FC00046FF00218420FEF742FF00218520FEF716
:101FD0003EFF10219020FEF73AFF00219220FEF7ED
:101FE00036FF03219320FEF732FF4FF488719520CE
:101FF000FEF72DFF00219720FEF729FF00219820F2
:10200000FEF725FF40F233110720FEF720FF0021E5
:102010002020FEF71CFF40F23F112120FEF717FFA2
:102020000CE67848008849F22031884204D075488F
:102030000088B0F5134F7DD100210846FEF707FF59
:102040004FF480710120FEF702FF4FF4E06102209F
:10205000FEF7FDFE41F230010320FEF7F8FE0021FD
:102060000420FEF7F4FE40F202210820FEF7EFFE06
:1020700000210920FEF7EBFE00210A20FEF7E7FE13
:1020800001210C20FEF7E3FE00210D20FEF7DFFE0C
:1020900000210F20FEF7DBFE322002F0D7FD40F2D8
:1020A00001110720FEF7D3FE322002F0CFFD4FF4DE
:1020B00086511020FEF7CBFE07211120FEF7C7FE48
:1020C0004FF488711220FEF7C2FE4FF430611320E6
:1020D000FEF7BDFE00212920FEF7B9FE44F21001F3
:1020E0002B20FEF7B4FE00215020FEF7B0FEEF21BA
:1020F0005120FEF7ACFE00215220FEF7A8FE40F270
:102100003F115320FEF7A3FE4FF41C516020FEF751
:102110009EFE01216120FEF79AFE00216A20FEF753
:1021200096FE00218020FEF792FE00218120FEF71E
:102130008EFE00E02EE000218220FEF788FE0021C6
:102140008320FEF784FE00218420FEF780FE00211C
:102150008520FEF77CFE10219020FEF778FE0021FE
:102160009220FEF774FE01219320FEF770FE4FF4DB
:1021700088719520FEF76BFE00219720FEF767FE21
:1021800000219820FEF763FE40F273110720FEF74E
:102190005EFE53E51B48008845F2084188427DD128
:1021A0004FF480710120FEF752FE4FF4E0610220EF
:1021B000FEF74DFE41F230010320FEF748FE0021FC
:1021C0000420FEF744FE40F207210820FEF73FFE00
:1021D00000210920FEF73BFE00210A20FEF737FE12
:1021E00000210C20FEF733FE00210D20FEF72FFE0C
:1021F00000210F20FEF72BFE142002F027FD41F2F4
:10220000B06101E01E0000201020FEF720FE012139
:102210001120FEF71CFE01211720FEF718FE4FF4D7
:102220009C711220FEF713FE4FF400611320FEF79D
:102230000EFE09212920FEF70AFE09212A20FEF7B9
:1022400006FE0021A420FEF702FE00215020FEF72A
:10225000FEFDEF215120FEF7FAFD00215220FEF78E
:10226000F6FD40F23F115320FEF7F1FD4FF41C51F3
:102270006020FEF7ECFD01216120FEF7E8FD002162
:102280006A20FEF7E4FD00218020FEF7E0FD00213A
:102290008120FEF7DCFD0021822000E027E0FEF730
:1022A000D6FD00218320FEF7D2FD00218420FEF719
:1022B000CEFD00218520FEF7CAFD13219020FEF7F8
:1022C000C6FD00219220FEF7C2FD03219320FEF7F8
:1022D000BEFD4FF488719520FEF7B9FD40F27311F1
:1022E0000720FEF7B4FD322002F0B0FCA6E4FE4861
:1022F000008841F2055188427ED100210720FEF777
:10230000A6FD322002F0A2FC4FF48E711220FEF7DF
:102310009EFD0121A420FEF79AFD0F210820FEF763
:1023200096FD08210A20FEF792FD08210D20FEF7F8
:102330008EFD40F207713020FEF789FD0721312024
:10234000FEF785FD40F203613220FEF780FD4FF479
:10235000E0613320FEF77BFD40F202213420FEF7DE
:1023600076FD02213520FEF772FD41F60F71362011
:10237000FEF76DFD40F207713720FEF768FD002182
:102380003820FEF764FD00213920FEF760FD40F2A1
:1023900007713A20FEF75BFD00213B20FEF757FD59
:1023A00007213C20FEF753FD00213D20FEF74FFDA5
:1023B000322002F04BFC01210720FEF748FD0121ED
:1023C0001720FEF744FD322002F040FC4FF4BD51CF
:1023D0001020FEF73CFD40F217211120FEF737FDDB
:1023E0004FF48F711220FEF732FD4FF4706113200D
:1023F000FEF72DFD002100E094E02A20FEF727FDE6
:102400000A212920FEF723FD4FF49F711220FEF7C9
:102410001EFD00215020FEF71AFDEF215120FEF78E
:1024200016FD00215220FEF712FD40F23F1153200D
:10243000FEF70DFD4FF41C516020FEF708FD012151
:102440006120FEF704FD00216A20FEF700FD002157
:102450008020FEF7FCFC00218120FEF7F8FC002123
:102460008220FEF7F4FC00218320FEF7F0FC00211F
:102470008420FEF7ECFC00218520FEF7E8FC132108
:102480009020FEF7E4FC4FF440719220FEF7DFFC51
:1024900005219320FEF7DBFC00219520FEF7D7FCF9
:1024A00000219720FEF7D3FC00219820FEF7CFFCF7
:1024B0004FF480710120FEF7CAFC4FF4E061022066
:1024C000FEF7C5FC41F230010320FEF7C0FC0021FD
:1024D0000420FEF7BCFC00210C20FEF7B8FC002114
:1024E0000F20FEF7B4FC00212020FEF7B0FC0021F5
:1024F0002120FEF7ACFC21210720FEF7A8FC1420C8
:1025000002F0A4FB61210720FEF7A1FC142002F0D9
:102510009DFB40F273110720FEF799FC142002F096
:1025200095FB6AE4704800884BF2055188427CD1E3
:1025300000210846FEF78BFC00210846FEF787FCC9
:1025400000210846FEF783FC00210846FEF77FFCC9
:102550000121A420FEF77BFC142002F077FB4FF44E
:102560001C516020FEF773FC40F202210820FEF7A8
:102570006EFC4FF405713020FEF769FC43F21571D3
:102580003120FEF764FC40F204613220FEF75FFC6C
:1025900040F616613320FEF75AFC42F21121342036
:1025A000FEF755FC4FF4A8513520FEF750FC48F2D9
:1025B00007513620FEF74BFC41F207413720FEF76A
:1025C00046FC41F203413820FEF741FC202139202E
:1025D000FEF73DFC1A219020FEF739FC0021102067
:1025E000FEF735FC07211120FEF731FC00211220F7
:1025F000FEF72DFC00211320FEF729FC142002F029
:1026000025FB4FF4E6611020FEF721FC40F2371164
:102610001120FEF71CFC142002F018FB4FF4DC71B3
:102620001220FEF714FC142000E088E002F00EFBFC
:102630004FF470611320FEF70AFC80212A20FEF778
:1026400006FC48212920FEF702FC142002F0FEFAC5
:102650004FF480710120FEF7FAFB4FF4E061022095
:10266000FEF7F5FB41F230210320FEF7F0FB40F2CC
:1026700002210820FEF7EBFB00210A20FEF7E7FB12
:1026800000210C20FEF7E3FB00210D20FEF7DFFB0D
:1026900030210E20FEF7DBFB00215020FEF7D7FB98
:1026A000EF215120FEF7D3FB00215220FEF7CFFB94
:1026B00040F23F115320FEF7CAFB4FF41C5160203B
:1026C000FEF7C5FB01216120FEF7C1FB00216A2056
:1026D000FEF7BDFB11219020FEF7B9FB4FF4C0615E
:1026E0009220FEF7B4FB01E01E00002040F2024100
:1026F0009320FEF7ACFB02219420FEF7A8FB1420E8
:1027000002F0A4FA01210720FEF7A1FB142002F039
:102710009DFA61210720FEF79AFB40F27311072012
:10272000FEF795FB00212020FEF791FB00212120E0
:10273000FEF78DFB22210020FEF789FB14E3FE4803
:1027400000884CF2055188427ED100210846FEF7F0
:102750007EFB00210846FEF77AFB142002F076FA91
:1027600000210846FEF773FB00210846FEF76FFBC9
:1027700000210846FEF76BFB00210846FEF767FBC9
:102780000121A420FEF763FB142002F05FFA4FF44E
:102790001C516020FEF75BFB40F606010820FEF7A7
:1027A00056FB40F203713020FEF751FB012131202E
:1027B000FEF74DFB04213220FEF749FB4FF48171F7
:1027C0003320FEF744FB4FF440713420FEF73FFB0B
:1027D00040F203113520FEF73AFB1F213620FEF7A9
:1027E00036FB40F203713720FEF731FB0121382020
:1027F000FEF72DFB04213920FEF729FB152190203F
:10280000FEF725FB4FF482611020FEF720FB40F21B
:1028100047211120FEF71BFB4FF4DE711220FEF75B
:1028200016FB4FF460611320FEF711FB782002F0D5
:102830000DFA4FF480710120FEF709FB4FF400718F
:102840000220FEF704FB00E050E041F230010320DB
:10285000FEF7FDFA08210A20FEF7F9FA00210C2004
:10286000FEF7F5FA20210E20FEF7F1FA00210F20E5
:10287000FEF7EDFA00212020FEF7E9FA00212120E1
:10288000FEF7E5FA3D212A20FEF7E1FA142002F0D6
:10289000DDF92D212920FEF7DAFA00215020FEF77C
:1028A000D6FA4DF2EF015120FEF7D1FA0021522065
:1028B000FEF7CDFA40F23F115320FEF7C8FA00218F
:1028C0006120FEF7C4FA00216A20FEF7C0FA4FF437
:1028D00040719220FEF7BBFA05219320FEF7B7FA6C
:1028E0004FF480710720FEF7B2FA3DE2924800886B
:1028F00048F6891188427DD101210020FEF7A7FA10
:102900004AF6A4010320FEF7A2FA00210C20FEF7EC
:102910009EFA40F60C010D20FEF799FA4FF42C5167
:102920000E20FEF794FAB0211E20FEF790FA42F630
:102930003F310120FEF78BFA4FF4C0610220FEF711
:1029400086FA00211020FEF782FA46F2700111206B
:10295000FEF77DFA00210520FEF779FA0021062016
:10296000FEF775FA4EF61C711620FEF770FA032179
:102970001720FEF76CFA40F233210720FEF767FAC2
:1029800000210B20FEF763FA00210F20FEF75FFA0B
:1029900000214120FEF75BFA00214220FEF757FAA2
:1029A00000214820FEF753FA40F23F114920FEF77C
:1029B0004EFA00214A20FEF74AFA00214B20FEF78A
:1029C00046FA4FF46F414420FEF741FA00214520BA
:1029D000FEF73DFA40F23F114620FEF738FA40F28A
:1029E00007713020FEF733FA4FF401713120FEF702
:1029F0002EFA00E03DE04FF401713220FEF727FA95
:102A000040F202513320FEF722FA40F207513420FF
:102A1000FEF71DFA4FF401713520FEF718FA4FF456
:102A200001713620FEF713FA40F202513720FEF70B
:102A30000EFA40F202313A20FEF709FA40F2023172
:102A40003B20FEF704FA00212320FEF700FA0021C4
:102A50002420FEF7FCF94FF400412520FEF7F7F99A
:102A600000214F20FEF7F3F900214E20FEF7EFF989
:102A70007AE13148008844F2315188427DD1012108
:102A80000020FEF7E4F90A2002F0E0F841F22861A4
:102A90001020FEF7DCF90E211220FEF7D8F940F6DF
:102AA00039211320FEF7D3F90A2002F0CFF8402194
:102AB0001120FEF7CCF950211520FEF7C8F90A20A5
:102AC00002F0C4F81E211220FEF7C1F90A2002F01C
:102AD000BDF84FF4B1511020FEF7B9F942F6392193
:102AE0001320FEF7B4F90A2002F0B0F84FF4807119
:102AF0000120FEF7ACF94FF440710220FEF7A7F970
:102B000041F230010320FEF7A2F940F20221082031
:102B1000FEF79DF908210A20FEF799F900213020DF
:102B2000FEF795F940F202413120FEF790F94FF49B
:102B30008371322002E000001E000020FEF787F9BA
:102B400040F203513320FEF782F94FF482713420B2
:102B5000FEF77DF940F201313520FEF778F940F2B9
:102B600007713620FEF773F940F205313720FEF782
:102B70006EF94FF40271382000E040E0FEF767F98B
:102B800040F60B713920FEF762F902214120FEF771
:102B90005EF94FF41C516020FEF759F901216120C4
:102BA000FEF755F94FF404719020FEF750F94FF4F9
:102BB00085719220FEF74BF904219320FEF747F927
:102BC0004FF48071A020FEF742F901210720FEF7A3
:102BD0003EF921210720FEF73AF923210720FEF7CD
:102BE00036F933210720FEF732F940F2331107207E
:102BF000FEF72DF90021A020FEF729F9B4E0FA48EC
:102C0000008844F235518842F8D130211520FEF772
:102C10001EF910219A20FEF71AF920211120FEF743
:102C200016F943F228411020FEF711F90221122073
:102C3000FEF70DF941F238011320FEF708F92820BC
:102C400002F004F812210846FEF701F9282001F0ED
:102C5000FDFF43F220411020FEF7F9F843F238015E
:102C60001320FEF7F4F8462001F0F0FF0021302099
:102C7000FEF7EDF840F202413120FEF7E8F840F2AD
:102C800007313220FEF7E3F84FF441713320FEF7AD
:102C9000DEF804213420FEF7DAF840F20141352055
:102CA000FEF7D5F840F207713620FEF7D0F840F273
:102CB00005313720FEF7CBF84FF4C2613820FEF71C
:102CC000C6F84FF4C2613920FEF7C1F84FF48071A5
:102CD0000120FEF7BCF84FF440710220FEF7B7F870
:102CE00041F230010320FEF7B2F840F60801082057
:102CF000FEF7ADF808210A20FEF7A9F84FF41C51A1
:102D00006020FEF7A4F801216120FEF7A0F84FF43F
:102D10009F719020FEF79BF84FF480719220FEF790
:102D200096F84FF480719320FEF791F84FF44051DC
:102D3000A020FEF78CF81021A320FEF788F80121CF
:102D40000720FEF784F821210720FEF780F82321D1
:102D50000720FEF77CF833210720FEF778F840F2D1
:102D600033110720FEF773F80020FEF766F9012003
:102D70009E4908604FF6FF70FEF7D1FA08BD2DE9B5
:102D8000F05F05460E4617469846DDF828A04FF03E
:102D9000000B0020FEF751F9781B401C1FFA80FB46
:102DA00034461EE02146284603F046F8FEF76BF84D
:102DB0004FF0000911E04FF480708D490861400028
:102DC00048618C48C0F800A08020486108618000FC
:102DD000086109F101001FFA80F9D945EBDB601C9D
:102DE00084B24445DEDD0020FEF727F9BDE8F09F00
:102DF0002DE9FF4F85B081468A460020049003905C
:102E00000798A0EB09050898A0EB0A06CDF80890F2
:102E1000CDF804A0002D01DD012705E00DB9002744
:102E200002E04FF0FF376D42002E02DD4FF0010847
:102E300006E016B94FF0000802E04FF0FF38764286
:102E4000B54201DD2C4600E034464FF0000B21E096
:102E5000019A91B2029A90B2FEF747FA0498284478
:102E600004900398304403900498A04205DD049830
:102E7000001B04900298384402900398A04205DD9C
:102E80000398001B03900198404401900BF101004E
:102E90001FFA80FB601C8345DADD09B0BDE8F08FC6
:102EA0002DE9F04104460D4616461F462B46324694
:102EB00029462046FFF79CFF3B46224629462046EE
:102EC000FFF796FF3B46324639462046FFF790FF14
:102ED0003B46324629463046FFF78AFFBDE8F0817F
:102EE0002DE9F04706460F4690460024454603204C
:102EF000A0EB480948E03A1B91B2721B90B2FEF772
:102F0000F4F93A1B91B2721990B2FEF7EEF97A1900
:102F100091B2321B90B2FEF7E8F93A1B91B2721BE4
:102F200090B2FEF7E2F97A1B91B2321B90B2FEF733
:102F3000DCF93A1991B2721990B2FEF7D6F97A1B00
:102F400091B2321990B2FEF7D0F97A1991B23219D2
:102F500090B2FEF7CAF93A1991B2721B90B2FEF71D
:102F6000C4F9641CB9F1000F03DAA000801D81448C
:102F700004E0601B80000A3081446D1E7A1991B212
:102F8000321990B2FEF7B1F9AC42B4DDBDE8F0877A
:102F90002DE9F84F0746894616461D46BB4616489A
:102FA00000880090E82F02DCB9F59C7F01DDBDE8C8
:102FB000F88FA6F12000C6B20A98002848D1002454
:102FC00043E00C2D07D106EB46000C4901EB8000D5
:102FD00010F804A004E00A4800EB061010F804A062
:102FE0004FF0000825E000001E000020A80122424A
:102FF000001001400C0C01401A000020045F000882
:10300000786300080AF0010018B17F490098088031
:1030100003E07E4800887C49088049463846FEF730
:1030200064F94FEA6A0A781C87B208F1010000F0DF
:10303000FF0805EBD571B8EB610FE3DB5F4609F1E3
:1030400001001FFA80F9601CC4B2AC42B9DB2DE06C
:10305000002429E00C2D07D106EB46006C4901EB5A
:10306000800010F804A004E06A4800EB061010F895
:1030700004A04FF0000810E00AF0010038B109EB9D
:10308000040291B207EB080290B2FEF72EF94FEA64
:103090006A0A08F1010000F0FF0805EBD571B8EBF2
:1030A000610FE9DB601CC4B2AC42D3DB5649009827
:1030B000088000BF7BE710B50246012000E05043C6
:1030C0000B1EA1F10104E1B2F9D110BD2DE9FF4FB2
:1030D00081B0074691461E460E9D4FF0000A00241F
:1030E00039E0301B401EC1B20A20FFF7E4FFB9FBF4
:1030F000F0F00A21B0FBF1F201FB1208BAF1000F67
:1031000016D1701EA04213DDB8F1000F0ED10020C1
:10311000AB4605EBDB71491001FB0471009088B2EE
:103120002B4620220299FFF733FF12E04FF0010AED
:103130000020AB4605EBDB71491001FB04710090E8
:1031400088B208F13001CAB22B460299FFF720FF7E
:1031500000BF601CC4B2B442C3DB05B0BDE8F08F51
:103160002DE9FF4F81B0074690461D46DDE90E6A06
:1031700000241EE0281B401EC1B20A20FFF79BFF5F
:10318000B8FBF0F00A21B0FBF1F201FB1209B346E3
:1031900006EBDB71491001FB047188B209F13001C3
:1031A000CAB23346CDF800A00299FFF7F1FE601CC9
:1031B000C4B2AC42DEDB05B0BDE8F08FF8B5054621
:1031C0000E4614461BE0E82D03DD002506F1100035
:1031D00086B2B6F59C7F06DD0020054606464FF612
:1031E000FF70FEF79CF800200090227810233146F3
:1031F0002846FFF7CDFE05F1080085B2641C207853
:103200000028E0D1F8BD00001A0000201C000020BA
:10321000045F00087863000808B50121102002F05F
:10322000A1F93020ADF8000010208DF80300032034
:103230008DF8020069468B4801F0D8FE01208A49CA
:1032400008608A49C1F8900108BD10B5854800683A
:1032500020F47020834908600846006840F440303C
:10326000086001208049091F08608049C1F8940165
:10327000042001F007FD00207B49091F086004209D
:1032800001F000FD00207949C1F8940110BD10B58E
:103290007448006820F4702072490860084600688D
:1032A00040F44030086000206F4908606F49C1F861
:1032B0009001042001F0E6FC01206B4908606B4995
:1032C000C1F89001042001F0DDFC10BD10B5002410
:1032D0006448006820F4702062490860084600686D
:1032E00040F40020086001205F49091F086001F0D8
:1032F000C9FC01205D49C1F8940101F0C3FC07E05D
:10330000601CC4B2FA2C03DDFFF7C1FF012010BD21
:103310005548843800680028F2D15349086000BF3E
:10332000F5E710B50020504908604E48006820F4C9
:1033300070204C4908600846006840F4403008603E
:1033400000204A49C1F89001022001F09BFC0120B5
:1033500045490860022001F095FC00204349C1F86E
:10336000940110BD10B500203F4908603D48006839
:1033700020F470203B4908600846006840F4403063
:10338000086001203949C1F89001022001F07AFC5F
:10339000012035490860022001F074FC0020334907
:1033A000C1F8940110BD70B504462E48006820F4A1
:1033B00070202C4908600846006840F440300860DE
:1033C000002029490860002517E0E0092649091F67
:1033D00008606006040E022001F054FC012023491D
:1033E000C1F89401022001F04DFC00201E49086044
:1033F000012001F047FC681CC5B2082DE5DB70BD5B
:1034000070B5054600241748006820F4702015495F
:1034100008600846006840F400200860002616E0B6
:10342000002011490860022001F02CFC01200F4906
:10343000C1F89401022001F025FC6006040E0A4840
:103440008438006808B1601CC4B2701CC6B2082E73
:10345000E6DB15B9FFF786FF01E0FFF762FF2046C4
:1034600070BD000000100140940122420000224281
:1034700010B5FFF7D1FE10BD70B504460025FFF76B
:10348000E4FEFF2094FBF0F0682101EB4000C6B29F
:103490003046FFF788FFFFF719FFFF2094FBF0F19C
:1034A00000FB1140C6B23046FFF77DFFFFF70EFF6D
:1034B000FFF7CBFE6920FFF776FFFFF707FF00203D
:1034C000FFF79EFF0546FFF7E2FE284670BD70B588
:1034D00004460D46FFF7B9FEFF2094FBF0F068218B
:1034E00001EB4000C6B23046FFF75DFFFFF7EEFE8E
:1034F000FF2094FBF0F100FB1140C6B23046FFF70D
:1035000052FFFFF7E3FE2846FFF74DFFFFF7DEFE11
:10351000FFF7BDFE0A2001F099FB70BD2DE9F041D7
:1035200005460E461746002409E0E20026FA02F29C
:10353000D1B22A1990B2FFF7CAFF601CC4B2BC42D4
:10354000F3DBBDE8F0812DE9F04107460C4600268B
:10355000002509E036023919491B491E88B2FFF7D8
:103560008BFF0644681CC5B2A542F3DB3046BDE8BC
:10357000F08170B506460C46154608E03046721CD0
:1035800096B2FFF779FF04F8010B681E85B2002D93
:10359000F4D170BD70B505460C46164606E021789C
:1035A0002846FFF794FF681C85B2641C301EA6F104
:1035B00001018EB2F3D170BD10B50446052C1DD2A9
:1035C000DFE804F003080D1217000421122000F0B8
:1035D000F7FF15E00821122000F0F2FF10E00221B1
:1035E000122000F0EDFF0BE00121122000F0E8FFB7
:1035F00006E01021122000F0E3FF01E0002010BDE2
:1036000000BF0120FBE710B50446052C1DD2DFE802
:1036100004F003080D1217000421122000F0E6FF49
:1036200015E00821122000F0E1FF10E00221122035
:1036300000F0DCFF0BE00121122000F0D7FF06E0D4
:103640001021122000F0D2FF01E0002010BD00BFC9
:103650000120FBE770B505460C460026052D7ED2FD
:10366000DFE805F0031C344C6400B4F5E16F01DDC4
:10367000012000E0002040F6E44188420DDAA4F584
:10368000E160642190FBF1F0C6B23007010EF02238
:10369000282000F0C0FF012070BD62E0B4F5E16FAA
:1036A00001DD012000E0002040F6E44188420CDA10
:1036B000A4F5E160642190FBF1F0C6B20F2231461F
:1036C000282000F0A8FF0120E6E74AE0B4F52F7FAC
:1036D00001DD012000E0002040F6AC5188420CDA08
:1036E000A4F52F70192190FBF1F0C6B27F2231466C
:1036F000272000F090FF0120CEE732E0B4F52F7FC5
:1037000001DD012000E0002040F6AC5188420CDAD7
:10371000A4F52F70192190FBF1F0C6B27F2231463B
:10372000262000F078FF0120B6E71AE0B4F52F7FDD
:1037300001DD012000E0002040F6E30188420DDABF
:10374000A4F52F70192190FBF1F0C6B25F2231462B
:10375000232000F060FF01209EE700E001E0002050
:103760009AE700BF002097E738B50546052D52D2ED
:10377000DFE805F00313243342006946282000F0F7
:10378000F5FE9DF80000040904EBC40000EB0410F2
:103790004FF4E16101EB80043FE06946282000F02E
:1037A000E5FE9DF8000000F00F0404EBC40000EB00
:1037B00004104FF4E16101EB80042EE069462720FC
:1037C00000F0D4FE9DF8000000F07F0404EBC4007C
:1037D00000EB041000F52F741FE06946262000F06E
:1037E000C5FE9DF8000000F07F0404EBC40000EB70
:1037F000041000F52F7410E06946232000F0B6FE97
:103800009DF8000000F03F0404EBC40000EB04103E
:1038100000F52F7401E0002400BF00BF204638BD32
:1038200038B504466946122000F0A0FE052C2CD2C3
:10383000DFE804F0030B131B23009DF8000000F0E9
:10384000040008B1012038BD20E09DF8000000F020
:10385000080008B10120F6E718E09DF8000000F02C
:10386000020008B10120EEE710E09DF8000000F032
:10387000010008B10120E6E708E09DF8000000F033
:10388000100008B10120DEE700E000BF00BF00200B
:10389000D9E70000014640F24C4048434FF47A72A9
:1038A00090FBF2F07047014640F2A46048434FF4A9
:1038B0007A7290FBF2F0704701464FF4FA70484379
:1038C0004FF47A7290FBF2F07047014640F271209B
:1038D00048434FF47A7290FBF2F07047014640F291
:1038E000771048434FF47A7290FBF2F070477CB542
:1038F00005460C466A460821562000F050FE9DF809
:1039000000109DF8010061F31F1020819DF8021046
:103910009DF8030061F31F1060819DF804109DF86D
:10392000050061F31F10A0819DF806109DF80700A7
:1039300061F31F10E0816A460621782000F02FFE17
:103940009DF800109DF8010061F31F1020809DF884
:1039500002109DF8030061F35F10A0809DF8041031
:103960009DF8050061F35F10E0807CBD38B504462A
:103970006A460221002000F012FE9DF800009DF82A
:10398000011000EB012085B2C5F380304034607037
:10399000C5F340302070C5F3C0102071C5F340104E
:1039A0006071C5F30010E071C5F38010A071A079BB
:1039B000E17908432072C5F380006072C5F34000CE
:1039C000A072C5F3C020E072C5F380202073E80B1D
:1039D00060736946332000F0C9FD9DF80000C009FE
:1039E000A073403C38BD70B5044621462046FFF721
:1039F0007EFF25882846FFF74DFF2065A088FFF74A
:103A00005BFF0646E088FFF757FF301A002808DD05
:103A1000A088FFF751FF0646E088FFF74DFF301AF8
:103A200007E0E088FFF748FF0646A088FFF744FF5D
:103A3000301A606525892846FFF735FFE0656589FE
:103A40002846FFF742FF2066A5892846FFF72BFF8F
:103A50006066E5892846FFF741FFA06694F84800B4
:103A600018B9206D2067606D606770BD30B5044681
:103A70003CB102FB03F04FF47A7590FBF5F0081AA5
:103A800030BD02FB03F04FF47A7590FBF5F008446B
:103A9000F6E7014641F23900814201DB64207047BC
:103AA00040F63C40814201DA0020F8E740F6C94088
:103AB000814205DA00208D2290FBF2F0C0B2EEE7E1
:103AC00040F65650814205DA00208D2290FBF2F03C
:103AD000C0B2E4E740F6E350814205DA00208D22CF
:103AE00090FBF2F0C0B2DAE740F62960814207DAD3
:103AF000A1F6E3504000462290FBF2F0C0B2CEE7C0
:103B000040F64C60814209DAA1F6296000EB4000E2
:103B1000232290FBF2F0801CC0B2C0E7B1F5676FC2
:103B200008DAA1F64C604000242290FBF2F0401D20
:103B3000C0B2B4E740F69360814209DAA1F567604C
:103B400000EB8000232290FBF2F0C01DC0B2A6E77C
:103B500040F6B660814209DAA1F69360C0EBC0007E
:103B6000232290FBF2F00C30C0B298E740F6D96007
:103B700081420ADAA1F6B66000EB40008000232201
:103B800090FBF2F01330C0B289E740F6FC6081424E
:103B90000ADAA1F6D96000EB40008000232290FBF6
:103BA000F2F01F30C0B27AE7B1F5726F09DAA1F610
:103BB000FC6000EBC000242290FBF2F02B30C0B27E
:103BC0006DE740F66670814209DAA1F57260C0EBDC
:103BD0000010462290FBF2F03430C0B25FE740F6AE
:103BE000AC7081420ADAA1F6667000EB80004000FA
:103BF000462290FBF2F04330C0B250E740F6F3703B
:103C000081420BDAA1F6AC7000EB400202EBC0007F
:103C1000472290FBF2F04D30C0B240E741F239004C
:103C200081420ADAA1F6F37000EB400080004622E0
:103C300090FBF2F05830C0B231E700202FE738B5E2
:103C400004466A460221082000F0A9FC9DF8010004
:103C5000450094F849002B46D4E91412FFF706FFFB
:103C6000E066E06EFFF715FF38BDF8B504466A461A
:103C70000221082000F093FC9DF801004600204638
:103C8000FFF774FE2046FFF7AEFE94F8400020B91F
:103C90000020206760673046F8BD94F8480000288F
:103CA0004BD0E088FFF708FE20B9A088FFF704FE9C
:103CB000C82804DC0020206760673046ECE794F8F1
:103CC000490020B90020206760673046E4E7206F94
:103CD00020B90020206760673046DDE7216F206D46
:103CE000401A002803DD216F206D401A02E0216D8B
:103CF000206F401A4FF47A714143626F606D104437
:103D0000002803DD626F606D104403E0626F606D38
:103D10001044404291FBF0F50020206760675F2D62
:103D200003DB40F27440854201DD3046B4E70121F7
:103D3000082000F045FC2846AEE7002020676067B9
:103D40003046A9E7F8B5044694F8410000284AD067
:103D5000A088FFF7B1FDC82845DD206DB0F5616F83
:103D600041DD606FB0F5C87F3DDB6946082000F09B
:103D7000FDFB9DF80000C0F3C00020B19DF80000DD
:103D800000F00100B8B9FE480068022813DB2046A5
:103D9000FFF76BFF05462E4605EBD670C0F34701D3
:103DA000092000F0DBFB0821084600F009FC012097
:103DB000F44908601AE09DF80000C0F3C00020B18B
:103DC0009DF8000000F0010048B9ED4800680228A5
:103DD00005DAEB480068401CE949086006E000206D
:103DE000E749086002E00020E5490860F8BD38B501
:103DF00019246946842000F0B9FB9DF8000000F00A
:103E0000C00000909DF80000801130B1012806D05C
:103E1000022806D0032808D105E0192406E0322440
:103E200004E0642402E0C82400E000BF00BF204694
:103E300038BD2DE9F04188B0074606A9032000F0FF
:103E400095FB9DF8180000F00F00032801D1012612
:103E500000E0002606AA0821B02000F0A0FB002EFA
:103E60005AD09DF8180000069DF8191000EB01408B
:103E70009DF81A1000EB01209DF81B100844C11793
:103E8000CDE904019DF81C0000069DF81D1000EB13
:103E900001409DF81E1000EB01209DF81F10084402
:103EA000C117CDE90201DDE90231DDE90420D21AB2
:103EB00060EB010000239A1A73EB000107DADDE9D9
:103EC0000232DDE90401C01A61EB020107E0DDE91D
:103ED0000313029A0598D21A61EB000110464FF4C1
:103EE000006300228C4619461346A0FB01280CFBF8
:103EF000018100FB0310CDE90020FFF778FFC0EB44
:103F00004011C1EB00242246E317DDE9000101F076
:103F100092FDCDE900014CE09DF8180000069DF8E7
:103F2000191000EB01409DF81A1000EB01209DF8DC
:103F30001B100844C117CDE904019DF81C000006C0
:103F40009DF81D1000EB01409DF81E1000EB0120B4
:103F50009DF81F100844C117CDE90201DDE9023CBC
:103F6000DDE90410CA1A60EB0C0000239A1A73EB07
:103F7000000108DADDE90230DDE90421D21A61EB43
:103F80000001104605E002A80BC8059AC01A61EBB3
:103F90000201CDE90001FFF72AFF4FF461614843B8
:103FA00044002246E317DDE9000101F044FDCDE9BC
:103FB0000001DDE90313029A05989A1A884101DB92
:103FC000009D01E000994D42284608B0BDE8F0810F
:103FD00070B50446002C02DB04F07F0507E0002CDE
:103FE00001DD204600E06042C0B240F08005294675
:103FF000062000F0B3FA70BD08B56946062000F04F
:10400000B5FA9DF80000C00928B19DF8000000F045
:104010007F00404208BD9DF8000000F07F00F9E7F6
:1040200038B504466A460221072000F0B8FA204657
:10403000E11704EB91718C10802040EA2410C0B28B
:104040008DF800009DF8010000F00F008DF80200CF
:104050009DF8020004F00F0140EA01108DF8020003
:104060009DF802008DF801006A460221072000F049
:1040700085FA38BD38B56A460221072000F08FFA6C
:104080009DF8000000019DF8011000EB211404F4DC
:10409000006010B16005C00C38BD40F27A30FFF707
:1040A000BFFF40F27A30F7E708B56946B82000F064
:1040B0005DFA9DF8000040F0200000909DF800009F
:1040C00000F0BF0000909DF80010B82000F046FA04
:1040D0009DF8000040F0800000909DF8000000F086
:1040E000BF0000909DF80010B82000F037FA08BD1E
:1040F0002DE9FC5F04464FF000080026B146A76F8B
:104100002046FFF733FC2046FFF76DFC01A908208D
:1041100000F02CFA9DF80400C0F3800B9DF8040019
:10412000C0F3400A9DF8040000F001000090204612
:10413000FFF785FD01902046FFF704FE1148006857
:1041400060B1E56F0F480068401C0E4908600846E2
:104150000068032820DB002008601DE09DF80400B3
:1041600000F07F0594F8400008B17F2D00D1642550
:10417000E06F281A002807DDE06F281A06E000002B
:104180002400002020000020E06F401B052803DDF4
:104190000121082000F02AFAE5672046FFF749FED2
:1041A0008046FFF729FF0646FFF764FF8146BBF113
:1041B000000F7CD0642008FB00F090FBF9F0304445
:1041C000A0670B2D11DA009878B1BAF1000F0CD16D
:1041D0004FF0010A2846FFF7FBFEDA480560FFF7BB
:1041E00063FF0221082000F0EBF9A06F642802DDD4
:1041F0006420A06704E0A06F002801DA0020A06717
:10420000622D1BDDA06F632818DA94F8490001289D
:1042100014D1CD48006803280ADBA06F401CA067BA
:10422000761C3046FFF7D4FE0020C749086008E03E
:10423000C5480068401CC449086002E00020C2492B
:10424000086041F20401E06E884220DBA06F642820
:104250001DDA94F84900D0B994F84800B8B194F840
:104260004E00A0B1B948006803280ADBA06F401CCB
:10427000A067761C3046FFF7ABFE0020B34908600C
:1042800008E0B2480068401CB049086002E0002025
:10429000AE490860092D14DDA06F0A2811DA94F8E0
:1042A000490070B9A06FB8420ADA642000E0A0E0CB
:1042B00008FB00F090FBF9F03E1A3046FFF788FE4D
:1042C000A7670A2D1ADAA06F092817DD94F84900AC
:1042D000A0B99F48006803280ADBA06F401EA067B2
:1042E000761E3046FFF774FE00209949086008E00A
:1042F00097480068401C9649086002E000209449F5
:104300000860012D12DDA06F02280FDA94F8490031
:1043100060B9A06FB84208DA642008FB00F090FB97
:10432000F9F03E1A3046FFF753FEA767022D1ADA5E
:10433000A06F012817DD94F84900A0B985480068EE
:1043400003280ADBA06F401EA067761E3046FFF7E9
:104350003FFE00207F49086008E07E480068401C5E
:104360007C49086002E000207A49086094F849001E
:1043700001280ED1A06F64280BDB6320A0676420A6
:1043800008FB00F090FBF9F0C0F163063046FFF740
:104390001FFEBAF1000F4ED094F8490040BBA06F49
:1043A000642848D194F8480010B3B8F1000F01DD3B
:1043B000404601E0C8F1000062490968C1F16401AA
:1043C00090FBF1F0642100FB01F94846FFF728FE5D
:1043D0004FF0000A0221082000F008F9642008FBD1
:1043E00000F090FBF9F0C0F164063046FFF7F0FDF5
:1043F00021E0A56741F20401206D88420ADB94F8B0
:10440000410038B994F8480020B194F84E0008B142
:104410006420A06794F8410020B1A06F642801DBFC
:104420006320A067A06FFFF7D3FDFFF73DFE0421D7
:10443000082000F0C5F848480068042804DB002084
:10444000206760674449086094F84800012805D156
:1044500041480068401C4049086002E000203E4995
:104460000860A06FC01B00D0A76FBDE8FC9F2DE9BE
:10447000FC4104462046FFF7E2FB8046C4F87C80FE
:104480006946062000F072F8FFF7B6FD0746FFF711
:10449000F1FD064601A9082000F068F89DF8040027
:1044A000C0F3800068B32046FFF7C3FC05466420D4
:1044B000684390FBF6F03844A067A06F642816DDCF
:1044C0006420A067B54208DA684390FBF6F0C0F1BB
:1044D00064073846FFF77CFD32E064206843C7F18B
:1044E000640190FBF1F63046FFF79AFD28E0A06FDB
:1044F000002825DA0020A067FFF76AFDFFF7D4FD4A
:104500001EE09DF8000000F07F00E16F401A0028D7
:1045100006DD9DF8000000F07F00E16F401A05E025
:104520009DF8001001F07F01E06F401A0A2802DBBD
:10453000E06FA06704E09DF8000000F07F00A06736
:10454000BDE8FC81280000202C0000203000002065
:1045500034000020380000203C00002070B50446E4
:104560000D46A0B22946FEF7B2FF70BD70B50446F5
:104570000D46A0B2FEF780FF287070BD2DE9F04116
:1045800005460E461746002405E0395D2819FFF759
:10459000E5FF601CC4B2B442F7DBBDE8F0812DE951
:1045A000F04105460E461746002405E03919281942
:1045B000FFF7DCFF601CC4B2B442F7DBBDE8F0815A
:1045C00038B505460C4669462846FFF7CFFF9DF8EB
:1045D00000002040A04208D09DF800002043009039
:1045E0009DF800102846FFF7B9FF38BD38B50546DD
:1045F0000C4669462846FFF7B9FF9DF800002040A9
:1046000040B19DF80000A04300909DF8001028469E
:10461000FFF7A4FF38BDF8B506460C4615466946B7
:104620003046FFF7A3FF9DF800002840A04209D0C4
:104630009DF80000A843204300909DF800103046EC
:10464000FFF78CFFF8BD000070B50446192C13DB92
:10465000C82C11DC322C01DA002508E0642C01DAC8
:10466000402504E0C82C01DA802500E0C025C022E6
:1046700029468420FFF7CFFF70BD70B50446FC25A6
:104680002A4629468220FFF7C6FF2069FFF7DCFF94
:1046900070BD70B50546002441F20400854223DB5D
:1046A00041F2081085421FDC41F23600854202DAF1
:1046B00024F0600413E041F26800854204DA24F03B
:1046C000600444F020040AE041F20810854204DA54
:1046D00024F0600444F0400401E044F060046022EF
:1046E00021463320FFF797FF70BD70B5044624B90B
:1046F00080213320FFF77AFF03E080213320FFF78A
:104700005FFF642C54DBB4F5A56F51DCBE2C01DADD
:10471000002548E0B4F58C7F01DA012543E0B4F5CB
:10472000B47F01DA02253EE0B4F5E17F01DA03252A
:1047300039E040F22620844201DA042533E040F2D9
:104740007620844201DA05252DE0B4F52F7F01DAC9
:10475000062528E0B4F5437F01DA072523E0B4F508
:104760005C7F01DA08251EE0B4F5707F01DA0925C7
:1047700019E0B4F57A7F01DA0A2514E0B4F5876F01
:1047800001DA0B250FE0B4F5916F01DA0C250AE090
:10479000B4F59B6F01DA0D2505E0B4F5A56F01DADC
:1047A0000E2500E00F250F2229463320FFF733FFA7
:1047B00070BD10B504460A2C02D00F2C0AD104E0BB
:1047C00010213320FFF712FF05E010213320FFF7FF
:1047D000F7FE00E000BF00BF10BD70B50446002525
:1047E0001E2C12DB3C2C10DC282C00DA08E0322CCA
:1047F00001DA402504E03C2C01DA802500E0C025E8
:10480000C02229463420FFF706FF70BD70B504466C
:104810000025B4F5D27F16DBB4F5167F13DCB4F5B2
:10482000F07F00DA0AE0B4F5077F01DA012505E040
:10483000B4F5167F01DA022500E00325032229469C
:104840003420FFF7E8FE70BD10B50446A06AFFF7FC
:1048500020FFA069FFF749FFE06AFFF7AAFF206B7E
:10486000FFF7BBFF606BFFF7D1FF10BD70B50446CB
:10487000802C17DBB4F5FA6F14DCB4F5FA7F01DA9B
:1048800000250AE0B4F57A7F01DA402505E0B4F5A9
:10489000FA6F01DA802500E0C025C02229463620C3
:1048A000FFF7B9FE70BD70B50446B4F57A7F1ADB28
:1048B00040F6C410844216DC40F2DC50844201DA37
:1048C00000250BE0B4F5FA6F01DA102506E040F69A
:1048D000C410844201DA202500E030253022294628
:1048E0003620FFF798FE70BD10B5044614B1012CB8
:1048F0000AD104E008213620FFF778FE05E0082100
:104900003620FFF75DFE00E000BF00BF10BD10B510
:104910000446082C02D0402C0AD104E004213620A1
:10492000FFF764FE05E004213620FFF749FE00E0B2
:1049300000BF00BF10BD70B50446B4F57A6F14DB3C
:1049400042F21070844210DCB4F5FA5F01DA0125FE
:1049500006E042F21070844201DA022500E00325ED
:10496000032229463620FFF756FE70BD10B54FF4DE
:104970007A70FFF77BFF40F2DC50FFF794FF0120D5
:10498000FFF7B2FF4020FFF7C2FF41F27070FFF760
:10499000D2FF10BD70B50446802C19DB40F6B8304C
:1049A000844215DCB4F57A7F01DA00250BE0B4F51A
:1049B000FA6F01DA012506E040F6B830844201DAE8
:1049C000022500E00325032229463220FFF723FEBB
:1049D00070BD10B5044614B1012C0AD104E00421C5
:1049E0008F20FFF703FE05E004218F20FFF7E8FD8D
:1049F00000E000BF00BF10BD10B5FFF7B7FF4FF4D8
:104A0000FA60FFF7C7FF0120FFF7E3FF10BD1FB5F6
:104A100000208DF800008DF801008DF802008DF85F
:104A2000030002208DF8040005208DF80500072002
:104A30008DF806000C208DF8070013208DF8080073
:104A40001F208DF809002B208DF80A0034208DF8E6
:104A5000010043208DF80C004D208DF80D005820EA
:104A60008DF80E0064208DF80F006A461021C020DA
:104A7000FFF784FD1FBD70B504460D46B4F52F1F2A
:104A80000ADB6248844207DCA4F52F104FF4AF51D3
:104A900090FBF1F0C6B200E0682631463A20FFF7FD
:104AA0005DFDB5F52F1F0ADB5848854207DCA5F5EB
:104AB0002F104FF4AF5190FBF1F0C6B200E05F262B
:104AC00031463B20FFF74AFD70BD38B56A460221EA
:104AD0000820FFF764FD9DF8010044009DF80000E8
:104AE00000F0080028B140F27440844201DC5F2CE1
:104AF0000BDABE208DF8010008210846FFF760FDA3
:104B00009DF801100920FFF729FD38BD70B5044656
:104B1000BCB140213020FFF753FDB4F57A6F14DBB0
:104B200041F25C20844210DCA4F57A60642190FBA1
:104B3000F1F0C006050E382229463020FFF76BFD44
:104B400003E040213020FFF751FD70BD10B5044651
:104B500094B102213020FFF733FDB4F5FA7F04D180
:104B600001213020FFF742FD0AE0642C08D1012129
:104B70003020FFF725FD03E002213020FFF736FD4E
:104B800010BD10B504462046FFF777FD2046FFF71D
:104B90005BFEFFF731FFFFF73AFF1D491D48FFF7A6
:104BA0006AFFFFF792FF88218F20FFF709FD4FF47E
:104BB0007A60FFF7ABFF0020FFF7C8FF10BD10B50C
:104BC00004464FF41670A0614FF47A70E0612062E1
:104BD000606241F26800A0620A20E0621920206150
:104BE000322020634FF4F07060632046FFF7C9FF66
:104BF0002046FEF7BBFE2046FEF7F5FE94F8400087
:104C0000012802D12046FFF732FC10BD40164000BB
:104C100090A43400E067350010B504466FF004003E
:104C200000F065F9E11704EB5171C1F3C701234AA4
:104C300011701046007800EB4001C1EBC0104FF638
:104C4000FF7101EAC0001E49088010BD01461C4AE0
:104C500012884A434FF0E0235A6100229A610122F0
:104C60001A6100BF4FF0E022106900F001021AB192
:104C700000F48032002AF5D000224FF0E0231A61C0
:104C80009A61704701460D4A12784A434FF0E0237B
:104C90005A6100229A6101221A6100BF4FF0E0229E
:104CA000106900F001021AB100F48032002AF5D038
:104CB00000224FF0E0231A619A6170474000002003
:104CC0004200002010B54FF4A06000F0C1F810BD04
:104CD000014600BF704700BF494A128802F04002F7
:104CE000002AF9D0C2B2464B1B1D1A80704710B57E
:104CF00086B00446012144F2050000F033FC4FF475
:104D00000070ADF8140003208DF8160018208DF8FF
:104D1000170005A93B4800F069F94FF48060ADF831
:104D2000140004208DF8170005A9364800F05EF93C
:104D300025208DF8000003208DF801008DF8020079
:104D400001208DF80300684600F087F801940020E8
:104D5000ADF80800ADF80A00ADF80C00ADF8100091
:104D60000C20ADF80E0001A9254800F0A2FC01229C
:104D700040F22551224800F034FD0121204800F086
:104D800024FD06B010BD10B540F225511C4800F0BE
:104D90000DFE10B31A4800F089FDC4B21A4800781D
:104DA00000F08000C8B91848007800F0400060B1F9
:104DB0000A2C03D000201449087020E01248007823
:104DC00040F080001049087019E00D2C06D10E4803
:104DD000007840F040000C49087010E00A48007864
:104DE00000F03F0009490C5407480078401C064970
:104DF0000870084600783F2801DD0020087010BDCB
:104E0000003801400008014048000020EC0000206C
:104E10000948804709480047FEE7FEE7FEE7FEE74E
:104E2000FEE7FEE7FEE7FEE7FEE7FEE7044805498A
:104E3000054A064B70470000830B0008ED00000890
:104E40009001002090070020900300209003002094
:104E500031490143314A1160704770B50021002388
:104E60000F22C47804B32D4C246804F4E064C4F524
:104E7000E064210AC1F10403CA40447804FA03F152
:104E80008478144021430901254C0678A155047803
:104E900004F01F050124AC4005786D11AD0005F14B
:104EA000E025C5F8004109E0047804F01F0501245D
:104EB000AC401C4D0678761145F8264070BD1A4A64
:104EC0000A400243154B1B1F1A60704739B1134A41
:104ED000121D12680243114B1B1D1A6006E00F4A97
:104EE000121D126882430D4B1B1D1A607047042867
:104EF00008D14FF0E021096941F004014FF0E022B0
:104F0000116107E04FF0E021096921F004014FF041
:104F1000E0221161704700000000FA050CED00E08E
:104F200000E400E080E100E080FFFF1F10B50446D0
:104F3000CC48844208D10121042000F02DFB00213F
:104F4000042000F029FB46E0C748844208D1012133
:104F5000082000F021FB0021082000F01DFB3AE0B2
:104F6000C248844208D10121102000F015FB002125
:104F7000102000F011FB2EE0BD48844208D1012131
:104F8000202000F009FB0021202000F005FB22E09A
:104F9000B848844208D10121402000F0FDFA0021E8
:104FA000402000F0F9FA16E0B348844208D101210C
:104FB000802000F0F1FA0021802000F0EDFA0AE0F4
:104FC000AE48844207D10121801500F0E5FA0021A6
:104FD000A01500F0E1FA10BD10B50121084600F05F
:104FE000DBFA0021012000F0D7FA10BD2DE9F041D5
:104FF000024600250026002000230024002791F807
:1050000003C00CF00F0591F803C00CF0100CBCF1BC
:10501000000F03D091F802C04CEA050591F800C0DA
:10502000BCF1000F31D0146800202BE04FF0010CD0
:105030000CFA00F3B1F800C00CEA03069E4220D13E
:1050400083004FF00F0C0CFA03F7BC4305FA03FC86
:105050004CEA040491F803C0BCF1280F06D14FF0CC
:10506000010C0CFA00FCC2F814C00AE091F803C06D
:10507000BCF1480F05D14FF0010C0CFA00FCC2F84E
:1050800010C0401C0828D1D31460B1F800C0BCF196
:10509000FF0F34DD546800202EE000F1080C4FF0C3
:1050A000010808FA0CF3B1F800C00CEA03069E42AE
:1050B00021D183004FF00F0C0CFA03F7BC4305FA23
:1050C00003FC4CEA040491F803C0BCF1280F05D19D
:1050D00000F1080C08FA0CF8C2F8148091F803C02B
:1050E000BCF1480F07D100F1080C4FF0010808FA95
:1050F0000CF8C2F81080401C0828CED35460BDE8DC
:10510000F0814FF6FF710180022181700421C1708E
:1051100070470246002093680B400BB1012000E06D
:10512000002070470146886880B270470246002020
:10513000D3680B400BB1012000E00020704701460E
:10514000C86880B2704701617047416170470AB119
:10515000016100E041617047C16070474FF48032E7
:105160000A43826181618261826982697047024675
:105170000020434B18684FF68073184040EA021035
:1051800008433F4B186070473E49C8617047F0B50F
:105190000A46002300240021002500F00046B6F155
:1051A000004F02D1364EF16901E0354E7168C0F30F
:1051B000034583B200F44016B6F5401F08D121F034
:1051C00070612F4E766826F070662D4F7E6012E07B
:1051D00000F48016B6F5801F06D1032606FA05F402
:1051E000A14341F0706106E0460D360103FA06F670
:1051F000B14341F0706122B1460D360103FA06F663
:10520000314300F00046B6F1004F02D11C4EF1616F
:1052100001E01B4E7160F0BD30B500228B071C0F02
:105220000F2303FA04F2164B08338C1053F8243082
:105230009343134C08348D1044F8253023468C10CA
:1052400053F824308C07240F00FA04F423430C4C49
:1052500008348D1044F8253030BD0A49DC3108602F
:105260007047000000080140000C014000100140A0
:105270000014014000180140001C014000200140C2
:105280000000014000002042DF48006840F00100BB
:10529000DD49086008464068DC490840DA49486052
:1052A00008460068DA490840D7490860084600689F
:1052B00020F4802008600846406820F4FE00486022
:1052C0004FF41F0088607047CF49096821F480318E
:1052D000CD4A11601146096821F480211160B0F5B2
:1052E000803F03D0B0F5802F0ED106E0C649096893
:1052F00041F48031C44A116007E0C349096841F4B0
:10530000A021C14A116000E000BF00BF704710B586
:1053100001460022002300204A11012A02D1BA4C82
:10532000236806E0022A02D1B74C236A01E0B64C9A
:10533000636A01F01F02012494401C400CB101205B
:1053400000E0002010BD38B50020009000240025AA
:1053500000BF3120FFF7DBFF05460098401C00909E
:105360000098B0F5A06F01D0002DF2D03120FFF7EA
:10537000CEFF08B1012400E00024204638BD0146DC
:105380000020A14A106820F0F80040EAC100106037
:105390007047A04908607047024600209A4B586841
:1053A00020F47C1042EA01031843974B5860704781
:1053B00098490866704701460020934A506820F0DB
:1053C00003000843506070478F48406800F00C00AD
:1053D0007047014600208C4A506820F0F0000843D6
:1053E0005060704701460020874A506820F4E06012
:1053F00008435060704701460020834A506820F4FB
:10540000605040EAC1005060704729B17E4A527A2C
:1054100002437D4B5A7204E07B4A527A82437A4BB4
:105420005A7270477B49D8310860704701460020A6
:10543000754A506820F4404008435060704700218E
:10544000714A20321170704A82F82010012802D06F
:1054500004280AD104E001216B4A2032117005E0D2
:105460000521694A2032117000E000BF00BF70477B
:105470006949086070476449096A0143624A1162D8
:105480007047654944390860704730B500210022F3
:10549000002400235C4D6D6805F00C0121B1042946
:1054A00005D0082923D105E05C4D056022E05B4D65
:1054B00005601FE0544D6D6805F47012524D6D6823
:1054C00005F48034022505EB92421CB9544D554336
:1054D00005600BE04C4D6D6805F400351DB1504D75
:1054E0005543056002E04D4D5543056002E04B4DCC
:1054F000056000BF00BF444D6D6805F0F00109096B
:10550000484D6B5C0568DD4045603F4D6D6805F4B6
:10551000E061090A434D6B5C4568DD4085603A4DAA
:105520006D6805F46051C90A3E4D6B5C4568DD400D
:10553000C560354D6D6805F44041890B3A4D6B5C93
:10554000C568B5FBF3F5056130BD29B12E4A526936
:1055500002432D4B5A6104E02B4A526982432A4B85
:105560005A61704729B1284A92690243264B9A61D1
:1055700004E0254A92698243234B9A61704729B11E
:10558000214AD2690243204BDA6104E01E4AD26903
:1055900082431D4BDA61704729B11B4AD26802432E
:1055A000194BDA6004E0184AD2688243164BDA607D
:1055B000704729B1144A12690243134B1A6104E07F
:1055C000114A12698243104B1A61704712494039DF
:1055D000086070470F49C86470470B49C87170472D
:1055E0000948406A40F080700749486270470146A8
:1055F0000020054A92680A400AB1012000E000201C
:105600007047014988727047001002400000FFF89F
:10561000FFFFF6FE000042428004424200127A0080
:1056200000093D00490000205900002010B5044643
:10563000FB48844209D101218803FFF7ADFF002117
:105640004FF48040FFF7A8FF32E0F648844209D1CA
:1056500001214804FFF7ADFF00214FF40030FFF7B0
:10566000A8FF25E0F048844209D101218804FFF712
:10567000A0FF00214FF48020FFF79BFF18E0EB48CC
:10568000844209D10121C804FFF793FF00214FF4A0
:105690000020FFF78EFF0BE0E548844208D101218E
:1056A0000805FFF786FF00214FF48010FFF781FF08
:1056B00010BD2DE9F04786B005460E460024A246EF
:1056C00000BFA1460027B08900B100BF2F462C8A39
:1056D0004CF6FF700440F08804432C82AC894EF6EF
:1056E000F3100440B08831890843718908430443AA
:1056F000AC81AC8A4FF6FF400440B0890443AC82D1
:1057000001A8FFF7C2FEC648874202D1DDF810A00B
:1057100001E0DDF80CA0A88900F4004040B10AEBDC
:10572000CA0000EB0A1031684900B0FBF1F807E04D
:105730000AEBCA0000EB0A1031688900B0FBF1F8EF
:105740006420B8FBF0F004012009642101FB1089FA
:10575000A88900F4004040B1322000EBC900B0FB42
:10576000F1F000F00700044308E0322000EB0910DC
:105770006421B0FBF1F000F00F0004432C8106B06F
:10578000BDE8F0874FF41651016000218180C1808F
:1057900001810C21418100218181704710B50246B1
:1057A0000020108A4FF2FF0318400B884C882343D7
:1057B0008C882343CC8823431843108210BD0021DA
:1057C000018041808180C180704721B1828942F48B
:1057D0000052828104E082894DF6FF731A40828173
:1057E0007047F0B50346002400260025002040F64F
:1057F0006A17B94200D100BF1846C1F3421401F044
:105800001F06012707FA06F5012C01D10C3004E030
:10581000022C01D1103000E014301AB107682F4378
:10582000076002E00768AF430760F0BD1AB1838AE2
:105830000B43838202E0838A8B4383827047028A10
:105840004FF6F0731A400282028A0A4302827047BE
:1058500082894FF2FF731A40828182890A438281D2
:10586000704721B1828942F00202828104E082897C
:105870004FF6FD731A4082817047028A4FF6DF733C
:105880001A400282028A0A430282704721B1028AC8
:1058900042F48042028204E0028A4BF6FF731A400F
:1058A00002827047C1F308028280704701468888EF
:1058B000C0F308007047818941F001018181704780
:1058C000028BD2B20283028B42EA0122028370472A
:1058D000028B02F47F420283028B0A4302837047E9
:1058E00021B1828A42F02002828204E0828A4FF64D
:1058F000DF731A408282704721B1828A42F010021F
:10590000828204E0828A4FF6EF731A4082827047E7
:1059100021B1828A42F00802828204E0828A4FF634
:10592000F7731A408282704721B1828942F40042A3
:10593000828103E08289C2F30E028281704721B125
:10594000828A42F40062828204E0828A4FF2FF730C
:105950001A4082827047828A4FF6FB731A40828215
:10596000828A0A438282704721B1828A42F002020F
:10597000828204E0828A4FF6FD731A408282704769
:1059800002460020B1F5007F00D100BF13880B4014
:105990000BB1012000E00020704701F40072B2F565
:1059A000007F00D100BFCA430280704770B5024635
:1059B000002400230025002040F66A16B14200D1E1
:1059C00000BFC1F3421501F01F03012606FA03F3DD
:1059D000012D02D19689334006E0022D02D1168AAC
:1059E000334001E0968A33400C12012606FA04F493
:1059F0001688344013B10CB1012000E0002070BDC6
:105A000010B50022002340F66A14A14200D100BF65
:105A10000A1201249440A3B2DC43048010BD0000AC
:105A2000003801400044004000480040004C004065
:105A300000500040704710B54C1084EA530404D560
:105A40004042C1F1000138BF491E1B4204D55242F9
:105A5000C3F1000338BF5B1E00F0BEF814F0804FA6
:105A600004D04042C1F1000138BF491E14F0004F7C
:105A700004D05242C3F1000338BF5B1E10BD0000CA
:105A80000FB4044910B503AA029800F075F910BCD0
:105A90005DF814FB440000202DE9F0410E46044659
:105AA000002020622046E168884730B3252805D0D1
:105AB000D4E901219047206A401CF2E7E1682046C2
:105AC00000278847050018D0A5F14100192802D801
:105AD00020354FF400673246294620462760FAF702
