:020000040800F2
:10000000E0060020993B000851070008530700084C
:10001000570700085B0700085F07000800000000A2
:10002000000000000000000000000000630700085E
:10003000650700080000000067070008690700085E
:10004000B33B0008B33B0008B33B0008B33B0008D8
:10005000B33B0008B33B0008B33B0008B33B0008C8
:10006000B33B0008B33B0008B33B0008B33B0008B8
:10007000B33B0008B33B0008B33B0008B33B0008A8
:10008000B33B0008B33B0008B33B0008B33B000898
:10009000B33B0008B33B0008B33B0008B33B000888
:1000A000B33B0008B33B0008B33B0008B33B000878
:1000B000B33B0008B33B0008B33B0008B33B000868
:1000C000B33B0008B33B0008B33B0008B33B000858
:1000D000B33B00080B3B0008B33B0008B33B0008F0
:1000E000B33B0008B33B0008B33B000800F002F844
:1000F00000F041F80AA090E8000C82448344AAF181
:100100000107DA4501D100F036F8AFF2090EBAE87E
:100110000F0013F0010F18BFFB1A43F0010318473B
:10012000A8540000C8540000103A24BF78C878C111
:10013000FAD8520724BF30C830C144BF04680C60ED
:10014000704700000023002400250026103A28BF35
:1001500078C1FBD8520728BF30C148BF0B60704739
:10016000782904F07D83002070471FB504F0DEFC81
:100170001FBD10B510BD04F02DFC1146FFF7F5FFB3
:1001800000F008F804F04BFC03B4FFF7F2FF03BCE7
:1001900003F062FC1CB5002001900025002600F051
:1001A00049FB482003F004FC03F050FC4FF41650C8
:1001B00003F05FFC00F0BEFB00F0EEFB00F082FFFE
:1001C00003F052F94FF4FC60FD490880FDA246217E
:1001D0005A2002F0E4FF4FF47840F9490880FBA26E
:1001E0005A21552002F0DBFFFBA26E215A2002F0BB
:1001F000D6FF1F20F2490880FAA296213C2002F087
:10020000CEFFFBA2AA213C2002F0C9FFFBA2BE2127
:100210003C2002F0C4FFFDA2D2213C2002F0BFFF2F
:100220001F20E7490880002003F03BFA012003F07B
:1002300038FA022003F035FA032003F032FA0420E2
:1002400003F02FFA81E200F0C2FB0446012C6FD1CB
:100250004FF6FF73009340F27E23EF220021084601
:1002600002F07EFD4FF4FC60D5490880EBA200212E
:10027000552002F094FFECA21E21052002F08FFF12
:10028000ECA23221052002F08AFFEDA246210520D2
:1002900002F085FFEDA25A21052002F080FFEEA2B8
:1002A0006E21052002F07BFFEFA28221052002F0E3
:1002B00076FFF0A29621052002F071FFF0A2AA219C
:1002C000052002F06CFFF0A2BE21052002F067FFBE
:1002D000EFA2D221052002F062FFF0A2E621052064
:1002E00002F05DFFF1A2FA21052002F058FFF3A20F
:1002F0004FF48771052002F052FFF3A24FF4917181
:10030000052002F04CFF681CC5B22946042003F00A
:100310004FF9002003F0ECF9012003F0E9F9022085
:1003200003F0E6F9032003F0E3F9042003F0E0F919
:10033000022C6CD14FF6FF73009340F27E23EF2224
:100340000021084602F00CFD4FF4FC609C49088037
:100350009CA246215A2002F022FF4FF4784098498F
:100360000880DCA25A21552002F019FF9AA26E21C2
:100370005A2002F014FF1F209149088099A296216B
:100380003C2002F00CFF9AA2AA213C2002F007FFB9
:100390009AA2BE213C2002F002FF9CA2D2213C2066
:1003A00002F0FDFE01A9042003F00AF914230093D2
:1003B00003239DF80420FA213C2002F074FE002063
:1003C00003F06FF9012003F06CF9022003F069F9E2
:1003D000032003F066F9042003F063F94FF4FA6197
:1003E000002003F0ACF94FF4FA61012003F0A7F903
:1003F0004FF4FA61022003F0A2F94FF47A7103205E
:1004000003F09DF94FF47A71042003F098F9032C5E
:1004100072D14FF6FF73009340F27E23EF2200214A
:10042000084602F09DFC4FF4FC6065490880ACA2D0
:100430000021552002F0B3FEACA23221052002F0CB
:10044000AEFE042003F07AFA88B1042003F001FA2A
:1004500007461423009304233A4632213C2002F03D
:1004600022FEA4A23221642002F099FE04E0A2A29E
:1004700032213C2002F093FEA1A24621052002F089
:100480008EFE032003F05AFA88B1032003F0E1F94D
:1004900007461423009304233A4646213C2002F0E9
:1004A00002FE94A24621642002F079FE04E092A2AA
:1004B00046213C2002F073FE93A25A21052002F04F
:1004C0006EFE93A26E21052002F069FE002003F06B
:1004D00035FA90B1002003F0BCF9074614230093CD
:1004E00004233A466E213C2002F0DDFD81A26E21FC
:1004F000642002F054FE05E054E07FA26E213C200F
:1005000002F04DFE84A28221052002F048FE012067
:1005100003F014FA88B1012003F09BF90746142375
:10052000009304233A4682213C2002F0BCFD71A2D4
:100530008221642002F033FE04E06FA282213C207D
:1005400002F02DFE76A29621052002F028FE022060
:1005500003F0F4F988B1022003F07BF90746142375
:10056000009304233A4696213C2002F09CFD61A2B0
:100570009621642002F013FE04E05FA296213C2045
:1005800002F00DFE68A2C8215A2002F008FE69A2FE
:10059000E6215A2002F003FE681CC5B22946042059
:1005A00003F006F8701C86B20A2003F015FA142E28
:1005B00005D16248006808B90120C2E0C0E0C4E08B
:1005C00016000020582D706F776572004158503228
:1005D00030395F54455354004350553A2073746D7D
:1005E00033320000636F6E74726F6C3A000000006B
:1005F0004B4559313A686F6D650000004B455930E5
:100600003A4675656C204775616765004B45593200
:100610003A44434443264C444F0000004675656C01
:10062000204775616765000042415453454E53456C
:100630003A000000434852204375723A000000001F
:10064000444953434852204375723A00434852206C
:10065000436F756C3A0000004449534348522043AD
:100660006F756C3A00000000436F756C20436F7526
:100670006E743A00436F756C205043543A0000008A
:100680005244433A000000004F43563A0000000035
:100690004F4356205043543A000000004675656CA5
:1006A00020526573756C743A000000004261744317
:1006B000617061636974793A00000000504354200E
:1006C000574C313A0000000050435420574C323A06
:1006D000000000004158503137335F5445535400F7
:1006E00044434443264C444F0000000044434443E9
:1006F000323A00006D560000436C6F7365000000D5
:1007000044434443333A00004C444F313A00000024
:100710004C444F323A0000004C444F333A00000042
:100720004C444F343A000000582D506F7765727377
:10073000000000004158503230390000A001214231
:100740000020024908604FF000067CE5A00121422C
:10075000704700BFFEE700BFFEE700BFFEE700BF37
:10076000FEE7704770477047704700000021002087
:10077000674A126842F48032654B1A6000BF644ACF
:10078000126802F40030491C10B9B1F5A06FF6D11F
:100790005F4A126812F4003F01D0012000E00020FF
:1007A000012842D15B4A126842F01002594B1A608C
:1007B0001A46126822F003021A601A46126842F0C2
:1007C00002021A60524A5268514B5A601A465268E5
:1007D0005A601A46526842F480625A601A46526859
:1007E00022F47C125A601A46526842F4E8125A60A7
:1007F0001A46126842F080721A6000BF444A1268BA
:1008000012F0007FFAD0424A526822F00302404BB5
:100810005A601A46526842F002025A6000BF3C4ACF
:10082000526802F00C02082AF9D1704710B5FFF7A0
:100830009DFF10BD10B53648006840F001003449F6
:100840000860084640683449084031494860084615
:100850000068324908402E4908600846006820F4C4
:10086000802008600846406820F4FE0048604FF48D
:100870001F008860FFF7DAFF4FF00060284908602A
:1008800010BD10B5002100200022214B5B6803F051
:100890000C0121B1042906D0082928D107E0214BF9
:1008A000214C236027E01F4B1F4C236023E0184B93
:1008B0005B6803F47010164B5B6803F4803202230C
:1008C00003EB904022B9194B4343174C23600DE0D2
:1008D0000F4B5B6813F4003F04D0144B4343124C9E
:1008E000236003E00F4B43430F4C236003E00D4BA9
:1008F0000D4C236000BF00BF054B5B68C3F30313BF
:100900000B4CE15C084B1B68CB40074C236010BDCF
:1009100000100240002002400000FFF8FFFFF6FE3A
:1009200008ED00E000127A000000002000093D0000
:100930000400002008B50121042003F0DCFC4FF482
:100940008070ADF8000010208DF8030003208DF8B2
:10095000020069460E4803F01BFA4FF480710C4800
:1009600003F0C1FA0121202003F0C5FC0420ADF8FA
:10097000000010208DF8030003208DF80200694666
:10098000044803F005FA0421024803F0ACFA08BD5C
:10099000000801400014014008B50121042003F0C3
:1009A000AAFC4FF42040ADF8000048208DF8030069
:1009B00069462B4803F0ECF90120ADF8000028202F
:1009C0008DF803006946264803F0E2F908BD10B52A
:1009D0000121244803F0ABFA2348007858B3234898
:1009E000006830B12248006818B122480068012828
:1009F00021D10A2002F0F0FF00201B4908701B489B
:100A0000006828B901211C4803F091FA012010BDAB
:100A10001748006828B90121174803F088FA022016
:100A2000F5E714480068012813D10121124803F0AA
:100A30007EFA0320EBE70D480068012809D10C4835
:100A40000068012805D10B48006810B9012006494B
:100A500008700121084803F06AFA0020D7E7000077
:100A6000000801400004300014000020340121423D
:100A70003C01214200012142000230004FF480710C
:100A8000FF4A516149005161FE4908604FF0800101
:100A9000516111614FF400711161704710B54FF051
:100AA0008830F9490860F949C1F8040C4FF000009A
:100AB000F44908604FF48070F14908614FF4007008
:100AC00048614FF040004861F1480088A0F50941B5
:100AD000893902D1022002F09AFF4020E8490861DA
:100AE000EC48006884B24FF4007008614FF0333076
:100AF000E649C1F8000CE84908604FF6FF70E34989
:100B0000C1F80C0C204610BD10B504460B4620461B
:100B1000FFF7B4FF4FF48070D94908614000486185
:100B2000D84803604FF08000486108614FF40070BE
:100B3000086110BD10B504462046FFF79FFFFFF780
:100B4000ADFF10BD00B5D2480088A0F51341413972
:100B500003D12C20FFF792FF02E02220FFF78EFF47
:100B600000BD4FF48071C64A116149005161C54909
:100B700008604FF08001516111614FF40071116103
:100B8000704730B5014601F01F04C1F34513CA0A8E
:100B9000E50205EB43151544A8B230BD2DE9F0413F
:100BA00005460E46F02D02DAB6F5A07F02DB0020E6
:100BB000BDE8F0813146284603F042FFB448008882
:100BC000A0F51341413903D12E20FFF757FF02E072
:100BD0002220FFF753FF4FF08830AB490860AB4944
:100BE000C1F8040C4FF6FF70A64908604FF48070FE
:100BF000A34908614FF4007048614FF0400048611C
:100C000008614861A2480088A0F50941893902D1EC
:100C1000022002F0FCFE4020994908619D480068CE
:100C200084B29B480088A0F5134141390AD1402085
:100C3000934948610861974800681FFA80F8E7B255
:100C40004FEA07274FF400708D4908614FF03330A9
:100C50008D4908608D49C1F8040C4FF6FF70C1F84A
:100C60000C0C8B480088A0F58A41353911D0884892
:100C70000088A0F58A4131390BD085480088A0F55D
:100C80000941893905D082480088A0F535410539E8
:100C900001D120468CE77E480088A0F513414139F8
:100CA00007D1E012C002B91240EA411040EAE82040
:100CB0007EE72046FFF765FF7AE700B574480088B5
:100CC000A0F51341413903D12920FFF7D7FE04E0F5
:100CD00040F273110720FFF717FF00BD00B56C4805
:100CE0000088A0F51341413903D12820FFF7C6FE43
:100CF00003E000210720FFF707FF00BD70B50546A0
:100D00000024002662480088A0F5134141397ED1B5
:100D1000082D1CD2DFE805F00406090C0F12151887
:100D200000BF14E044F0800411E044F040040EE001
:100D300044F0C0040BE044F0200408E044F06004F8
:100D400005E044F0A00402E044F0E00400BF00BF6E
:100D5000362644F0080421463046FFF7D5FE14F04D
:100D6000200F7ED02A20FFF789FE4FF4807044497F
:100D70000861400048610020424908604FF080004F
:100D80003F49486108614FF4007008614FF480707A
:100D900008614FF4007048614FF000003B49C1F812
:100DA0000C0C4FF080003649486108614FF4007028
:100DB00008614FF4807008614FF4007048614FF093
:100DC0000100304908604FF080002D4948610861FA
:100DD0004FF4007008614FF4807008614FF40070A8
:100DE00048614FF03F00274908604FF080002449D8
:100DF000486108614FF4007008614FF02B00FFF765
:100E00003DFE4FF480701E490861400000E0EAE0BA
:100E1000486100201B4908604FF080001849486174
:100E200008614FF4007008614FF4807008614FF45E
:100E3000007048614FF00000124908604FF08000D8
:100E40000F49486108614FF4007008614FF48070E9
:100E500008614FF4007048614FF0000009490860D4
:100E600000E029E04FF080000549486108614FF437
:100E7000007008614FF4807008614FF400700DE05D
:100E8000001001400C0C0140000C0140000001402A
:100E90001A000020080C0140040C014048614FF08A
:100EA000EF00FF4908604FF08000FE49486108618B
:100EB0004FF400700861C8E02A20FFF7DFFD4FF40F
:100EC0008070F8490861400048610020F4490860DA
:100ED0004FF08000F349486108614FF400700861E9
:100EE0004FF4807008614FF4007048614FF00000CB
:100EF000ED49C1F80C0C4FF08000EA4948610861E7
:100F00004FF4007008614FF4807008614FF4007076
:100F100048614FF00000E24908604FF08000E1496D
:100F2000486108614FF4007008614FF480700861F7
:100F30004FF4007048614FF0EF00D94908604FF05E
:100F40008000D849486108614FF4007008614FF093
:100F50002B00FFF793FD4FF48070D24908614000E9
:100F600048610020CE4908604FF08000CD494861BB
:100F700008614FF4007008614FF4807008614FF40D
:100F8000007048614FF00000C54908604FF08000D4
:100F9000C449486108614FF4007008614FF48070E3
:100FA00008614FF4007048614FF00100BC490860CF
:100FB0004FF08000BB49486108614FF40070086140
:100FC0004FF4807008614FF4007048614FF03F00AB
:100FD000B34908604FF08000B249486108614FF49E
:100FE0000070086131E0082D1CD2DFE805F004072D
:100FF0000A0D0F12151844F0300413E044F01004E9
:1010000010E044F020040DE000BF0BE044F0380491
:1010100008E044F0280405E044F0180402E044F03D
:10102000080400BF00BFA1480088A0F50941893924
:1010300004D1112646F240010C4302E0032644F499
:10104000805421463046FFF75FFD70BD70B5044601
:101050000D462946204603F0F3FCFFF773FD4FF4DD
:1010600080709049086140004861914800888C492F
:1010700008604FF080008B49486108614FF40070B0
:10108000086170BD70B5044600250021084603F0D4
:10109000D7FCFFF757FD00BF10E04FF48070814987
:1010A0000861400048617E4804604FF0800048615C
:1010B00008614FF40070086105F10105B5F5963F30
:1010C000EBD370BD08B50121192003F014F90121FB
:1010D000784802F02CFF4FF4F860ADF800001020C3
:1010E0008DF8030003208DF8020069466D4802F078
:1010F0004FFE4FF4F8616B4802F0F5FE4FF6FF70BB
:10110000ADF80000694666480C3802F041FE4FF623
:10111000FF7163480C3802F0E6FE322002F05CFCFE
:1011200001210020FFF7F0FC322002F055FC0020E6
:10113000FFF700FD5D4908800846008828B1084691
:101140000088A0F57F41FF3918D1D320FFF796FC26
:10115000FFF7A4FCFFF7A2FCFFF7A0FC00F0BF0024
:1011600052490880084600880006000C0880FFF7F6
:1011700095FC4E49098808434C4908804B48018832
:101180004DA003F02BFB49480088A0F513414139DD
:101190007ED1CF20FFF772FC4FF480704149086187
:1011A0004000486100203E4908604FF080003D4902
:1011B000486108614FF4007008614FF48070086165
:1011C0004FF4007048614FF0C1003749C1F80C0C72
:1011D0004FF080003349486108614FF400700861A6
:1011E0004FF4807008614FF4007048614FF0300098
:1011F0002B4908604FF080002A49486108614FF48C
:10120000007008614FF0ED00FFF738FC4FF480707C
:1012100024490861400048616420214908604FF07A
:1012200080002049486108614FF4007008614FF464
:10123000807008614FF4007048614FF00300184956
:1012400008604FF080001749486108614FF4007052
:1012500008614FF4807008614FF4007048614FF0EE
:1012600012000F4908604FF080000E494861086184
:101270004FF4007008614FF4807008614FF4007003
:1012800048614FF08100064908604FF0800000E09F
:10129000FEE30449486108614FF40070086113E0FF
:1012A0000C0C014000100140000001401A00002019
:1012B0001600002000023000204C43442049443AEC
:1012C00025780D0A000000004FF0E800FFF7D6FB7C
:1012D0004FF48070FF490861400048618520FE4955
:1012E00008604FF08000FB49486108614FF40070CE
:1012F00008614FF4807008614FF4007048614FF04E
:101300001000F54908604FF08000F249486108611B
:101310004FF4007008614FF4807008614FF4007062
:1013200048614FF07A00EC4908604FF08000E949CD
:10133000486108614FF4007008614FF0CB00FFF77F
:101340009DFB4FF48070E3490861400048613920FB
:10135000E14908604FF08000DE49486108614FF4C0
:10136000007008614FF4807008614FF400704861AC
:101370004FF02C00D84908604FF08000D5494861F3
:1013800008614FF4007008614FF4807008614FF4F9
:10139000007048614FF00000CF4908604FF08000B6
:1013A000CC49486108614FF4007008614FF48070C7
:1013B00008614FF4007048614FF03400C64908607E
:1013C0004FF08000C349486108614FF40070086124
:1013D0004FF4807008614FF4007048614FF00200D4
:1013E000BD4908604FF08000BA49486108614FF478
:1013F000007008614FF0F700FFF740FB4FF480707A
:10140000B4490861400048612020B34908604FF0AA
:101410008000B049486108614FF4007008614FF0E6
:10142000EA00FFF72BFB4FF48070AA4908614000E7
:1014300048610020A84908604FF08000A549486134
:1014400008614FF4007008614FF4807008614FF438
:10145000007048614FF000009F4908604FF0800025
:101460009C49486108614FF4007008614FF0C0006A
:10147000FFF704FB4FF48070964908614000486113
:101480001B20954908604FF080009249486108612F
:101490004FF4007008614FF0C100FFF7EFFA4FF40E
:1014A00080708C4908614000486101208A490860C9
:1014B0004FF080008749486108614FF4007008616F
:1014C0004FF0C500FFF7DAFA4FF4807081490861E8
:1014D000400048613020804908604FF080007D491D
:1014E000486108614FF4007008614FF48070086132
:1014F0004FF4007048614FF030007849C1F80C0C8F
:101500004FF080007349486108614FF40070086132
:101510004FF0C700FFF7B2FA4FF480706D490861D1
:1015200040004861B7206C4908604FF0800069496D
:10153000486108614FF4007008614FF03600FFF712
:101540009DFA4FF48070634908614000486148206B
:10155000614908604FF080005E49486108614FF4BE
:10156000007008614FF03A00FFF788FA4FF480707E
:1015700058490861400048615520574908604FF0BC
:1015800080005449486108614FF4007008614FF0D1
:10159000B100FFF773FA4FF480704E4908614000C4
:1015A000486100204C4908604FF08000494948617B
:1015B00008614FF4007008614FF4807008614FF4C7
:1015C000007048614FF01A00434908604FF08000F6
:1015D0004049486108614FF4007008614FF0B6005F
:1015E000FFF74CFA4FF480703A49086140004861B7
:1015F0000A20394908604FF0800036494861086187
:101600004FF4007008614FF4807008614FF400706F
:1016100048614FF0A200304908604FF080002D492A
:10162000486108614FF4007008614FF0F200FFF765
:1016300025FA4FF480702749086140004861002076
:10164000254908604FF080002249486108614FF445
:10165000007008614FF02600FFF710FA4FF4807019
:101660001C4908614000486101201B4908604FF097
:1016700080001849486108614FF4007008614FF01C
:10168000E000FFF7FBF94FF4807012490861400059
:1016900048610F20104908604FF080000D494861F3
:1016A00008614FF4007008614FF4807008614FF4D6
:1016B000007048614FF02A00074908604FF0800031
:1016C0000449486108614FF4007008614FF480706C
:1016D000086105E0001001400C0C014000000140D1
:1016E0004FF4007048614FF02800FF4908604FF048
:1016F0008000FE49486108614FF4007008614FF4B2
:10170000807008614FF4007048614FF00800F6499E
:1017100008604FF08000F549486108614FF400709F
:1017200008614FF4807008614FF4007048614FF019
:101730000E00ED4908604FF08000EC4948610861F7
:101740004FF4007008614FF4807008614FF400702E
:1017500048614FF00800E44908604FF08000E34919
:10176000486108614FF4007008614FF480700861AF
:101770004FF4007048614FF05400DB4908604FF0AF
:101780008000DA49486108614FF4007008614FF445
:10179000807008614FF4007048614FF0A900D24991
:1017A00008604FF08000D149486108614FF4007033
:1017B00008614FF4807008614FF4007048614FF089
:1017C0004300C94908604FF08000C849486108617A
:1017D0004FF4007008614FF4807008614FF400709E
:1017E00048614FF00A00C04908604FF08000BF49CF
:1017F000486108614FF4007008614FF4807008611F
:101800004FF4007048614FF00F00B74908604FF087
:101810008000B649486108614FF4007008614FF4D8
:10182000807008614FF4007048614FF00000B049CB
:10183000C1F80C0C4FF08000AC49486108614FF4CE
:10184000007008614FF4807008614FF400704861C7
:101850004FF00000A44908604FF08000A3494861A0
:1018600008614FF4007008614FF4807008614FF414
:10187000007048614FF000009B4908604FF0800005
:101880009A49486108614FF4007008614FF4807014
:1018900008614FF4007048614FF000009249086001
:1018A0004FF080009149486108614FF40070086171
:1018B0004FF0E100FFF7E2F84FF480708B490861C8
:1018C000400048610020884908604FF08000874947
:1018D000486108614FF4007008614FF4807008613E
:1018E0004FF4007048614FF015007F4908604FF0D9
:1018F00080007E49486108614FF4007008614FF430
:10190000807008614FF4007048614FF0170076490D
:1019100008604FF080007549486108614FF400701D
:1019200008614FF4807008614FF4007048614FF017
:1019300007006D4908604FF080006C4948610861FC
:101940004FF4007008614FF4807008614FF400702C
:1019500048614FF01100644908604FF0800063490E
:10196000486108614FF4007008614FF480700861AD
:101970004FF4007048614FF006005B4908604FF07B
:1019800080005A49486108614FF4007008614FF4C3
:10199000807008614FF4007048614FF02B0052498D
:1019A00008604FF080005149486108614FF40070B1
:1019B00008614FF4807008614FF4007048614FF087
:1019C0005600494908604FF0800048494861086165
:1019D0004FF4007008614FF4807008614FF400709C
:1019E00048614FF03C00404908604FF080003F499B
:1019F000486108614FF4007008614FF4807008611D
:101A00004FF4007048614FF00500374908604FF00F
:101A100080003649486108614FF4007008614FF456
:101A2000807008614FF4007048614FF010002E493B
:101A300008604FF080002D49486108614FF4007044
:101A400008614FF4807008614FF4007048614FF0F6
:101A50000F00254908604FF0800024494861086163
:101A60004FF4007008614FF4807008614FF400700B
:101A700048614FF03F001C4908604FF080001B494F
:101A8000486108614FF4007008614FF4807000E015
:101A9000CAE008614FF4007048614FF03F001249FE
:101AA00008604FF080001149486108614FF40070F0
:101AB00008614FF4807008614FF4007048614FF086
:101AC0000F00094908604FF080000849486108612B
:101AD0004FF4007008614FF02B00FEF7CFFF4FF47A
:101AE00080700249086105E00C0C014000100140C3
:101AF00000000140400048610020FD4908604FF0AF
:101B00008000FC49486108614FF4007008614FF49F
:101B1000807008614FF4007048614FF00000F44994
:101B200008604FF08000F349486108614FF400708D
:101B300008614FF4807008614FF4007048614FF005
:101B40000100ED49C1F80C0C4FF08000E9494861F3
:101B500008614FF4007008614FF4807008614FF421
:101B6000007048614FF03F00E14908604FF080008D
:101B7000E049486108614FF4007008614FF02A00A5
:101B8000FEF77CFF4FF48070DA490861400048613D
:101B90000020D74908604FF08000D64948610861AD
:101BA0004FF4007008614FF4807008614FF40070CA
:101BB00048614FF00000CE4908604FF08000CD49E9
:101BC000486108614FF4007008614FF4807008614B
:101BD0004FF4007048614FF00000C54908604FF0B5
:101BE0008000C449486108614FF4007008614FF4F7
:101BF000807008614FF4007048614FF0EF00BC49FD
:101C000008604FF08000BB49486108614FF40070E4
:101C100008614FF01100FEF731FF782001F0DCFE83
:101C20002920FEF72BFFAAE2B4480088A0F5134153
:101C300025397ED147F6F001E520FEF765FF4FF428
:101C400080710120FEF760FF4FF4E0610220FEF793
:101C50005BFF41F230010320FEF756FF0021042014
:101C6000FEF752FF40F202210820FEF74DFF00214F
:101C70000920FEF749FF00210A20FEF745FF002159
:101C80000C20FEF741FF00210D20FEF73DFF002153
:101C90000F20FEF739FF00211020FEF735FF072146
:101CA0001120FEF731FF00211220FEF72DFF002149
:101CB0001320FEF729FF00210720FEF725FF41F240
:101CC00090611020FEF720FF40F227211120FEF73F
:101CD0001BFF9D211220FEF717FF4FF4C851132060
:101CE000FEF712FF25212920FEF70EFF0D212B20E4
:101CF000FEF70AFF07213020FEF706FF40F203310E
:101D00003120FEF701FF03213220FEF7FDFE40F2F5
:101D100006213520FEF7F8FE08213620FEF7F4FEF6
:101D200040F206413720FEF7EFFE4FF441713820B4
:101D300000E057E0FEF7E8FE07213920FEF7E4FE59
:101D400040F202613C20FEF7DFFE08213D20FEF755
:101D5000DBFE00215020FEF7D7FEEF215120FEF7D9
:101D6000D3FE00215220FEF7CFFE40F23F11532058
:101D7000FEF7CAFE4FF427416020FEF7C5FE0121A1
:101D80006120FEF7C1FE00216A20FEF7BDFE0021A2
:101D90008020FEF7B9FE00218120FEF7B5FE00216C
:101DA0008220FEF7B1FE00218320FEF7ADFE002168
:101DB0008420FEF7A9FE00218520FEF7A5FE102154
:101DC0009020FEF7A1FE4FF4C0619220FEF79CFE2A
:101DD00040F233110720FEF797FE22210020FEF784
:101DE00093FECCE145480088A0F5134128397ED107
:101DF0001021E720FEF788FE01210020FEF784FE77
:101E00004FF480710120FEF77FFE4FF4E061022065
:101E1000FEF77AFE41F230010320FEF775FE002145
:101E20000420FEF771FE40F207210820FEF76CFE49
:101E300000210920FEF768FE00210A20FEF764FE5B
:101E400001210C20FEF760FE00210D20FEF75CFE54
:101E500000210F20FEF758FE00211020FEF754FE4F
:101E600007211120FEF750FE00211220FEF74CFE44
:101E700000211320FEF748FE322001F0ADFD41F2B3
:101E800090511020FEF740FE40F227211120FEF76E
:101E90003BFE322001F0A0FD9C211220FEF734FE13
:101EA000322001F099FD4FF4C8511320FEF72CFEAB
:101EB00023212920FEF728FE0E212B20FEF724FEE9
:101EC000322001F089FD00212020FEF71DFE40F2A6
:101ED0003F112120FEF718FE322001F07DFD072181
:101EE0003020FEF711FE40F20771312008E08EE04D
:101EF0000C0C014000100140000001401A000020BD
:101F0000FEF702FE06213220FEF7FEFD40F20471CC
:101F10003520FEF7F9FD41F604713620FEF7F4FD99
:101F200004213720FEF7F0FD00213820FEF7ECFDFC
:101F300040F206713920FEF7E7FD40F201713C20C6
:101F4000FEF7E2FD0F213D20FEF7DEFD322001F01D
:101F500043FD00215020FEF7D7FDEF215120FEF771
:101F6000D3FD00215220FEF7CFFD40F23F11532058
:101F7000FEF7CAFD4FF427416020FEF7C5FD0121A1
:101F80006120FEF7C1FD00216A20FEF7BDFD0021A2
:101F90008020FEF7B9FD00218120FEF7B5FD00216C
:101FA0008220FEF7B1FD00218320FEF7ADFD002168
:101FB0008420FEF7A9FD00218520FEF7A5FD102154
:101FC0009020FEF7A1FD00219220FEF79DFD032148
:101FD0009320FEF799FD4FF488719520FEF794FD4C
:101FE00000219720FEF790FD00219820FEF78CFD40
:101FF00040F233110720FEF787FD00212020FEF775
:1020000083FD40F23F112120FEF77EFDB7E0FF483F
:102010000088A0F51341203904D0FC480088B0F5B1
:10202000134F7ED100210846FEF76EFD4FF48071FC
:102030000120FEF769FD4FF4E0610220FEF764FD28
:1020400041F230010320FEF75FFD00210420FEF77E
:102050005BFD40F202210820FEF756FD0021092019
:10206000FEF752FD00210A20FEF74EFD01210C2053
:10207000FEF74AFD00210D20FEF746FD00210F204E
:10208000FEF742FD322001F0A7FC40F201110720CB
:10209000FEF73AFD322001F09FFC4FF486511020EC
:1020A000FEF732FD07211120FEF72EFD4FF4887157
:1020B0001220FEF729FD4FF430611320FEF724FDB6
:1020C00000212920FEF720FD44F210012B20FEF70D
:1020D0001BFD00215020FEF717FDEF215120FEF7D8
:1020E00013FD00215220FEF70FFD40F23F11532057
:1020F000FEF70AFD4FF41C516020FEF705FD01219B
:102100006120FEF701FD00216A20FEF7FDFC0021A1
:102110008020FEF7F9FC00218120FEF7F5FC00216C
:1021200000E02DE08220FEF7EFFC00218320FEF787
:10213000EBFC00218420FEF7E7FC00218520FEF760
:10214000E3FC10219020FEF7DFFC00219220FEF737
:10215000DBFC01219320FEF7D7FC4FF4887195201A
:10216000FEF7D2FC00219720FEF7CEFC002198203C
:10217000FEF7CAFC40F273110720FEF7C5FCCEE261
:10218000A2480088A0F5A84108397ED14FF480719B
:102190000120FEF7B9FC4FF4E0610220FEF7B4FC29
:1021A00041F230010320FEF7AFFC00210420FEF7CE
:1021B000ABFC40F207210820FEF7A6FC0021092015
:1021C000FEF7A2FC00210A20FEF79EFC00210C2055
:1021D000FEF79AFC00210D20FEF796FC00210F204F
:1021E000FEF792FC142001F0F7FB41F2B0611020E1
:1021F000FEF78AFC01211120FEF786FC0121172041
:10220000FEF782FC4FF49C711220FEF77DFC4FF428
:1022100000611320FEF778FC09212920FEF774FCE9
:1022200009212A20FEF770FC0021A420FEF76CFC97
:1022300000215020FEF768FCEF215120FEF764FCDE
:1022400000215220FEF760FC40F23F115320FEF7C0
:102250005BFC4FF41C516020FEF756FC012161200D
:10226000FEF752FC00216A20FEF74EFC0021802080
:10227000FEF74AFC00218120FEF746FC0021822067
:10228000FEF742FC0021832000E023E0FEF73CFC47
:1022900000218420FEF738FC00218520FEF734FC65
:1022A00013219020FEF730FC00219220FEF72CFC39
:1022B00003219320FEF728FC4FF488719520FEF748
:1022C00023FC40F273110720FEF71EFC322001F0C0
:1022D00083FB24E24D480088A0F5A85105397ED142
:1022E0000720FEF711FC322001F076FB4FF48E71CF
:1022F0001220FEF709FC0121A420FEF705FC0F21A6
:102300000820FEF701FC08210A20FEF7FDFB08214A
:102310000D20FEF7F9FB40F207713020FEF7F4FBC9
:1023200007213120FEF7F0FB40F203613220FEF777
:10233000EBFB4FF4E0613320FEF7E6FB40F20221B5
:102340003420FEF7E1FB02213520FEF7DDFB41F6EC
:102350000F713620FEF7D8FB40F207713720FEF7E9
:10236000D3FB00213820FEF7CFFB00213920FEF7F8
:10237000CBFB40F207713A20FEF7C6FB00213B2061
:10238000FEF7C2FB07213C20FEF7BEFB00213D20EB
:10239000FEF7BAFB322001F01FFB01210720FEF7F8
:1023A000B3FB01211720FEF7AFFB322001F014FB35
:1023B0004FF4BD511020FEF7A7FB40F2172111206A
:1023C000FEF7A2FB4FF48F711220FEF79DFB4FF436
:1023D00070611320FEF798FB00212A2000E096E0B0
:1023E000FEF792FB0A212920FEF78EFB4FF49F7126
:1023F0001220FEF789FB00215020FEF785FBEF211C
:102400005120FEF781FB0021522001E01A0000203C
:10241000FEF77AFB40F23F115320FEF775FB4FF4B5
:102420001C516020FEF770FB01216120FEF76CFB60
:1024300000216A20FEF768FB00218020FEF764FB84
:1024400000218120FEF760FB00218220FEF75CFB6B
:1024500000218320FEF758FB00218420FEF754FB67
:1024600000218520FEF750FB13219020FEF74CFB46
:102470004FF440719220FEF747FB05219320FEF7B1
:1024800043FB00219520FEF73FFB00219720FEF73C
:102490003BFB00219820FEF737FB4FF480710120B1
:1024A000FEF732FB4FF4E0610220FEF72DFB41F214
:1024B00030010320FEF728FB00210420FEF724FB57
:1024C00000210C20FEF720FB00210F20FEF71CFB53
:1024D00000212020FEF718FB00212120FEF714FB2D
:1024E00021210720FEF710FB142001F075FA61216D
:1024F0000720FEF709FB142001F06EFA40F2731179
:102500000720FEF701FB142001F066FA07E1FF48FF
:102510000088A0F5354105397DD10846FEF7F4FA6B
:1025200000210846FEF7F0FA00210846FEF7ECFA13
:1025300000210846FEF7E8FA0121A420FEF7E4FA9C
:10254000142001F049FA4FF41C516020FEF7DCFA28
:1025500040F202210820FEF7D7FA4FF4057130202F
:10256000FEF7D2FA43F215713120FEF7CDFA40F2B0
:1025700004613220FEF7C8FA40F616613320FEF7F8
:10258000C3FA42F211213420FEF7BEFA4FF4A851EB
:102590003520FEF7B9FA48F207513620FEF7B4FAB3
:1025A00041F207413720FEF7AFFA41F203413820EC
:1025B000FEF7AAFA20213920FEF7A6FA1A21902068
:1025C000FEF7A2FA00211020FEF79EFA0721112043
:1025D000FEF79AFA00211220FEF796FA0021132046
:1025E000FEF792FA142001F0F7F94FF4E66110209B
:1025F000FEF78AFA40F237111120FEF785FA14200F
:1026000001F0EAF94FF4DC711220FEF77DFA142094
:1026100001F0E2F900E083E04FF470611320FEF76F
:1026200073FA80212A20FEF76FFA48212920FEF74D
:102630006BFA142001F0D0F94FF480710120FEF7FD
:1026400063FA4FF4E0610220FEF75EFA41F23021B6
:102650000320FEF759FA40F202210820FEF754FA4F
:1026600000210A20FEF750FA00210C20FEF74CFA58
:1026700000210D20FEF748FA30210E20FEF744FA23
:1026800000215020FEF740FAEF215120FEF73CFADE
:1026900000215220FEF738FA40F23F115320FEF796
:1026A00033FA4FF41C516020FEF72EFA012161200D
:1026B000FEF72AFA00216A20FEF726FA112190205F
:1026C000FEF722FA4FF4C0619220FEF71DFA40F2A5
:1026D00002419320FEF718FA02219420FEF714FA23
:1026E000142001F079F901210720FEF70DFA1420DA
:1026F00001F072F961210720FEF706FA40F273112A
:102700000720FEF701FA00212020FEF7FDF9002145
:102710002120FEF7F9F922210020FEF7F5F914E354
:102720007A480088A0F5454105397DD10846FEF775
:10273000EBF900210846FEF7E7F9142001F04CF907
:1027400000210846FEF7E0F900210846FEF7DCF913
:1027500000210846FEF7D8F900210846FEF7D4F913
:102760000121A420FEF7D0F9142001F035F94FF42F
:102770001C516020FEF7C8F940F606010820FEF75C
:10278000C3F940F203713020FEF7BEF90121312078
:10279000FEF7BAF904213220FEF7B6F94FF4817141
:1027A0003320FEF7B1F94FF440713420FEF7ACF955
:1027B00040F203113520FEF7A7F91F213620FEF75E
:1027C000A3F940F203713720FEF79EF9012138206A
:1027D000FEF79AF904213920FEF796F91521902089
:1027E000FEF792F94FF482611020FEF78DF940F266
:1027F00047211120FEF788F94FF4DE711220FEF711
:1028000083F94FF460611320FEF77EF9782001F020
:10281000E3F84FF480710120FEF776F94FF4007170
:102820000220FEF771F900E050E041F23001032090
:10283000FEF76AF908210A20FEF766F900210C204C
:10284000FEF762F920210E20FEF75EF900210F202D
:10285000FEF75AF900212020FEF756F90021212029
:10286000FEF752F93D212A20FEF74EF9142001F01F
:10287000B3F82D212920FEF747F900215020FEF75B
:1028800043F94DF2EF015120FEF73EF900215220AD
:10289000FEF73AF940F23F115320FEF735F90021D7
:1028A0006120FEF731F900216A20FEF72DF94FF47F
:1028B00040719220FEF728F905219320FEF724F9B4
:1028C0004FF480710720FEF71FF93EE20F480088A1
:1028D000A0F5094189397ED101210020FEF714F9C4
:1028E0004AF6A4010320FEF70FF900210C20FEF7A1
:1028F0000BF940F60C010D20FEF706F94FF42C51B0
:102900000E20FEF701F9B0211E2001E01A00002080
:10291000FEF7FAF842F63F310120FEF7F5F84FF4E2
:10292000C0610220FEF7F0F800211020FEF7ECF85D
:1029300046F270011120FEF7E7F800210520FEF7AE
:10294000E3F800210620FEF7DFF84EF61C71162092
:10295000FEF7DAF803211720FEF7D6F840F233210C
:102960000720FEF7D1F800210B20FEF7CDF800215B
:102970000F20FEF7C9F800214120FEF7C5F800211D
:102980004220FEF7C1F800214820FEF7BDF840F2D2
:102990003F114920FEF7B8F800214A20FEF7B4F8AD
:1029A00000214B20FEF7B0F84FF46F414420FEF7B2
:1029B000ABF800214520FEF7A7F840F23F11462072
:1029C000FEF7A2F840F207713020FEF79DF84FF4B1
:1029D0000171312000E03FE0FEF796F84FF40171FD
:1029E0003220FEF791F840F202513320FEF78CF8C6
:1029F00040F207513420FEF787F84FF4017135207B
:102A0000FEF782F84FF401713620FEF77DF840F2B0
:102A100002513720FEF778F840F202313A20FEF7F3
:102A200073F840F202313B20FEF76EF800212320BC
:102A3000FEF76AF800212420FEF766F84FF4004103
:102A40002520FEF761F800214F20FEF75DF80021F8
:102A50004E20FEF759F878E1FF480088A0F58A413A
:102A600031397ED101210020FEF74EF80A2000F016
:102A7000B3FF41F228611020FEF746F80E21122024
:102A8000FEF742F840F639211320FEF73DF80A2000
:102A900000F0A2FF40211120FEF736F8502115204A
:102AA000FEF732F80A2000F097FF1E211220FEF7F1
:102AB0002BF80A2000F090FF4FF4B1511020FEF7E0
:102AC00023F842F639211320FEF71EF80A2000F001
:102AD00083FF4FF480710120FEF716F84FF4407128
:102AE0000220FEF711F841F230010320FEF70CF846
:102AF00040F202210820FEF707F808210A20FEF71D
:102B000003F800213020FDF7FFFF40F202413120A1
:102B1000FDF7FAFF4FF483713220FDF7F5FF40F225
:102B200003513320FDF7F0FF4FF482713420FDF79D
:102B3000EBFF40F201313520FDF7E6FF40F207716F
:102B40003620FDF7E1FF40F205313720FDF7DCFFCD
:102B50004FF402713820FDF7D7FF40F60B71392092
:102B600000E03BE0FDF7D0FF02214120FDF7CCFF64
:102B70004FF41C516020FDF7C7FF01216120FDF7D4
:102B8000C3FF4FF404719020FDF7BEFF4FF4857131
:102B90009220FDF7B9FF04219320FDF7B5FF4FF414
:102BA0008071A020FDF7B0FF01210720FDF7ACFFE9
:102BB00021210720FDF7A8FF23210720FDF7A4FF0F
:102BC00033210720FDF7A0FF40F233110720FDF766
:102BD0009BFF0021A020FDF797FFB6E09E480088EC
:102BE000A0F58A4135397ED130211520FDF78CFFC3
:102BF00010219A20FDF788FF20211120FDF784FF86
:102C000043F228411020FDF77FFF02211220FDF73B
:102C10007BFF41F238011320FDF776FF282000F0FA
:102C2000DBFE12210846FDF76FFF282000F0D4FEDE
:102C300043F220411020FDF767FF43F238011320D3
:102C4000FDF762FF462000F0C7FE00213020FDF7AF
:102C50005BFF40F202413120FDF756FF40F20731A1
:102C60003220FDF751FF4FF441713320FDF74CFF47
:102C700004213420FDF748FF40F201413520FDF7E3
:102C800043FF40F207713620FDF73EFF40F2053169
:102C90003720FDF739FF4FF4C2613820FDF734FFCC
:102CA0004FF4C2613920FDF72FFF4FF480710120EE
:102CB000FDF72AFF4FF440710220FDF725FF41F296
:102CC00030010320FDF720FF40F608010820FDF742
:102CD0001BFF08210A20FDF717FF4FF41C5160204D
:102CE000FDF712FF00E030E001216120FDF70CFF4D
:102CF0004FF49F719020FDF707FF4FF480719220F1
:102D0000FDF702FF4FF480719320FDF7FDFE4FF4B5
:102D10004051A020FDF7F8FE1021A320FDF7F4FE9E
:102D200001210720FDF7F0FE21210720FDF7ECFE31
:102D300023210720FDF7E8FE33210720FDF7E4FEFD
:102D400040F233110720FDF7DFFE0020FDF7D6FF2C
:102D50000120424908604FF6FF70FEF793F908BD65
:102D60002DE9F05F05460E4617469846DDF828A087
:102D70004FF0000B0020FDF7C1FF781B401C1FFA2D
:102D800080FB34461EE02146284601F059FEFDF73F
:102D9000D9FE4FF0000911E04FF48070304908610E
:102DA000400048612F48C0F80CAC802048610861A1
:102DB0008000086109F101001FFA80F9D945EBDBB9
:102DC000601C84B24445DEDD0020FDF797FFBDE8BE
:102DD000F09F2DE9FF4F85B081468A460020049080
:102DE00003900798A0EB09050898A0EB0A06CDF818
:102DF0000890CDF804A0002D01DD012705E00DB9F4
:102E0000002702E04FF0FF376D42002E02DD4FF049
:102E1000010806E016B94FF0000802E04FF0FF3855
:102E20007642B54201DD2C4600E034464FF0000BFF
:102E30002AE0019881B2029880B2FEF707F904985F
:102E4000284404900398304403900498A0420EDD77
:102E50000498001B049007E01A000020A8012242F9
:102E6000001001400000014002983844029003988D
:102E7000A04205DD0398001B039001984044019097
:102E80000BF101001FFA80FB601C8345D1DD09B006
:102E9000BDE8F08F2DE9F04104460D4616461F4669
:102EA0002B46324629462046FFF793FF3B462246F3
:102EB00029462046FFF78DFF3B46324639462046DD
:102EC000FFF787FF3B46324629463046FFF781FF32
:102ED000BDE8F0812DE9F04706460F4690460024F4
:102EE00045460320A0EB480948E03A1B91B2721B0B
:102EF00090B2FEF7ABF83A1B91B2721990B2FEF79E
:102F0000A5F87A1991B2321B90B2FEF79FF83A1BDE
:102F100091B2721B90B2FEF799F87A1B91B2321BF4
:102F200090B2FEF793F83A1991B2721990B2FEF787
:102F30008DF87A1B91B2321990B2FEF787F87A19A0
:102F400091B2321990B2FEF781F83A1991B2721B20
:102F500090B2FEF77BF8641CB9F1000F03DAA00011
:102F6000801D814404E0601B80000A3081446D1E96
:102F70007A1991B2321990B2FEF768F8AC42B4DD1A
:102F8000BDE8F0872DE9FF4F81B007468946164618
:102F90001D46BB46944800880090E82F02DCB9F536
:102FA0009C7F02DD05B0BDE8F08FA6F12000C6B21F
:102FB0000E98C8BB002434E00C2D07D106EB460068
:102FC0008A4901EB800010F804A004E0884800EB77
:102FD000061010F804A04FF0000816E01AF0010FD8
:102FE00003D081490098088003E0824800887E4928
:102FF000088049463846FEF729F84FEA6A0A781CE5
:1030000087B208F1010000F0FF0805EBD571B8EBBD
:10301000610FE3DB5F4609F101001FFA80F9601CD4
:10302000C4B2AC42C8DB2EE0FFE7002429E00C2D3F
:1030300007D106EB46006D4901EB800010F804A0B3
:1030400004E06B4800EB061010F804A04FF00008F5
:1030500010E01AF0010F07D009EB040291B207EB60
:10306000080290B2FDF7F2FF4FEA6A0A08F1010088
:1030700000F0FF0805EBD571B8EB610FE9DB601CD0
:10308000C4B2AC42D3DB58490098088000BF89E73E
:1030900010B50246012000E050430B00A1F10104ED
:1030A000E1B2F9D110BD2DE9FF4F81B0074691463D
:1030B0001E460E9D4FF0000A00243BE0301B401ED0
:1030C000C1B20A20FFF7E4FFB9FBF0F00A21B0FB20
:1030D000F1F201FB120000F0FF08BAF1000F16D167
:1030E000701EA04213DDB8F1000F0ED10023AB46D5
:1030F00005EBD571491001FB047188B200932B4692
:1031000020220299FFF73EFF12E04FF0010A002350
:10311000AB4605EBD571491001FB047188B20093F1
:103120002B4608F13001CAB20299FFF72BFF00BF0E
:10313000601CC4B2B442C1DB05B0BDE8F08F2DE91C
:10314000FF4F81B007468A4690461D460E9E0024DA
:1031500020E0281B401EC1B20A20FFF799FFB8FBF0
:10316000F0F00A21B0FBF1F201FB120000F0FF09C0
:103170000F9BB34606EBD671491001FB047188B270
:103180000093334609F13001CAB25146FFF7FAFE07
:10319000601CC4B2AC42DCDB05B0BDE8F08FF8B512
:1031A00005460E4614461BE0E82D03DD002506F11A
:1031B000100086B2B6F59C7F06DD00200546064667
:1031C0004FF6FF70FDF75EFF002300932278102377
:1031D00031462846FFF7D6FE05F1080085B2641C8B
:1031E00020780028E0D1F8BD160000203A4B0008F6
:1031F000AE4F00081800002008B50121102001F092
:103200007AF83020ADF8000010208DF8030003207C
:103210008DF8020069468F4800F0BAFD01208E4902
:1032200008608E49C1F8900108BD10B58948006852
:1032300020F47020874908600846006840F4403058
:1032400008600120864908608449C1F894014FF064
:10325000040000F0DCFB0020814908604FF004000E
:1032600000F0D5FB00207D49C1F8940110BD10B5D8
:103270007848006820F470207649086008460068A5
:1032800040F4403008600020734908607349C1F879
:1032900090014FF0040000F0BAFB01206E49086075
:1032A0006E49C1F890014FF0040000F0B0FB10BD72
:1032B00010B500246748006820F470206549086054
:1032C0000846006840F40020086001206449086056
:1032D00000F09DFB01206149C1F8940100F097FBCB
:1032E00007E0601CC4B2FA2C03DDFFF7C0FF012029
:1032F00010BD5C4800680028F3D15749086000BF42
:10330000F6E710B50020544908605248006820F4E0
:103310007020504908600846006840F4403008605A
:103320004FF000004D49C1F890014FF0020000F04D
:103330006EFB0120484908604FF0020000F067FB77
:1033400000204649C1F8940110BD10B50020424943
:1033500008604048006820F470203E490860084634
:10336000006840F4403008604FF001003B49C1F86C
:1033700090014FF0020000F04AFB0120364908603E
:103380004FF0020000F043FB00203449C1F89401E3
:1033900010BD70B504462F48006820F470202D49F8
:1033A00008600846006840F44030086000202A4960
:1033B000086005461AE0E009294908604FEA4460C0
:1033C0004FEA10644FF0020000F021FB0120234976
:1033D000C1F89401022000F01AFB00201E49086089
:1033E0004FF0010000F013FB681CC5B2082DE2DBB2
:1033F00070BD70B5054600241648006820F47020A2
:10340000144908600846006840F40020086000265F
:1034100016E00020104908604FF0020000F0F7FAB3
:1034200001200E49C1F89401022000F0F0FA600674
:10343000040E0C48006808B1601CC4B2701CC6B20F
:10344000082EE6DB15B9FFF780FF01E0FFF759FF13
:10345000204670BD0010014094012242000022422B
:10346000900122421001224210B5FFF7C5FE10BDA7
:1034700070B504460025FFF7D8FEFF2094FBF0F05E
:10348000682101EB4000C6B23046FFF782FFFFF72C
:103490000FFFFF2094FBF0F100FB1140C6B2304655
:1034A000FFF777FFFFF704FFFFF7BFFE6920FFF785
:1034B00070FFFFF7FDFE0020FFF79BFF0546FFF7BB
:1034C000D6FE284670BD70B504460D46FFF7ADFE2A
:1034D000FF2094FBF0F0682101EB4000C6B23046BB
:1034E000FFF757FFFFF7E4FEFF2094FBF0F100FB2E
:1034F0001140C6B23046FFF74CFFFFF7D9FE284611
:10350000FFF747FFFFF7D4FEFFF7B1FE0A2000F0F8
:1035100063FA70BD2DE9F04105460E4617460024BA
:1035200009E0E20026FA02F2D1B22A1990B2FFF7BE
:10353000CAFF601CC4B2BC42F3DBBDE8F0812DE9D8
:10354000F04107460C460026002509E036023919ED
:10355000491B491E88B2FFF78BFF0644681CC5B2A1
:10356000A542F3DB3046BDE8F08170B506460C4657
:10357000154608E03046721C96B2FFF779FF04F852
:10358000010B681E85B2002DF4D170BD70B50546E3
:103590000C46164606E021782846FFF794FF681C83
:1035A00085B2641C3000A6F101018EB2F3D170BD6A
:1035B00070B504460D462946A0B2FFF784FF70BDE2
:1035C00070B504460D46A0B2FFF752FF287070BDDB
:1035D0002DE9F04105460E4617460020044606E058
:1035E000395D2819FFF7E4FF601CC0B20446B442FD
:1035F000F6DBBDE8F0812DE9F04105460E461746A1
:103600000020044606E039192819FFF7D9FF601C8D
:10361000C0B20446B442F6DBBDE8F08138B50546D9
:103620000C4669462846FFF7CBFF9DF80000204076
:10363000A04208D09DF80000204300909DF80010A3
:103640002846FFF7B5FF38BD38B505460C46694634
:103650002846FFF7B5FF9DF80000204008D09DF8F0
:103660000000A04300909DF800102846FFF7A0FF3F
:1036700038BDF8B506460C46154669463046FFF794
:103680009FFF9DF800002840A04209D09DF800004F
:10369000A843204300909DF800103046FFF788FFB4
:1036A000F8BD10B50446052C1DD2DFE804F0030870
:1036B0000D12170004211220FFF7B0FF15E00821BA
:1036C0001220FFF7ABFF10E002211220FFF7A6FF48
:1036D0000BE001211220FFF7A1FF06E010211220CC
:1036E000FFF79CFF01E0002010BD00BF0120FBE7B9
:1036F00010B50446052C1DD2DFE804F003080D12B6
:10370000170004211220FFF79FFF15E00821122067
:10371000FFF79AFF10E002211220FFF795FF0BE060
:1037200001211220FFF790FF06E010211220FFF781
:103730008BFF01E0002010BD00BF0120FBE770B54A
:1037400005460C460026052D7ED2DFE805F0031C59
:10375000344C6400B4F5E16F01DD012000E000208D
:1037600040F6E44188420DDAA4F5E160642190FB63
:10377000F1F0C6B23007010EF0222820FFF779FFE2
:10378000012070BD62E0B4F5E16F01DD012000E0D1
:10379000002040F6E44188420CDAA4F5E16064219F
:1037A00090FBF1F0C6B20F2231462820FFF761FFEF
:1037B0000120E6E74AE0B4F52F7F01DD012000E0BB
:1037C000002040F6AC5188420CDAA4F52F70192184
:1037D00090FBF1F0C6B27F2231462720FFF749FF68
:1037E0000120CEE732E0B4F52F7F01DD012000E0BB
:1037F000002040F6AC5188420CDAA4F52F70192154
:1038000090FBF1F0C6B27F2231462620FFF731FF50
:103810000120B6E71AE0B4F52F7F01DD012000E0BA
:10382000002040F6E30188420DDAA4F52F7019213B
:1038300090FBF1F0C6B25F2231462320FFF719FF5B
:1038400001209EE700E001E000209AE700BF002091
:1038500097E738B50446052C69D2DFE804F0031772
:103860002C40540069462820FFF7AAFE9DF800006E
:10387000000900909DF8000000EBC00101EB001072
:10388000082101EB8000C0B2009053E06946282077
:10389000FFF796FE9DF8000000F00F0000909DF8E5
:1038A000000000EBC00101EB0010082101EB8000DB
:1038B000C0B200903EE069462720FFF781FE9DF8E8
:1038C000000000F07F0000909DF8000000EBC001B8
:1038D00001EB001000F52F70C0B200902AE069469D
:1038E0002620FFF76DFE9DF8000000F07F0000909D
:1038F0009DF8000000EBC00101EB001000F52F70F7
:10390000C0B2009016E069462320FFF759FE9DF8EB
:10391000000000F05F0000909DF8000000EBC00187
:1039200001EB001000F52F70C0B2009002E0002003
:10393000009000BF00BF9DF8000038BD38B50446B8
:1039400069461220FFF73CFE052C2CD2DFE804F07C
:10395000030B131B23009DF8000010F0040F01D08F
:10396000012038BD20E09DF8000010F0800F01D04C
:103970000120F6E718E09DF8000010F0020F01D0DA
:103980000120EEE710E09DF8000010F0010F01D0DB
:103990000120E6E708E09DF8000010F0100F01D0CC
:1039A0000120DEE700E000BF00BF0020D9E70000F3
:1039B00010B504466FF0040000F067F9E11704EB5E
:1039C0005171C9101F4A1170104600784FF47A7176
:1039D00048431D49088010BD01461B4A12884A43CE
:1039E0004FF0E0235A6100229A6101221A6100BF60
:1039F0004FF0E022106910F0010F02D010F4803F68
:103A0000F6D000224FF0E0231A619A617047014618
:103A10000C4A12784A434FF0E0235A6100229A611F
:103A200001221A6100BF4FF0E022106910F0010F6F
:103A300002D010F4803FF6D000224FF0E0231A614C
:103A40009A6170471C0000201E00002010B54FF442
:103A5000A06000F0C1F810BD014600BF704700BF74
:103A6000484A128812F0400FFAD0C2B2464B1A8070
:103A7000704710B586B00446012144F2050000F0FD
:103A80003AFC4FF40070ADF8140003208DF81600D6
:103A900018208DF8170005A93C4800F079F94FF47B
:103AA0008060ADF8140004208DF8170005A9374890
:103AB00000F06EF925208DF8000003208DF801003C
:103AC0008DF8020001208DF80300684600F089F8A7
:103AD00001940020ADF80800ADF80A00ADF80C0024
:103AE000ADF810000C20ADF80E0001A9254800F03B
:103AF000B0FC012240F22551224800F042FD012194
:103B0000204800F032FD06B010BD10B540F225513E
:103B10001C4800F01EFE10B31A4800F09AFDC4B213
:103B20001B48007810F0800F2BD11948007810F056
:103B3000400F0CD00A2C03D000201549087020E05B
:103B40001348007840F080001149087019E00D2CEE
:103B500006D10F48007840F040000D49087010E091
:103B60000B48007800F03F000A490C5408480078E0
:103B7000401C07490870084600783F2801DD0020F6
:103B8000087010BD003801400438014000080140B1
:103B9000200000203C0000200948804709480047D9
:103BA000FEE7FEE7FEE7FEE7FEE7FEE7FEE7FEE7ED
:103BB000FEE7FEE704480549054A064B704700004A
:103BC00035080008ED000008E0000020E0060020B5
:103BD000E0020020E002002036490143364A11602D
:103BE000704770B5002100230F22C4784CB3324CCB
:103BF000246804F4E064C4F5E0644FEA1421C1F1E0
:103C0000040322FA01F2447804FA03F1847804EA06
:103C1000020444EA01014FEA0111284C0678A1553B
:103C2000047804F01F054FF0010404FA05F4057848
:103C30004FEA65154FF0E02606EB8505C5F8004113
:103C400009E0047804F01F050124AC401C4D0678FF
:103C5000761145F8264070BD1A4A0A4002431A4BB5
:103C60001A60704741B1194A126842EA00024FF0E7
:103C7000E023C3F8102D07E0144A126822EA00027C
:103C80004FF0E023C3F8102D7047042808D14FF0FF
:103C9000E021096941F004014FF0E022116107E0E1
:103CA0004FF0E021096921F004014FF0E022116199
:103CB000704700000000FA050CED00E000E400E0B1
:103CC00080E100E080FFFF1F08ED00E010ED00E064
:103CD00010B50446CA48844208D10121042000F0EE
:103CE00024FB0021042000F020FB46E0C54884426C
:103CF00008D10121082000F018FB0021082000F065
:103D000014FB3AE0C048844208D10121102000F0A1
:103D10000CFB0021102000F008FB2EE0BB48844281
:103D200008D10121202000F000FB0021202000F01C
:103D3000FCFA22E0B648844208D10121402000F07C
:103D4000F4FA0021402000F0F0FA16E0B148844275
:103D500008D10121802000F0E8FA0021802000F045
:103D6000E4FA0AE0AC48844207D10121801500F052
:103D7000DCFA0021A01500F0D8FA10BD10B5012121
:103D8000084600F0D2FA0021012000F0CEFA10BD62
:103D90002DE9F041024600250026002000230024E2
:103DA000002791F803C00CF00F0591F803C01CF038
:103DB000100F03D091F802C04CEA0505B1F800C01D
:103DC0001CF0FF0F31D0146800202BE04FF0010CE5
:103DD0000CFA00F3B1F800C00CEA03069E4220D1B1
:103DE00083004FF00F0C0CFA03F7BC4305FA03FCF9
:103DF0004CEA040491F803C0BCF1280F06D14FF03F
:103E0000010C0CFA00FCC2F814C00AE091F803C0DF
:103E1000BCF1480F05D14FF0010C0CFA00FCC2F8C0
:103E200010C0401C0828D1D31460B1F800C0BCF108
:103E3000FF0F34DD546800202EE000F1080C4FF035
:103E4000010808FA0CF3B1F800C00CEA03069E4220
:103E500021D183004FF00F0C0CFA03F7BC4305FA95
:103E600003FC4CEA040491F803C0BCF1280F05D10F
:103E700000F1080C08FA0CF8C2F8148091F803C09D
:103E8000BCF1480F07D100F1080C4FF0010808FA07
:103E90000CF8C2F81080401C0828CED35460BDE84E
:103EA000F0814FF6FF710180022181700421C17001
:103EB00070470246002093680B4201D0012000E0C9
:103EC000002070470146886880B270470246002093
:103ED000D3680B4201D0012000E00020704701466A
:103EE000C86880B2704701617047416170470AB18C
:103EF000016100E041617047C16070474FF480325A
:103F00000A438261816182618269826970470246E7
:103F10000020424B18684FF68073184040EA0210A8
:103F200008433E4B186070473D49C8617047F0B583
:103F30000A46002300240021002500F00046B6F1C7
:103F4000004F02D1354EF16901E0344E7168C0F383
:103F5000034583B200F44016B6F5401F08D121F0A6
:103F600070612E4E766826F070662C4F7E6012E0EF
:103F700000F48016B6F5801F06D1032606FA05F474
:103F8000A14341F0706106E0460D360103FA06F6E2
:103F9000B14341F0706122B1460D360103FA06F6D5
:103FA000314300F00046B6F1004F02D11B4EF161E3
:103FB00001E01A4E7160F0BD30B500228B071C0F76
:103FC0000F2303FA04F2154B08338C1053F82430F6
:103FD0009343124C08348D1044F8253023468C103E
:103FE00053F824308C07240F00FA04F423430B4CBD
:103FF00008348D1044F8253030BD0A4908607047F8
:1040000000080140000C0140001001400014014074
:1040100000180140001C0140002001400000014048
:1040200000002042DC002042DB48006840F0010034
:10403000D949086008464068D8490840D6494860D0
:1040400008460068D6490840D34908600846006819
:1040500020F4802008600846406820F4FE00486094
:104060004FF41F0088607047CB49096821F4803104
:10407000C94A11601146096821F480211160B0F528
:10408000803F03D0B0F5802F0ED106E0C249096809
:1040900041F48031C04A116007E0BF49096841F42A
:1040A000A021BD4A116000E000BF00BF704710B5FD
:1040B00001460022002300204A11012A02D1B64CF9
:1040C000236806E0022A02D1B34C236A01E0B24C15
:1040D000636A01F01F02012494401C4201D00120B8
:1040E00000E0002010BD70B500240025002600BFB0
:1040F0003120FFF7DCFF0646641CB4F5A06F01D049
:10410000002EF5D03120FFF7D2FF08B1012500E0E5
:104110000025284670BD014600209F4A106820F007
:10412000F80040EAC100106070479E49086070477F
:1041300002460020984B586820F47C1042EA0103A4
:104140001843954B5860704796490866704701467A
:104150000020914A506820F00300084350607047E7
:104160008D48406800F00C007047014600208A4AE4
:10417000506820F0F000084350607047014600206E
:10418000854A506820F4E06008435060704701465B
:104190000020814A506820F4605040EAC10050601D
:1041A000704729B17C4A527A02437B4B5A7206E02F
:1041B000794A527AC343DBB21A40774B5A7270473E
:1041C00079490860704701460020734A506820F41E
:1041D00040400843506070470021744A11706E4A95
:1041E00082F82010012802D0042808D103E0012120
:1041F0006E4A117004E005216C4A117000E000BFA6
:1042000000BF70476A49086070476349096A014303
:10421000614A1162704767490860704730B50021F4
:104220000022002400235C4D6D6805F00C0121B1D3
:10423000042905D0082923D105E05F4D056022E05F
:104240005D4D05601FE0544D6D6805F47012524DD0
:104250006D6805F48034022505EB92421CB9574D78
:10426000554305600BE04C4D6D6815F4003F03D0DD
:10427000524D5543056002E04F4D5543056002E045
:104280004D4D056000BF00BF434D6D6805F0F00166
:1042900009094B4D6B5C0568DD4045603E4D6D681E
:1042A00005F4E061090A464D6B5C4568DD408560B8
:1042B000394D6D6805F46051C90A414D6B5C456824
:1042C000DD40C560344D6D6805F44041890B3D4DBE
:1042D0006B5CC568B5FBF3F5056130BD29B12E4AAD
:1042E000526902432C4B5A6104E02B4A52698243C3
:1042F000294B5A61704729B1274A92690243264BDC
:104300009A6104E0244A92698243234B9A61704780
:1043100029B1214AD26902431F4BDA6104E01E4AE7
:10432000D26982431C4BDA61704729B11A4AD268BC
:104330000243194BDA6004E0174AD2688243164BF5
:10434000DA60704729B1144A12690243124B1A61AC
:1043500004E0114A126982430F4B1A6170471A49EF
:10436000086070470F49C86470470B49C8717047AF
:104370000948406A40F0807007494862704701462A
:104380000020054A92680A4201D0012000E0002086
:104390007047014988727047001002400000FFF822
:1043A000FFFFF6FE00004242D800424220100240C9
:1043B000800442423C04424200127A0000093D005F
:1043C00028000020380000204004424210B5044676
:1043D000FC48844209D101218803FFF7A6FF002190
:1043E0004FF48040FFF7A1FF32E0F748844209D143
:1043F00001214804FFF7A6FF00214FF40030FFF72A
:10440000A1FF25E0F148844209D101218804FFF78A
:1044100099FF00214FF48020FFF794FF18E0EC484B
:10442000844209D10121C804FFF78CFF00214FF419
:104430000020FFF787FF0BE0E648844208D1012106
:104440000805FFF77FFF00214FF48010FFF77AFF88
:1044500010BD2DE9F04786B005460E460024A24661
:1044600000BFA1460027B08900B100BF2F462C8AAB
:104470004CF6FF700440F08804432C82AC894EF661
:10448000F3100440B088318908437189084304431C
:10449000AC81AC8A4FF6FF400440B0890443AC8243
:1044A00001A8FFF7BBFEC748874202D1DDF810A084
:1044B00001E0DDF80CA0A88910F4004F08D00AEB49
:1044C000CA0000EB0A1031684900B0FBF1F807E0C0
:1044D0000AEBCA0000EB0A1031688900B0FBF1F862
:1044E0006420B8FBF0F004012009642101FB10896D
:1044F000A88910F4004F08D0322000EBC900B0FBAF
:10450000F1F000F00700044308E0322000EB09104E
:104510006421B0FBF1F000F00F0004432C8106B0E1
:10452000BDE8F0874FF41651016000218180C18001
:1045300001810C21418100218181704710B5024623
:104540000020108A4FF2FF0318400B884C88234349
:104550008C882343CC8823431843108210BD00214C
:10456000018041808180C180704721B1828942F4FD
:104570000052828104E082894DF6FF731A408281E5
:104580007047F0B503460024002600250020A1F561
:1045900010676A3F00D100BF1846C1F3421401F012
:1045A0001F06012707FA06F5012C01D10C3004E0A3
:1045B000022C01D1103000E014301AB107682F43EB
:1045C000076002E00768AF430760F0BD10B51AB19D
:1045D000838A0B43838204E0838ACC43A4B22340C2
:1045E000838210BD028A4FF6F0731A400282028A5B
:1045F0000A430282704782894FF2FF731A40828118
:1046000082890A438281704721B1828942F0020285
:10461000828104E082894FF6FD731A4082817047DF
:10462000028A4FF6DF731A400282028A0A4302822C
:10463000704721B1028A42F48042028204E0028A79
:104640004BF6FF731A4002827047C1F30802828062
:10465000704701468888C0F308007047818941F09F
:10466000010181817047028BD2B20283028B42EA40
:10467000012202837047028B02F47F420283028B85
:104680000A430283704721B1828A42F0200282826B
:1046900004E0828A4FF6DF731A408282704721B1AC
:1046A000828A42F01002828204E0828A4FF6EF731F
:1046B0001A408282704721B1828A42F008028282C7
:1046C00004E0828A4FF6F7731A408282704721B164
:1046D000828942F40042828103E08289C2F30E02A1
:1046E0008281704721B1828A42F40062828204E0B2
:1046F000828A4FF2FF731A4082827047828A4FF695
:10470000FB731A408282828A0A438282704721B1F7
:10471000828A42F00202828204E0828A4FF6FD73AE
:104720001A408282704702460020B1F5007F00D116
:1047300000BF13880B4201D0012000E00020704729
:1047400001F40072B2F5007F00D100BFCA430280BD
:10475000704770B502460024002300250020A1F513
:1047600010666A3E00D100BFC1F3421501F01F037D
:10477000012606FA03F3012D02D19689334006E0A3
:10478000022D02D1168A334001E0968A33400C1282
:10479000012606FA04F41688344013B10CB1012046
:1047A00000E0002070BD10B500220023A1F51064C8
:1047B0006A3C00D100BF0A1201249440A3B2DC433A
:1047C000048010BD00380140004400400048004013
:1047D000004C004000500040704700000FB40449F6
:1047E00010B503AA029800F0C7F810BC5DF814FBDE
:1047F000240000202DE9F04104460E4600200AE086
:10480000E1682046884738B3252806D0D4E901213D
:104810009047206A401C2062F2E7E16820460027AA
:104820008847050018D0A5F14100192802D8203585
:104830004FF400673246294620462760FBF790FC7C
:1048400040B1012804D0F61D26F007060836D7E748
:10485000361DD5E72846D9E7206ABDE8F08100007B
:1048600070B504460D4621461068AFF300802168FC
:10487000090502D5104A7A4402E00F4A7A440E3202
:10488000002104F1240307E000F00F064FEA1010A6
:10489000965D5E5401F101010028F5D120680023E6
:1048A000000704D5702D02D009B111320223204631
:1048B000BDE8704000F006B8240D00007047704756
:1048C000704770472DE9F0470D46044692469946D9
:1048D00000F124080168880604D5E06921F0100180
:1048E000216000E001200027A84201DDA0EB0507C0
:1048F000A16907EB050202EB0300A1EB0000A06138
:104900002068C00602D42046AFF30080002608E0ED
:10491000D4E901211AF806009047206A401C761C51
:1049200020624E45F4DB2068C0060AD52046AFF36E
:10493000008006E0D4E9012130209047206A401C25
:104940002062381EA7F10107F4DC07E0D4E9012159
:1049500018F805009047206A401C2062281EA5F127
:104960000105F3DC2046AFF3008021680220090630
:1049700000D40120BDE8F087074B70B50C467B449E
:1049800000F011F80546204600F020F810B14FF075
:10499000FF3070BD284670BDDDF0FFFF01694A1C85
:1049A00002610878704700B58FB0CDE90131002170
:1049B000059105497944CDE9031011466846FFF792
:1049C00019FF0FB000BD0000E5FFFFFFC06800F059
:1049D00080007047754600F029F8AE46050069462C
:1049E000534620F00700854618B020B5FFF7E2F8DF
:1049F000BDE820404FF000064FF000074FF00008E0
:104A00004FF0000B21F00701AC46ACE8C009ACE860
:104A1000C009ACE8C009ACE8C0098D46704704463F
:104A2000AFF300802046FBF7AFFB00000048704763
:104A30007C00002001487047704700BF80000020C4
:104A400030B504460D4635480088A0F5094189393E
:104A500008D121464E20FCF757F829464F20FCF795
:104A600053F85AE02D480088A0F5134141394CD144
:104A70002A20FCF703F84FF48070294908614000B0
:104A800048612012274908604FF08000244948619E
:104A900008614FF4007008614FF4807008614FF4B2
:104AA00000704861E0B22049C1F80C0C4FF0800062
:104AB0001B49486108614FF4007008614FF02B00FA
:104AC000FBF7DCFF4FF48070154908614000486136
:104AD0002812144908604FF08000114948610861AC
:104AE0004FF4007008614FF4807008614FF400705B
:104AF0004861E8B20B4908604FF0800008494861FE
:104B000008614FF40070086107E021462020FBF7A0
:104B1000FBFF29462120FBF7F7FF30BD1A000020DC
:104B2000001001400C0C01400000014010B5FFF7DF
:104B300081FF4FF00001016010BD00000000000087
:104B40000000000000000000040404040404000449
:104B5000000000140A0A000000000000000000002D
:104B600014143F140A3F0A0A000000041E1505062B
:104B70000C14150F0400000012150D0A142C2A1233
:104B800000000000040A0A1E151509360000000284
:104B900002010000000000000000002010080808CA
:104BA0000808081020000002040808080808080483
:104BB000020000000004150E0E15040000000000A5
:104BC0000404041F040404000000000000000000AE
:104BD00000000002020100000000001F00000000B1
:104BE00000000000000000000000000200000010B3
:104BF0000808080404020202010000000E1111114D
:104C00001111110E00000000040604040404040E37
:104C1000000000000E1111080402011F0000000036
:104C20000E11100C1010110E00000000080C0A0AE2
:104C3000091E0818000000001F01010F1010110EBE
:104C4000000000000E09010F1111110E00000000FC
:104C50001F09080404040404000000000E11110ED2
:104C60001111110E000000000E1111111E10120E74
:104C7000000000000000040000000004000000002C
:104C800000000004000000040400002010080402DA
:104C9000040810200000000000001F00001F00009A
:104CA00000000002040810201008040200000000A8
:104CB0000E11110804040004000000000E11191563
:104CC000151D011E0000000004040C0A0A1E123308
:104CD000000000000F12120E1212120F000000004E
:104CE0001E1101010101110E000000000F1212122D
:104CF0001212120F000000001F120A0E0A02121FE9
:104D0000000000001F120A0E0A0202070000000045
:104D10001C1201013911120C000000003312121E86
:104D200012121233000000001F0404040404041FC4
:104D3000000000003E0808080808080907000000F5
:104D400037120A060A0A12370000000007020202A0
:104D50000202223F000000001B1B1B1B151515152E
:104D6000000000003B1216161A1A1217000000006D
:104D70000E1111111111110E000000000F12120E70
:104D800002020207000000000E1111111117190E86
:104D9000180000000F12120E0A1212370000000055
:104DA0001E1101060810110F000000001F15040459
:104DB0000404040E00000000331212121212120C2E
:104DC000000000003312120A0A0C04040000000064
:104DD0001515150E0A0A0A0A000000001B0A0A042B
:104DE000040A0A1B000000001B0A0A040404040E43
:104DF000000000001F0908040402121F0000001C2C
:104E000004040404040404041C0000020202040458
:104E1000080808100000000E08080808080808081C
:104E20000E0000040A000000000000000000000066
:104E30000000000000000000003F0004000000002F
:104E400000000000000000000000000C121C123CDA
:104E5000000000000302020E1212120E00000000F9
:104E60000000001C1202021C000000001810101CA0
:104E70001212123C000000000000000C121E021C66
:104E8000000000003804041E0404041E000000009A
:104E90000000003C120C021E221C00000302020E45
:104EA0001212123700000000040000060404040E71
:104EB000000000000800000C0808080808070000AF
:104EC0000302023A0A0E123700000000070404042D
:104ED0000404041F000000000000000F1515151544
:104EE000000000000000000F121212370000000046
:104EF0000000000C1212120C000000000000000F55
:104F00001212120E020700000000001C1212121CE6
:104F1000103800000000001B06020207000000001D
:104F20000000001E020C101E000000000004040E11
:104F300004040418000000000000001B1212123CC0
:104F40000000000000000037120A0C0400000000FE
:104F500000000015150E0A0A000000000000001BEA
:104F60000A040A1B0000000000000037120A0C04AB
:104F7000040300000000001E0804041E00000018C6
:104F8000080808040808080818000808080808089D
:104F900008080808080800060404040804040404B7
:104FA00006000225180000000000000000000000BC
:104FB00000000000000000000000000000000000F1
:104FC0000008080808080808000018180000004831
:104FD0006C2412000000000000000000000000002F
:104FE000002424247F1212127F12121200000000EB
:104FF000081C2A2A0A0C1828282A2A1C080800003B
:105000000022251515152A5854545422000000007A
:10501000000C1212120A76252911916E000000066A
:105020000604030000000000000000000000004033
:10503000201010080808080808101020400000027E
:1050400004080810101010101008080402000000D6
:10505000000008086B1C1C6B080800000000000022
:105060000000080808087F08080808000000000081
:10507000000000000000000000000606040300001D
:10508000000000000000FE00000000000000000022
:105090000000000000000000000006060000000004
:1050A0008040402020101008080404020200000084
:1050B00000182442424242424242241800000000AA
:1050C00000080E08080808080808083E000000004C
:1050D000003C4242422020100804427E00000000B2
:1050E000003C4242201820404042221C00000000A8
:1050F00000203028242422227E2020780000000076
:10510000007E0202021A26404042221C00000000DB
:1051100000382402021A26424242241800000000ED
:10512000007E22221010080808080808000000006D
:10513000003C4242422418244242423C000000000B
:1051400000182442424264584040241C00000000E1
:1051500000000000181800000000181800000000EF
:105160000000000000080000000000080804000023
:105170000040201008040204081020400000000035
:10518000000000007F0000007F0000000000000021
:105190000002040810204020100804020000000053
:1051A000003C424246402010100018180000000049
:1051B000001C225A555555552D42221C0000000056
:1051C000000808181414243C224242E700000000A2
:1051D000001F2222221E22424242221F0000000003
:1051E000007C4242010101010142221C000000003A
:1051F000001F2242424242424242221F000000005F
:10520000003F4212121E12120242423F00000000F2
:10521000003F4212121E121202020207000000009A
:10522000003C2222010101712122221C0000000009
:1052300000E7424242427E42424242E70000000012
:10524000003E0808080808080808083E000000009A
:10525000007C10101010101010101010110F000012
:10526000007722120A0E0A12122222770000000092
:1052700000070202020202020202427F0000000056
:105280000077363636362A2A2A2A2A6B0000000092
:1052900000E346464A4A525252626247000000000A
:1052A000001C2241414141414141221C00000000BB
:1052B000003F424242423E0202020207000000005A
:1052C000001C2241414141414D53321C600000000D
:1052D000003F4242423E1212222242C7000000001A
:1052E000007C4242020418204042423E000000007E
:1052F000007F4908080808080808081C000000008A
:1053000000E74242424242424242423C0000000028
:1053100000E7424222242414141808080000000068
:10532000006B4949494955553622222200000000A8
:1053300000E7422424181818242442E70000000043
:1053400000772222141408080808081C0000000036
:10535000007E2120101008040442423F0000007823
:105360000808080808080808080808087800000065
:105370000202040408080810102020204040001EEB
:105380001010101010101010101010101E00003807
:1053900044000000000000000000000000000000C9
:1053A00000000000000000000000000000FF0006F8
:1053B00008000000000000000000000000000000E5
:1053C00000000000003C4278444242FC0000000023
:1053D00000030202021A26424242261A000000007E
:1053E00000000000003844020202443800000000BF
:1053F0000060404040784442424264D800000000CF
:1054000000000000003C427E0202423C000000001E
:1054100000F08808087E08080808083E0000000020
:1054200000000000007C22221C023C42423C0000A2
:1054300000030202023A4642424242E700000000F4
:10544000000C0C00000E08080808083E00000000D0
:10545000003030000038202020202020221E0000B4
:10546000000302020272120A1612227700000000E4
:10547000000E0808080808080808083E0000000098
:1054800000000000007F9292929292B7000000000C
:1054900000000000003B4642424242E7000000009C
:1054A00000000000003C42424242423C000000003A
:1054B00000000000001B26424242221E020700009C
:1054C00000000000007844424242447840E000007E
:1054D0000000000000774C040404041F00000000DA
:1054E00000000000007C42023C40423E0000000000
:1054F00000000008083E0808080808300000000006
:105500000000000000634242424262DC00000000F2
:105510000000000000E742242414080800000000F6
:105520000000000000EB4949555522220000000010
:1055300000000000007624181818246E00000000F7
:105540000000000000E742242414180808070000A7
:1055500000000000007E22100808447E000000C009
:10556000202020202010202020202020C0001010EB
:105570001010101010101010101010101010000645
:1055800008080808081008080808080806000C326F
:10559000C2000000000000000000000000003031E8
:1055A000323334353637383941424344454640304A
:1055B00058003031323334353637383961626364FC
:1055C0006566403078000000E855000800000020C3
:1055D0003C00000028010008245600083C00002080
:1055E000A40600004401000800A24A0400000000D4
:1055F0000000000001020304060708090100000082
:10560000FFFF00000000000000000000000000009C
:105610000000000001020304010203040607080958
:045620000204060872
:04000005080000ED02
:00000001FF
