:020000040800F2
:10000000B007002085470008B9070008BB070008B3
:10001000BF070008C3070008C7070008000000006A
:10002000000000000000000000000000CB070008F6
:10003000CD07000800000000CF070008D107000826
:100040009F4700089F4700089F4700089F470008F8
:100050009F4700089F4700089F4700089F470008E8
:100060009F4700089F4700089F4700089F470008D8
:100070009F4700089F4700089F4700089F470008C8
:100080009F4700089F4700089F4700089F470008B8
:100090009F4700089F4700089F4700089F470008A8
:1000A0009F4700089F4700089F4700089F47000898
:1000B0009F4700089F4700089F4700089F47000888
:1000C0009F4700089F4700089F4700089F47000878
:1000D0009F470008F74600089F4700089F47000811
:1000E0009F4700089F4700089F47000800F002F85C
:1000F00000F041F80AA090E8000C82448344AAF181
:100100000107DA4501D100F036F8AFF2090EBAE87E
:100110000F0013F0010F18BFFB1A43F0010318473B
:10012000CC610000EC610000103A24BF78C878C1AF
:10013000FAD8520724BF30C830C144BF04680C60ED
:10014000704700000023002400250026103A28BF35
:1001500078C1FBD8520728BF30C148BF0B60704739
:10016000782905F09781002070471FB505F070FBD6
:100170001FBD10B510BD05F0BFFA1146FFF7F5FF22
:1001800000F008F805F0DDFA03B4FFF7F2FF03BC56
:1001900004F058FA1CB50020019000240026002726
:1001A000F848F949086000F079FB482004F0F6F9B6
:1001B00004F042FA4FF4165004F051FA00F0EEFB4E
:1001C00000F01EFC00F0B2FF03F082F94FF4FC6077
:1001D000EE490880EEA246215A2003F014F84FF4AD
:1001E0007840EA490880ECA25A21552003F00BF828
:1001F000ECA26E215A2003F006F81F20E349088084
:10020000EBA296213C2002F0FEFFECA2AA213C20AA
:1002100002F0F9FFECA2BE213C2002F0F4FFEEA2B6
:10022000D2213C2002F0EFFF1F20D8490880002097
:1002300003F0F2F9012003F0EFF9022003F0ECF9EA
:10024000032003F0E9F9042003F0E6F9A1E200F04D
:10025000F2FB0546012D6BD14FF6FF73009340F280
:100260007E23EF220021084602F0AEFD4FF4FC6031
:10027000C6490880DCA20021552002F0C4FFDDA29F
:100280001E21052002F0BFFFDDA23221052002F071
:10029000BAFFDEA24621052002F0B5FFDEA25A21F8
:1002A000052002F0B0FFDFA26E21052002F0ABFFB7
:1002B000E0A28221052002F0A6FFE1A296210520FE
:1002C00002F0A1FFE1A2AA21052002F09CFFE1A219
:1002D000BE21052002F097FFE0A2D221052002F006
:1002E00092FFE1A2E621052002F08DFF1423A6482B
:1002F000009300680323E621826F4FF4967002F0AA
:1003000006FFDDA2FA21052002F07DFFDEA24FF4F8
:100310008771052002F077FFDEA24FF4917105206E
:1003200002F071FF601CC4B22146042004F0C0F842
:10033000022D44D14FF6FF73009340F27E23EF224B
:100340000021084602F040FD4FF4FC608F49088010
:100350008FA246215A2002F056FF4FF478408B4975
:1003600008808DA25A21552002F04DFF8DA26E21EA
:100370005A2002F048FF1F20844908808CA2962151
:100380003C2002F040FF8DA2AA213C2002F03BFF5E
:100390008DA2BE213C2002F036FF8FA2D2213C204C
:1003A00002F031FF01A9042004F08AF8142300931D
:1003B00003239DF80420FA213C2002F0A8FE032D1F
:1003C00079D1012C02D1002003F04DF9022C02D189
:1003D000012003F048F9032C02D1022003F043F975
:1003E000042C02D1032003F03EF9052C02D1042095
:1003F00003F039F9062C07D140F6C411002003F0B0
:1004000059F9002003F008F9072C07D140F6C41170
:10041000012003F04FF9012003F0FEF8082C07D16A
:10042000022003F0F9F840F6C411022003F042F96B
:10043000092C07D1032003F0EFF840F6C411032084
:1004400003F038F90A2C08D1042003F0E5F840F64F
:100450009801042003F02EF900244FF6FF73009357
:1004600040F27E23EF220021084602F0ADFC4FF45B
:10047000FC60464908808AA20021552002F0C3FE94
:100480008AA23221052002F0BEFE032003F0F8F913
:1004900090B1032003F098F98046142300930423BD
:1004A000424632213C2002F032FE82A232218220DA
:1004B00002F0A9FE05E053E17FA232213C2002F0C8
:1004C000A2FE7FA24621052002F09DFE042003F03B
:1004D000D7F988B1042003F077F9804614230093FC
:1004E0000423424646213C2002F011FE71A246211F
:1004F000822002F088FE04E06FA246213C2002F038
:1005000082FE71A25A21052002F07DFE74A26E21A6
:10051000052002F078FE002003F0B2F988B1002037
:1005200003F052F9804614230093042342466E21BF
:100530003C2002F0ECFD5FA26E21822002F063FEFF
:1005400004E05DA26E213C2002F05DFE66A28221E5
:10055000052002F058FE012003F092F988B1012035
:1005600003F032F98046142300930423424682218B
:100570003C2002F0CCFD4FA28221084602F043FE4F
:10058000BCE0B5E080000020200000203A00002000
:10059000582D706F776572004158503137335F5472
:1005A000455354004350553A2073746D3332000064
:1005B000636F6E74726F6C3A000000004B455931E6
:1005C0003A686F6D650000004B4559303A467565D5
:1005D0006C204775616765004B4559323A44434486
:1005E00043264C444F0000004675656C20477561FA
:1005F0006765000042415453454E53453A000000A0
:10060000434852204375723A000000004449534366
:100610004852204375723A0043485220436F756C2C
:100620003A00000044495343485220436F756C3AE6
:1006300000000000436F756C20436F756E743A00C4
:10064000436F756C205043543A0000005244433AC3
:10065000000000004F43563A000000004F43562070
:100660005043543A000000004675656C2052657393
:10067000756C743A000000004261744361706163FC
:100680006974793A0000000050435420574C313AC5
:100690000000000050435420574C323A0000000044
:1006A00044434443264C444F000000004443444329
:1006B000313A00006D560000436C6F736500000016
:1006C00044434443323A00004C444F313A5254437D
:1006D00020504F454E20414C4C574159530000008B
:1006E0004C444F323A0000004C444F333A00000073
:1006F000AFF23C0282213C2002F085FD25A296212A
:10070000052002F080FD022003F0BAF890B102202B
:1007100003F05AF88046142300930423424696219E
:100720003C2002F0F4FCAFF274029621822002F029
:100730006AFD05E0AFF2800296213C2002F063FDE5
:1007400016A2C8215A2002F05EFD17A2E6215A2007
:1007500002F059FD601CC4B22146042003F0A8FE3B
:10076000701C86B27F1C0A2003F02CFFB6F5967F22
:1007700003D10F48006803F0D0FC142E09D10D48B6
:10078000006808B9012000E000200A4908604FF025
:1007900000065CE54C444F343A000000582D506F81
:1007A0007765727300000000415850313733000004
:1007B00020000020A0012142704700BFFEE700BFDB
:1007C000FEE700BFFEE700BFFEE7704770477047D7
:1007D0007047000000210020674A126842F480320E
:1007E000654B1A6000BF644A126802F40030491C6D
:1007F00010B9B1F5A06FF6D15F4A126812F4003F4C
:1008000001D0012000E00020012842D15B4A12689B
:1008100042F01002594B1A601A46126822F0030285
:100820001A601A46126842F002021A60524A52686E
:10083000514B5A601A4652685A601A46526842F43E
:1008400080625A601A46526822F47C125A601A4634
:10085000526842F4E8125A601A46126842F08072F6
:100860001A6000BF444A126812F0007FFAD0424A70
:10087000526822F00302404B5A601A46526842F016
:1008800002025A6000BF3C4A526802F00C02082A79
:10089000F9D1704710B5FFF79DFF10BD10B5364870
:1008A000006840F001003449086008464068344957
:1008B00008403149486008460068324908402E49DE
:1008C00008600846006820F48020086008464068F8
:1008D00020F4FE0048604FF41F008860FFF7DAFF45
:1008E0004FF000602849086010BD10B500210020BD
:1008F0000022214B5B6803F00C0121B1042906D0D2
:10090000082928D107E0214B214C236027E01F4B09
:100910001F4C236023E0184B5B6803F47010164BE8
:100920005B6803F48032022303EB904022B9194B39
:100930004343174C23600DE00F4B5B6813F4003FFB
:1009400004D0144B4343124C236003E00F4B43434A
:100950000F4C236003E00D4B0D4C236000BF00BF24
:10096000054B5B68C3F303130B4CE15C084B1B683E
:10097000CB40074C236010BD001002400020024015
:100980000000FFF8FFFFF6FE08ED00E000127A001D
:100990002400002000093D002800002008B50121A6
:1009A000042004F09EFA4FF48070ADF8000010208F
:1009B0008DF8030003208DF8020069460E4803F00D
:1009C000DDFF4FF480710C4804F083F801212020F2
:1009D00004F087FA0420ADF8000010208DF8030021
:1009E00003208DF802006946044803F0C7FF042184
:1009F000024804F06EF808BD0008014000140140F0
:100A000008B50121042004F06CFA4FF42040ADF841
:100A1000000048208DF8030069462B4803F0AEFF24
:100A20000120ADF8000028208DF803006946264813
:100A300003F0A4FF08BD10B50121244804F06DF8AF
:100A40002348007858B32348006830B12248006832
:100A500018B122480068012821D10A2003F0B2FD14
:100A600000201B4908701B48006828B901211C4858
:100A700004F053F8012010BD1748006828B901217F
:100A8000174804F04AF80220F5E7144800680128E6
:100A900013D10121124804F040F80320EBE70D4880
:100AA0000068012809D10C480068012805D10B48CD
:100AB000006810B90120064908700121084804F0B7
:100AC0002CF80020D7E700000008014000043000A7
:100AD00038000020340121423C0121420001214222
:100AE000000230004FF48071FF4A516149005161AA
:100AF000FE4908604FF08001516111614FF40071AF
:100B00001161704710B54FF08830F9490860F94914
:100B1000C1F8040C4FF00000F44908604FF48070F5
:100B2000F14908614FF4007048614FF0400048619E
:100B3000F1480088A0F50941893902D1022003F06B
:100B40005CFD4020E8490861EC48006884B24FF43D
:100B5000007008614FF03330E649C1F8000CE849F5
:100B600008604FF6FF70E349C1F80C0C204610BD39
:100B700010B504460B462046FFF7B4FF4FF48070D3
:100B8000D949086140004861D84803604FF08000AF
:100B9000486108614FF40070086110BD10B504464B
:100BA0002046FFF79FFFFFF7ADFF10BD00B5D2480D
:100BB0000088A0F51341413903D12C20FFF792FFA3
:100BC00002E02220FFF78EFF00BD4FF48071C64A7D
:100BD000116149005161C54908604FF080015161C0
:100BE00011614FF400711161704730B5014601F099
:100BF0001F04C1F34513CA0AE50205EB431515446A
:100C0000A8B230BD2DE9F04105460E46F02D02DABE
:100C1000B6F5A07F02DB0020BDE8F0813146284612
:100C200004F0A0FDB4480088A0F51341413903D178
:100C30002E20FFF757FF02E02220FFF753FF4FF06F
:100C40008830AB490860AB49C1F8040C4FF6FF701F
:100C5000A64908604FF48070A34908614FF4007002
:100C600048614FF04000486108614861A24800882F
:100C7000A0F50941893902D1022003F0BEFC4020D1
:100C8000994908619D48006884B29B480088A0F596
:100C9000134141390AD1402093494861086197487E
:100CA00000681FFA80F8E7B24FEA07274FF4007098
:100CB0008D4908614FF033308D4908608D49C1F886
:100CC000040C4FF6FF70C1F80C0C8B480088A0F59F
:100CD0008A41353911D088480088A0F58A413139D8
:100CE0000BD085480088A0F50941893905D0824894
:100CF0000088A0F53541053901D120468CE77E48B2
:100D00000088A0F51341413907D1E012C002B912A1
:100D100040EA411040EAE8207EE72046FFF765FF01
:100D20007AE700B574480088A0F51341413903D132
:100D30002920FFF7D7FE04E040F273110720FFF7E8
:100D400017FF00BD00B56C480088A0F5134141397C
:100D500003D12820FFF7C6FE03E000210720FFF79C
:100D600007FF00BD70B505460024002662480088D4
:100D7000A0F5134141397ED1082D1CD2DFE805F0E2
:100D80000406090C0F12151800BF14E044F080048B
:100D900011E044F040040EE044F0C0040BE044F0E5
:100DA000200408E044F0600405E044F0A00402E000
:100DB00044F0E00400BF00BF362644F0080421469A
:100DC0003046FFF7D5FE14F0200F7ED02A20FFF723
:100DD00089FE4FF48070444908614000486100205A
:100DE000424908604FF080003F49486108614FF474
:100DF000007008614FF4807008614FF40070486122
:100E00004FF000003B49C1F80C0C4FF08000364910
:100E1000486108614FF4007008614FF48070086108
:100E20004FF4007048614FF00100304908604FF006
:100E300080002D49486108614FF4007008614FF44B
:100E4000807008614FF4007048614FF03F002749FF
:100E500008604FF080002449486108614FF4007039
:100E600008614FF02B00FFF73DFE4FF480701E49E4
:100E70000861400000E0EAE0486100201B4908608A
:100E80004FF080001849486108614FF40070086114
:100E90004FF4807008614FF4007048614FF000001B
:100EA000124908604FF080000F49486108614FF413
:100EB000007008614FF4807008614FF40070486161
:100EC0004FF000000949086000E029E04FF0800081
:100ED0000549486108614FF4007008614FF4807063
:100EE00008614FF400700DE0001001400C0C01404F
:100EF000000C0140000001403E000020080C0140B1
:100F0000040C014048614FF0EF00FF4908604FF0CA
:100F10008000FE49486108614FF400700861C8E034
:100F20002A20FFF7DFFD4FF48070F8490861400088
:100F300048610020F44908604FF08000F34948619F
:100F400008614FF4007008614FF4807008614FF43D
:100F5000007048614FF00000ED49C1F80C0C4FF0F3
:100F60008000EA49486108614FF4007008614FF45D
:100F7000807008614FF4007048614FF00000E24952
:100F800008604FF08000E149486108614FF400704B
:100F900008614FF4807008614FF4007048614FF0B1
:100FA000EF00D94908604FF08000D84948610861D6
:100FB0004FF4007008614FF02B00FFF793FD4FF4E2
:100FC0008070D2490861400048610020CE49086025
:100FD0004FF08000CD49486108614FF4007008610E
:100FE0004FF4807008614FF4007048614FF00000CA
:100FF000C54908604FF08000C449486108614FF45A
:10100000007008614FF4807008614FF4007048610F
:101010004FF00100BC4908604FF08000BB494861B7
:1010200008614FF4007008614FF4807008614FF45C
:10103000007048614FF03F00B34908604FF08000F6
:10104000B249486108614FF40070086131E0082D31
:101050001CD2DFE805F004070A0D0F12151844F042
:10106000300413E044F0100410E044F020040DE0DC
:1010700000BF0BE044F0380408E044F0280405E029
:1010800044F0180402E044F0080400BF00BFA14887
:101090000088A0F50941893904D1112646F24001A2
:1010A0000C4302E0032644F4805421463046FFF707
:1010B0005FFD70BD70B504460D462946204604F01C
:1010C00051FBFFF773FD4FF48070904908614000B9
:1010D0004861914800888C4908604FF080008B4936
:1010E000486108614FF40070086170BD70B5044636
:1010F00000250021084604F035FBFFF757FD00BF2F
:1011000010E04FF4807081490861400048617E48DA
:1011100004604FF08000486108614FF4007008617E
:1011200005F10105B5F5963FEBD370BD08B501217A
:10113000192003F0D6FE0121784803F0EEFC4FF4AD
:10114000F860ADF8000010208DF8030003208DF842
:10115000020069466D4803F011FC4FF4F8616B48DA
:1011600003F0B7FC4FF6FF70ADF800006946664823
:101170000C3803F003FC4FF6FF7163480C3803F0A2
:10118000A8FC322003F01EFA01210020FFF7F0FC3A
:10119000322003F017FA0020FFF700FD5D490880B8
:1011A0000846008828B108460088A0F57F41FF392D
:1011B00018D1D320FFF796FCFFF7A4FCFFF7A2FCA1
:1011C000FFF7A0FC00F0BF005249088008460088E5
:1011D0000006000C0880FFF795FC4E49098808437B
:1011E0004C4908804B4801884DA004F011F949484A
:1011F0000088A0F5134141397ED1CF20FFF772FC62
:101200004FF48070414908614000486100203E4928
:1012100008604FF080003D49486108614FF400705C
:1012200008614FF4807008614FF4007048614FF01E
:10123000C1003749C1F80C0C4FF0800033494861B8
:1012400008614FF4007008614FF4807008614FF43A
:10125000007048614FF030002B4908604FF080006B
:101260002A49486108614FF4007008614FF0ED00B1
:10127000FFF738FC4FF48070244908614000486152
:101280006420214908604FF08000204948610861CE
:101290004FF4007008614FF4807008614FF40070E3
:1012A00048614FF00300184908604FF0800017496B
:1012B000486108614FF4007008614FF48070086164
:1012C0004FF4007048614FF012000F4908604FF072
:1012D00080000E49486108614FF4007008614FF4C6
:1012E000807008614FF4007048614FF0810006493A
:1012F00008604FF0800000E0FEE3044948610861A7
:101300004FF40070086113E00C0C01400010014024
:10131000000001403E0000203A00002000023000A2
:10132000204C43442049443A25780D0A000000002F
:101330004FF0E800FFF7D6FB4FF48070FF490861DB
:10134000400048618520FE4908604FF08000FB495D
:10135000486108614FF4007008614FF480700861C3
:101360004FF4007048614FF01000F54908604FF0ED
:101370008000F249486108614FF4007008614FF441
:10138000807008614FF4007048614FF07A00EC49BA
:1013900008604FF08000E949486108614FF400702F
:1013A00008614FF0CB00FFF79DFB4FF48070E349DD
:1013B0000861400048613920E14908604FF0800031
:1013C000DE49486108614FF4007008614FF4807095
:1013D00008614FF4007048614FF02C00D849086054
:1013E0004FF08000D549486108614FF400700861F2
:1013F0004FF4807008614FF4007048614FF00000B6
:10140000CF4908604FF08000CC49486108614FF433
:10141000007008614FF4807008614FF400704861FB
:101420004FF03400C64908604FF08000C34948615E
:1014300008614FF4007008614FF4807008614FF448
:10144000007048614FF00200BD4908604FF0800015
:10145000BA49486108614FF4007008614FF0F70025
:10146000FFF740FB4FF48070B449086140004861C9
:101470002020B34908604FF08000B04948610861FE
:101480004FF4007008614FF0EA00FFF72BFB4FF4B8
:101490008070AA490861400048610020A84908609E
:1014A0004FF08000A549486108614FF40070086161
:1014B0004FF4807008614FF4007048614FF00000F5
:1014C0009F4908604FF080009C49486108614FF4D3
:1014D000007008614FF0C000FFF704FB4FF480700C
:1014E00096490861400048611B20954908604FF00B
:1014F00080009249486108614FF4007008614FF024
:10150000C100FFF7EFFA4FF480708C49086140008A
:10151000486101208A4908604FF08000874948618E
:1015200008614FF4007008614FF0C500FFF7DAFA68
:101530004FF4807081490861400048613020804943
:1015400008604FF080007D49486108614FF40070E9
:1015500008614FF4807008614FF4007048614FF0EB
:1015600030007849C1F80C0C4FF080007349486195
:1015700008614FF4007008614FF0C700FFF7B2FA3E
:101580004FF480706D49086140004861B7206C4994
:1015900008604FF080006949486108614FF40070AD
:1015A00008614FF03600FFF79DFA4FF480706349F1
:1015B0000861400048614820614908604FF08000A0
:1015C0005E49486108614FF4007008614FF03A00CD
:1015D000FFF788FA4FF4807058490861400048616D
:1015E0005520574908604FF0800054494861086110
:1015F0004FF4007008614FF0B100FFF773FA4FF439
:1016000080704E4908614000486100204C490860E4
:101610004FF080004949486108614FF4007008614B
:101620004FF4807008614FF4007048614FF01A0069
:10163000434908604FF080004049486108614FF419
:10164000007008614FF0B600FFF74CFA4FF480705D
:101650003A490861400048610A20394908604FF062
:1016600080003649486108614FF4007008614FF40A
:10167000807008614FF4007048614FF0A20030495B
:1016800008604FF080002D49486108614FF40070F8
:1016900008614FF0F200FFF725FA4FF480702749F8
:1016A0000861400048610020254908604FF0800033
:1016B0002249486108614FF4007008614FF026002C
:1016C000FFF710FA4FF480701C4908614000486130
:1016D00001201B4908604FF08000184948610861EB
:1016E0004FF4007008614FF0E000FFF7FBF94FF492
:1016F000807012490861400048610F20104908605D
:101700004FF080000D49486108614FF40070086196
:101710004FF4807008614FF4007048614FF02A0068
:10172000074908604FF080000449486108614FF4A0
:10173000007008614FF48070086105E000100140FE
:101740000C0C0140000001404FF4007048614FF064
:101750002800FF4908604FF08000FE494861086199
:101760004FF4007008614FF4807008614FF400700E
:1017700048614FF00800F64908604FF08000F549D5
:10178000486108614FF4007008614FF4807008618F
:101790004FF4007048614FF00E00ED4908604FF0C3
:1017A0008000EC49486108614FF4007008614FF413
:1017B000807008614FF4007048614FF00800E44900
:1017C00008604FF08000E349486108614FF4007001
:1017D00008614FF4807008614FF4007048614FF069
:1017E0005400DB4908604FF08000DA494861086125
:1017F0004FF4007008614FF4807008614FF400707E
:1018000048614FF0A900D24908604FF08000D149EB
:10181000486108614FF4007008614FF480700861FE
:101820004FF4007048614FF04300C94908604FF021
:101830008000C849486108614FF4007008614FF4A6
:10184000807008614FF4007048614FF00A00C04991
:1018500008604FF08000BF49486108614FF4007094
:1018600008614FF4807008614FF4007048614FF0D8
:101870000F00B74908604FF08000B6494861086121
:101880004FF4007008614FF4807008614FF40070ED
:1018900048614FF00000B049C1F80C0C4FF08000D7
:1018A000AC49486108614FF4007008614FF48070E2
:1018B00008614FF4007048614FF00000A4490860CF
:1018C0004FF08000A349486108614FF4007008613F
:1018D0004FF4807008614FF4007048614FF00000D1
:1018E0009B4908604FF080009A49486108614FF4B5
:1018F000007008614FF4807008614FF40070486117
:101900004FF00000924908604FF080009149486113
:1019100008614FF4007008614FF0E100FFF7E2F852
:101920004FF480708B49086140004861002088496D
:1019300008604FF080008749486108614FF40070EB
:1019400008614FF4807008614FF4007048614FF0F7
:1019500015007F4908604FF080007E4948610861AA
:101960004FF4007008614FF4807008614FF400700C
:1019700048614FF01700764908604FF080007549C4
:10198000486108614FF4007008614FF4807008618D
:101990004FF4007048614FF007006D4908604FF048
:1019A00080006C49486108614FF4007008614FF491
:1019B000807008614FF4007048614FF01100644975
:1019C00008604FF080006349486108614FF400707F
:1019D00008614FF4807008614FF4007048614FF067
:1019E00006005B4908604FF080005A494861086171
:1019F0004FF4007008614FF4807008614FF400707C
:101A000048614FF02B00524908604FF08000514967
:101A1000486108614FF4007008614FF480700861FC
:101A20004FF4007048614FF05600494908604FF08C
:101A300080004849486108614FF4007008614FF424
:101A4000807008614FF4007048614FF03C004049DD
:101A500008604FF080003F49486108614FF4007012
:101A600008614FF4807008614FF4007048614FF0D6
:101A70000500374908604FF0800036494861086129
:101A80004FF4007008614FF4807008614FF40070EB
:101A900048614FF010002E4908604FF080002D493A
:101AA000486108614FF4007008614FF4807008616C
:101AB0004FF4007048614FF00F00254908604FF067
:101AC00080002449486108614FF4007008614FF4B8
:101AD000807008614FF4007048614FF03F001C496E
:101AE00008604FF080001B49486108614FF40070A6
:101AF00008614FF4807000E0CAE008614FF40070A4
:101B000048614FF03F00124908604FF080001149D2
:101B1000486108614FF4007008614FF480700861FB
:101B20004FF4007048614FF00F00094908604FF012
:101B300080000849486108614FF4007008614FF067
:101B40002B00FEF7CFFF4FF480700249086105E0DB
:101B50000C0C0140001001400000014040004861B1
:101B60000020FD4908604FF08000FC494861086191
:101B70004FF4007008614FF4807008614FF40070FA
:101B800048614FF00000F44908604FF08000F349CD
:101B9000486108614FF4007008614FF4807008617B
:101BA0004FF4007048614FF00100ED49C1F80C0C92
:101BB0004FF08000E949486108614FF40070086106
:101BC0004FF4807008614FF4007048614FF03F009F
:101BD000E14908604FF08000E049486108614FF436
:101BE000007008614FF02A00FEF77CFF4FF4807010
:101BF000DA490861400048610020D74908604FF089
:101C00008000D649486108614FF4007008614FF4C4
:101C1000807008614FF4007048614FF00000CE49B9
:101C200008604FF08000CD49486108614FF40070B2
:101C300008614FF4807008614FF4007048614FF004
:101C40000000C54908604FF08000C4494861086140
:101C50004FF4007008614FF4807008614FF4007019
:101C600048614FF0EF00BC4908604FF08000BB496D
:101C7000486108614FF4007008614FF01100FEF7F1
:101C800031FF782002F09EFC2920FEF72BFFAAE20C
:101C9000B4480088A0F5134125397ED147F6F001FC
:101CA000E520FEF765FF4FF480710120FEF760FF2D
:101CB0004FF4E0610220FEF75BFF41F230010320A8
:101CC000FEF756FF00210420FEF752FF40F20221EA
:101CD0000820FEF74DFF00210920FEF749FF0021F3
:101CE0000A20FEF745FF00210C20FEF741FF0021EE
:101CF0000D20FEF73DFF00210F20FEF739FF0021E8
:101D00001020FEF735FF07211120FEF731FF0021DB
:101D10001220FEF72DFF00211320FEF729FF0021DE
:101D20000720FEF725FF41F290611020FEF720FF0B
:101D300040F227211120FEF71BFF9D211220FEF704
:101D400017FF4FF4C8511320FEF712FF2521292059
:101D5000FEF70EFF0D212B20FEF70AFF0721302092
:101D6000FEF706FF40F203313120FEF701FF0321A9
:101D70003220FEF7FDFE40F206213520FEF7F8FE88
:101D800008213620FEF7F4FE40F206413720FEF728
:101D9000EFFE4FF44171382000E057E0FEF7E8FE17
:101DA00007213920FEF7E4FE40F202613C20FEF7F5
:101DB000DFFE08213D20FEF7DBFE00215020FEF76C
:101DC000D7FEEF215120FEF7D3FE00215220FEF76F
:101DD000CFFE40F23F115320FEF7CAFE4FF42741D9
:101DE0006020FEF7C5FE01216120FEF7C1FE002143
:101DF0006A20FEF7BDFE00218020FEF7B9FE00211B
:101E00008120FEF7B5FE00218220FEF7B1FE002101
:101E10008320FEF7ADFE00218420FEF7A9FE0021FD
:101E20008520FEF7A5FE10219020FEF7A1FE4FF4BD
:101E3000C0619220FEF79CFE40F233110720FEF7AE
:101E400097FE22210020FEF793FECCE14548008852
:101E5000A0F5134128397ED11021E720FEF788FE36
:101E600001210020FEF784FE4FF480710120FEF76F
:101E70007FFE4FF4E0610220FEF77AFE41F230016E
:101E80000320FEF775FE00210420FEF771FE40F2EC
:101E900007210820FEF76CFE00210920FEF768FEEE
:101EA00000210A20FEF764FE01210C20FEF760FEEF
:101EB00000210D20FEF75CFE00210F20FEF758FEEA
:101EC00000211020FEF754FE07211120FEF750FEDE
:101ED00000211220FEF74CFE00211320FEF748FEE1
:101EE000322002F06FFB41F290511020FEF740FECD
:101EF00040F227211120FEF73BFE322002F062FB68
:101F00009C211220FEF734FE322002F05BFB4FF4DE
:101F1000C8511320FEF72CFE23212920FEF728FEAE
:101F20000E212B20FEF724FE322002F04BFB002175
:101F30002020FEF71DFE40F23F112120FEF718FE83
:101F4000322002F03FFB07213020FEF711FE40F265
:101F50000771312008E08EE00C0C014000100140B8
:101F6000000001403E000020FEF702FE0621322064
:101F7000FEF7FEFD40F204713520FEF7F9FD41F653
:101F800004713620FEF7F4FD04213720FEF7F0FD42
:101F900000213820FEF7ECFD40F206713920FEF7F3
:101FA000E7FD40F201713C20FEF7E2FD0F213D20EC
:101FB000FEF7DEFD322002F005FB00215020FEF787
:101FC000D7FDEF215120FEF7D3FD00215220FEF76F
:101FD000CFFD40F23F115320FEF7CAFD4FF42741D9
:101FE0006020FEF7C5FD01216120FEF7C1FD002143
:101FF0006A20FEF7BDFD00218020FEF7B9FD00211B
:102000008120FEF7B5FD00218220FEF7B1FD002101
:102010008320FEF7ADFD00218420FEF7A9FD0021FD
:102020008520FEF7A5FD10219020FEF7A1FD0021DF
:102030009220FEF79DFD03219320FEF799FD4FF4BA
:1020400088719520FEF794FD00219720FEF790FD02
:1020500000219820FEF78CFD40F233110720FEF797
:1020600087FD00212020FEF783FD40F23F11212053
:10207000FEF77EFDB7E0FF480088A0F51341203948
:1020800004D0FC480088B0F5134F7ED100210846EB
:10209000FEF76EFD4FF480710120FEF769FD4FF4ED
:1020A000E0610220FEF764FD41F230010320FEF7FB
:1020B0005FFD00210420FEF75BFD40F202210820B5
:1020C000FEF756FD00210920FEF752FD00210A20EF
:1020D000FEF74EFD01210C20FEF74AFD00210D20E8
:1020E000FEF746FD00210F20FEF742FD322002F0F0
:1020F00069FA40F201110720FEF73AFD322002F0A2
:1021000061FA4FF486511020FEF732FD07211120AD
:10211000FEF72EFD4FF488711220FEF729FD4FF4D3
:1021200030611320FEF724FD00212920FEF720FD59
:1021300044F210012B20FEF71BFD00215020FEF77A
:1021400017FDEF215120FEF713FD00215220FEF76D
:102150000FFD40F23F115320FEF70AFD4FF41C51D2
:102160006020FEF705FD01216120FEF701FD002141
:102170006A20FEF7FDFC00218020FEF7F9FC00211B
:102180008120FEF7F5FC002100E02DE08220FEF723
:10219000EFFC00218320FEF7EBFC00218420FEF7FA
:1021A000E7FC00218520FEF7E3FC10219020FEF7DC
:1021B000DFFC00219220FEF7DBFC01219320FEF7DB
:1021C000D7FC4FF488719520FEF7D2FC00219720B0
:1021D000FEF7CEFC00219820FEF7CAFC40F27311F6
:1021E0000720FEF7C5FCCEE2A2480088A0F5A84172
:1021F00008397ED14FF480710120FEF7B9FC4FF40D
:10220000E0610220FEF7B4FC41F230010320FEF74A
:10221000AFFC00210420FEF7ABFC40F207210820B0
:10222000FEF7A6FC00210920FEF7A2FC00210A20EF
:10223000FEF79EFC00210C20FEF79AFC00210D20E9
:10224000FEF796FC00210F20FEF792FC142002F00E
:10225000B9F941F2B0611020FEF78AFC012111208A
:10226000FEF786FC01211720FEF782FC4FF49C71DB
:102270001220FEF77DFC4FF400611320FEF778FC7E
:1022800009212920FEF774FC09212A20FEF770FCA1
:102290000021A420FEF76CFC00215020FEF768FC12
:1022A000EF215120FEF764FC00215220FEF760FC74
:1022B00040F23F115320FEF75BFC4FF41C516020AD
:1022C000FEF756FC01216120FEF752FC00216A2036
:1022D000FEF74EFC00218020FEF74AFC0021812001
:1022E000FEF746FC00218220FEF742FC00218320FD
:1022F00000E023E0FEF73CFC00218420FEF738FCE0
:1023000000218520FEF734FC13219020FEF730FCDD
:1023100000219220FEF72CFC03219320FEF728FCDD
:102320004FF488719520FEF723FC40F273110720CB
:10233000FEF71EFC322002F045F924E24D480088E9
:10234000A0F5A85105397ED10720FEF711FC3220F7
:1023500002F038F94FF48E711220FEF709FC0121CA
:10236000A420FEF705FC0F210820FEF701FC082140
:102370000A20FEF7FDFB08210D20FEF7F9FB40F2D5
:1023800007713020FEF7F4FB07213120FEF7F0FB48
:1023900040F203613220FEF7EBFB4FF4E0613320A3
:1023A000FEF7E6FB40F202213420FEF7E1FB0221BA
:1023B0003520FEF7DDFB41F60F713620FEF7D8FB26
:1023C00040F207713720FEF7D3FB00213820FEF7DB
:1023D000CFFB00213920FEF7CBFB40F207713A20FA
:1023E000FEF7C6FB00213B20FEF7C2FB07213C2085
:1023F000FEF7BEFB00213D20FEF7BAFB322002F0C3
:10240000E1F801210720FEF7B3FB01211720FEF7B9
:10241000AFFB322002F0D6F84FF4BD511020FEF78A
:10242000A7FB40F217211120FEF7A2FB4FF48F719A
:102430001220FEF79DFB4FF470611320FEF798FB0E
:1024400000212A2000E096E0FEF792FB0A212920D5
:10245000FEF78EFB4FF49F711220FEF789FB0021DF
:102460005020FEF785FBEF215120FEF781FB002174
:10247000522001E03E000020FEF77AFB40F23F11BF
:102480005320FEF775FB4FF41C516020FEF770FBE4
:1024900001216120FEF76CFB00216A20FEF768FB3A
:1024A00000218020FEF764FB00218120FEF760FB05
:1024B00000218220FEF75CFB00218320FEF758FB01
:1024C00000218420FEF754FB00218520FEF750FBFD
:1024D00013219020FEF74CFB4FF440719220FEF741
:1024E00047FB05219320FEF743FB00219520FEF7D3
:1024F0003FFB00219720FEF73BFB00219820FEF7D1
:1025000037FB4FF480710120FEF732FB4FF4E0619E
:102510000220FEF72DFB41F230010320FEF728FBDD
:1025200000210420FEF724FB00210C20FEF720FBF5
:1025300000210F20FEF71CFB00212020FEF718FBD6
:1025400000212120FEF714FB21210720FEF710FBBC
:10255000142002F037F861210720FEF709FB142050
:1025600002F030F840F273110720FEF701FB14204F
:1025700002F028F807E1FF480088A0F53541053949
:102580007DD10846FEF7F4FA00210846FEF7F0FA7E
:1025900000210846FEF7ECFA00210846FEF7E8FAAB
:1025A0000121A420FEF7E4FA142002F00BF84FF406
:1025B0001C516020FEF7DCFA40F202210820FEF7F1
:1025C000D7FA4FF405713020FEF7D2FA43F21571B5
:1025D0003120FEF7CDFA40F204613220FEF7C8FA4E
:1025E00040F616613320FEF7C3FA42F2112134207F
:1025F000FEF7BEFA4FF4A8513520FEF7B9FA48F2BB
:1026000007513620FEF7B4FA41F207413720FEF7B2
:10261000AFFA41F203413820FEF7AAFA202139200F
:10262000FEF7A6FA1A219020FEF7A2FA0021102048
:10263000FEF79EFA07211120FEF79AFA00211220D8
:10264000FEF796FA00211320FEF792FA142001F00B
:10265000B9FF4FF4E6611020FEF78AFA40F2371115
:102660001120FEF785FA142001F0ACFF4FF4DC7165
:102670001220FEF77DFA142001F0A4FF00E083E0B1
:102680004FF470611320FEF773FA80212A20FEF7C1
:102690006FFA48212920FEF76BFA142001F092FF0F
:1026A0004FF480710120FEF763FA4FF4E0610220DD
:1026B000FEF75EFA41F230210320FEF759FA40F2AC
:1026C00002210820FEF754FA00210A20FEF750FAF2
:1026D00000210C20FEF74CFA00210D20FEF748FAED
:1026E00030210E20FEF744FA00215020FEF740FA78
:1026F000EF215120FEF73CFA00215220FEF738FA74
:1027000040F23F115320FEF733FA4FF41C51602082
:10271000FEF72EFA01216120FEF72AFA00216A2035
:10272000FEF726FA11219020FEF722FA4FF4C0613D
:102730009220FEF71DFA40F202419320FEF718FAAC
:1027400002219420FEF714FA142001F03BFF01212E
:102750000720FEF70DFA142001F034FF6121072055
:10276000FEF706FA40F273110720FEF701FA002186
:102770002020FEF7FDF900212120FEF7F9F92221A2
:102780000020FEF7F5F914E37A480088A0F54541EA
:1027900005397DD10846FEF7EBF900210846FEF722
:1027A000E7F9142001F00EFF00210846FEF7E0F9DA
:1027B00000210846FEF7DCF900210846FEF7D8F9AB
:1027C00000210846FEF7D4F90121A420FEF7D0F934
:1027D000142001F0F7FE4FF41C516020FEF7C8F9F9
:1027E00040F606010820FEF7C3F940F203713020DD
:1027F000FEF7BEF901213120FEF7BAF9042132209B
:10280000FEF7B6F94FF481713320FEF7B1F94FF4BA
:1028100040713420FEF7ACF940F203113520FEF789
:10282000A7F91F213620FEF7A3F940F203713720E4
:10283000FEF79EF901213820FEF79AF9042139208C
:10284000FEF796F915219020FEF792F94FF4826178
:102850001020FEF78DF940F247211120FEF788F98C
:102860004FF4DE711220FEF783F94FF460611320FC
:10287000FEF77EF9782001F0A5FE4FF4807101206B
:10288000FEF776F94FF400710220FEF771F900E0CF
:1028900050E041F230010320FEF76AF908210A20D6
:1028A000FEF766F900210C20FEF762F920210E20C8
:1028B000FEF75EF900210F20FEF75AF900212020D3
:1028C000FEF756F900212120FEF752F93D212A207A
:1028D000FEF74EF9142001F075FE2D212920FEF798
:1028E00047F900215020FEF743F94DF2EF01512046
:1028F000FEF73EF900215220FEF73AF940F23F116F
:102900005320FEF735F900216120FEF731F900214F
:102910006A20FEF72DF94FF440719220FEF728F956
:1029200005219320FEF724F94FF480710720FEF76C
:102930001FF93EE20F480088A0F5094189397ED190
:1029400001210020FEF714F94AF6A4010320FEF746
:102950000FF900210C20FEF70BF940F60C010D20B9
:10296000FEF706F94FF42C510E20FEF701F9B021C5
:102970001E2001E03E000020FEF7FAF842F63F314B
:102980000120FEF7F5F84FF4C0610220FEF7F0F8E1
:1029900000211020FEF7ECF846F270011120FEF73E
:1029A000E7F800210520FEF7E3F800210620FEF7F6
:1029B000DFF84EF61C711620FEF7DAF80321172017
:1029C000FEF7D6F840F233210720FEF7D1F80021B8
:1029D0000B20FEF7CDF800210F20FEF7C9F80021EB
:1029E0004120FEF7C5F800214220FEF7C1F8002182
:1029F0004820FEF7BDF840F23F114920FEF7B8F835
:102A000000214A20FEF7B4F800214B20FEF7B0F871
:102A10004FF46F414420FEF7ABF800214520FEF74C
:102A2000A7F840F23F114620FEF7A2F840F20771E6
:102A30003020FEF79DF84FF40171312000E03FE0B7
:102A4000FEF796F84FF401713220FEF791F840F24C
:102A500002513320FEF78CF840F207513420FEF784
:102A600087F84FF401713520FEF782F84FF40171B9
:102A70003620FEF77DF840F202513720FEF778F855
:102A800040F202313A20FEF773F840F202313B2067
:102A9000FEF76EF800212320FEF76AF800212420BB
:102AA000FEF766F84FF400412520FEF761F800219B
:102AB0004F20FEF75DF800214E20FEF759F878E12F
:102AC000FF480088A0F58A4131397ED101210020DC
:102AD000FEF74EF80A2001F075FD41F22861102042
:102AE000FEF746F80E211220FEF742F840F6392193
:102AF0001320FEF73DF80A2001F064FD402111206B
:102B0000FEF736F850211520FEF732F80A2001F0C2
:102B100059FD1E211220FEF72BF80A2001F052FD6C
:102B20004FF4B1511020FEF723F842F6392113205B
:102B3000FEF71EF80A2001F045FD4FF480710120D8
:102B4000FEF716F84FF440710220FEF711F841F23B
:102B500030010320FEF70CF840F202210820FEF7B6
:102B600007F808210A20FEF703F800213020FDF7BE
:102B7000FFFF40F202413120FDF7FAFF4FF483716D
:102B80003220FDF7F5FF40F203513320FDF7F0FF4F
:102B90004FF482713420FDF7EBFF40F20131352014
:102BA000FDF7E6FF40F207713620FDF7E1FF40F246
:102BB00005313720FDF7DCFF4FF402713820FDF7B7
:102BC000D7FF40F60B71392000E03BE0FDF7D0FF66
:102BD00002214120FDF7CCFF4FF41C516020FDF78E
:102BE000C7FF01216120FDF7C3FF4FF4047190205E
:102BF000FDF7BEFF4FF485719220FDF7B9FF042168
:102C00009320FDF7B5FF4FF48071A020FDF7B0FFD2
:102C100001210720FDF7ACFF21210720FDF7A8FFC8
:102C200023210720FDF7A4FF33210720FDF7A0FF94
:102C300040F233110720FDF79BFF0021A020FDF794
:102C400097FFB6E09E480088A0F58A4135397ED1CD
:102C500030211520FDF78CFF10219A20FDF788FF09
:102C600020211120FDF784FF43F228411020FDF7B9
:102C70007FFF02211220FDF77BFF41F23801132074
:102C8000FDF776FF282001F09DFC12210846FDF794
:102C90006FFF282001F096FC43F220411020FDF741
:102CA00067FF43F238011320FDF762FF462001F071
:102CB00089FC00213020FDF75BFF40F2024131200A
:102CC000FDF756FF40F207313220FDF751FF4FF478
:102CD00041713320FDF74CFF04213420FDF748FFFC
:102CE00040F201413520FDF743FF40F207713620E5
:102CF000FDF73EFF40F205313720FDF739FF4FF475
:102D0000C2613820FDF734FF4FF4C2613920FDF76E
:102D10002FFF4FF480710120FDF72AFF4FF440711F
:102D20000220FDF725FF41F230010320FDF720FFCF
:102D300040F608010820FDF71BFF08210A20FDF7D7
:102D400017FF4FF41C516020FDF712FF00E030E048
:102D500001216120FDF70CFF4FF49F719020FDF7DA
:102D600007FF4FF480719220FDF702FF4FF480714E
:102D70009320FDF7FDFE4FF44051A020FDF7F8FE33
:102D80001021A320FDF7F4FE01210720FDF7F0FE3E
:102D900021210720FDF7ECFE23210720FDF7E8FEA7
:102DA00033210720FDF7E4FE40F233110720FDF741
:102DB000DFFE0020FDF7D6FF0120424908604FF6F4
:102DC000FF70FEF793F908BD2DE9F05F05460E464A
:102DD00017469846DDF828A04FF0000B0020FDF7BD
:102DE000C1FF781B401C1FFA80FB34461EE02146C1
:102DF000284602F0B7FCFDF7D9FE4FF0000911E0BC
:102E00004FF4807030490861400048612F48C0F895
:102E10000CAC8020486108618000086109F1010064
:102E20001FFA80F9D945EBDB601C84B24445DEDD36
:102E30000020FDF797FFBDE8F09F2DE9FF4F85B01B
:102E400081468A460020049003900798A0EB09056C
:102E50000898A0EB0A06CDF80890CDF804A0002D44
:102E600001DD012705E00DB9002702E04FF0FF3733
:102E70006D42002E02DD4FF0010806E016B94FF05A
:102E8000000802E04FF0FF387642B54201DD2C46E3
:102E900000E034464FF0000B2AE0019881B202981E
:102EA00080B2FEF707F90498284404900398304450
:102EB00003900498A0420EDD0498001B049007E0E4
:102EC0003E000020A8012242001001400000014005
:102ED0000298384402900398A04205DD0398001B35
:102EE00003900198404401900BF101001FFA80FB10
:102EF000601C8345D1DD09B0BDE8F08F2DE9F041BC
:102F000004460D4616461F462B46324629462046A5
:102F1000FFF793FF3B46224629462046FFF78DFFE9
:102F20003B46324639462046FFF787FF3B4632464E
:102F300029463046FFF781FFBDE8F0812DE9F047D3
:102F400006460F469046002445460320A0EB48095C
:102F500048E03A1B91B2721B90B2FEF7ABF83A1BF5
:102F600091B2721990B2FEF7A5F87A1991B2321B9C
:102F700090B2FEF79FF83A1B91B2721B90B2FEF727
:102F800099F87A1B91B2321B90B2FEF793F83A1976
:102F900091B2721990B2FEF78DF87A1B91B2321984
:102FA00090B2FEF787F87A1991B2321990B2FEF713
:102FB00081F83A1991B2721B90B2FEF77BF8641C4B
:102FC000B9F1000F03DAA000801D814404E0601B0A
:102FD00080000A3081446D1E7A1991B2321990B284
:102FE000FEF768F8AC42B4DDBDE8F0872DE9FF4F8D
:102FF00081B00746894616461D46BB469448008860
:103000000090E82F02DCB9F59C7F02DD05B0BDE839
:10301000F08FA6F12000C6B20E98C8BB002434E0A1
:103020000C2D07D106EB46008A4901EB800010F811
:1030300004A004E0884800EB061010F804A04FF04C
:10304000000816E01AF0010F03D0814900980880AB
:1030500003E0824800887E49088049463846FEF7EA
:1030600029F84FEA6A0A781C87B208F1010000F0DB
:10307000FF0805EBD571B8EB610FE3DB5F4609F1A3
:1030800001001FFA80F9601CC4B2AC42C8DB2EE01C
:10309000FFE7002429E00C2D07D106EB46006D491F
:1030A00001EB800010F804A004E06B4800EB061070
:1030B00010F804A04FF0000810E01AF0010F07D03C
:1030C00009EB040291B207EB080290B2FDF7F2FFA0
:1030D0004FEA6A0A08F1010000F0FF0805EBD5711C
:1030E000B8EB610FE9DB601CC4B2AC42D3DB5849DA
:1030F0000098088000BF89E710B50246012000E073
:1031000050430B00A1F10104E1B2F9D110BD2DE94A
:10311000FF4F81B0074691461E460E9D4FF0000AB4
:1031200000243BE0301B401EC1B20A20FFF7E4FF41
:10313000B9FBF0F00A21B0FBF1F201FB120000F044
:10314000FF08BAF1000F16D1701EA04213DDB8F1CE
:10315000000F0ED10023AB4605EBD571491001FBE2
:10316000047188B200932B4620220299FFF73EFF9C
:1031700012E04FF0010A0023AB4605EBD571491070
:1031800001FB047188B200932B4608F13001CAB2EA
:103190000299FFF72BFF00BF601CC4B2B442C1DB31
:1031A00005B0BDE8F08F2DE9FF4F81B007468A4694
:1031B00090461D460E9E002420E0281B401EC1B2F2
:1031C0000A20FFF799FFB8FBF0F00A21B0FBF1F2FB
:1031D00001FB120000F0FF090F9BB34606EBD6710E
:1031E000491001FB047188B20093334609F13001A4
:1031F000CAB25146FFF7FAFE601CC4B2AC42DCDB37
:1032000005B0BDE8F08FF8B505460E4614461BE044
:10321000E82D03DD002506F1100086B2B6F59C7F8F
:1032200006DD0020054606464FF6FF70FDF75EFFFF
:10323000002300932278102331462846FFF7D6FE5C
:1032400005F1080085B2641C20780028E0D1F8BDA3
:103250003A0000205E580008D25C00083C000020C4
:1032600008B50121102001F03CFE3020ADF800002F
:1032700010208DF8030003208DF8020069468F4866
:1032800001F07CFB01208E4908608E49C1F8900155
:1032900008BD10B58948006820F47020874908608F
:1032A0000846006840F44030086001208649086004
:1032B0008449C1F894014FF0040001F09EF9002008
:1032C000814908604FF0040001F097F900207D4922
:1032D000C1F8940110BD10B57848006820F4702042
:1032E000764908600846006840F4403008600020D5
:1032F000734908607349C1F890014FF0040001F070
:103300007CF901206E4908606E49C1F890014FF0C8
:10331000040001F072F910BD10B500246748006880
:1033200020F47020654908600846006840F40020D9
:10333000086001206449086001F05FF901206149DB
:10334000C1F8940101F059F907E0601CC4B2FA2CED
:1033500003DDFFF7C0FF012010BD5C4800680028B6
:10336000F3D15749086000BFF6E710B50020544973
:1033700008605248006820F47020504908600846F0
:10338000006840F4403008604FF000004D49C1F83B
:1033900090014FF0020001F030F901204849086027
:1033A0004FF0020001F029F900204649C1F89401CC
:1033B00010BD10B50020424908604048006820F464
:1033C00070203E4908600846006840F440300860BC
:1033D0004FF001003B49C1F890014FF0020001F0AD
:1033E0000CF90120364908604FF0020001F005F9A0
:1033F00000203449C1F8940110BD70B504462F482F
:10340000006820F470202D4908600846006840F4E8
:103410004030086000202A49086005461AE0E009AB
:10342000294908604FEA44604FEA10644FF00200F7
:1034300001F0E3F801202349C1F89401022001F0D2
:10344000DCF800201E4908604FF0010001F0D5F8BB
:10345000681CC5B2082DE2DB70BD70B505460024BE
:103460001648006820F47020144908600846006877
:1034700040F400200860002616E000201049086093
:103480004FF0020001F0B9F801200E49C1F8940193
:10349000022001F0B2F86006040E0C48006808B182
:1034A000601CC4B2701CC6B2082EE6DB15B9FFF76B
:1034B00080FF01E0FFF759FF204670BD001001407A
:1034C0009401224200002242900122421001224235
:1034D00010B5FFF7C5FE10BD70B504460025FFF717
:1034E000D8FEFF2094FBF0F0682101EB4000C6B24B
:1034F0003046FFF782FFFFF70FFFFF2094FBF0F14C
:1035000000FB1140C6B23046FFF777FFFFF704FF1C
:10351000FFF7BFFE6920FFF770FFFFF7FDFE0020F9
:10352000FFF79BFF0546FFF7D6FE284670BD70B536
:1035300004460D46FFF7ADFEFF2094FBF0F0682136
:1035400001EB4000C6B23046FFF757FFFFF7E4FE3D
:10355000FF2094FBF0F100FB1140C6B23046FFF7AC
:103560004CFFFFF7D9FE2846FFF747FFFFF7D4FED1
:10357000FFF7B1FE0A2001F025F870BD2DE9F041FA
:1035800005460E461746002409E0E20026FA02F23C
:10359000D1B22A1990B2FFF7CAFF601CC4B2BC4274
:1035A000F3DBBDE8F0812DE9F04107460C4600262B
:1035B000002509E036023919491B491E88B2FFF778
:1035C0008BFF0644681CC5B2A542F3DB3046BDE85C
:1035D000F08170B506460C46154608E03046721C70
:1035E00096B2FFF779FF04F8010B681E85B2002D33
:1035F000F4D170BD70B505460C46164606E021783C
:103600002846FFF794FF681C85B2641C3000A6F1C1
:1036100001018EB2F3D170BD10B50446052C1DD248
:10362000DFE804F003080D1217000421122000F057
:1036300071FF15E00821122000F06CFF10E002215C
:10364000122000F067FF0BE00121122000F062FF62
:1036500006E01021122000F05DFF01E0002010BD07
:1036600000BF0120FBE710B50446052C1DD2DFE8A2
:1036700004F003080D1217000421122000F060FF6F
:1036800015E00821122000F05BFF10E0022112205B
:1036900000F056FF0BE00121122000F051FF06E080
:1036A0001021122000F04CFF01E0002010BD00BFEF
:1036B0000120FBE770B505460C460026052D7ED29D
:1036C000DFE805F0031C344C6400B4F5E16F01DD64
:1036D000012000E0002040F6E44188420DDAA4F524
:1036E000E160642190FBF1F0C6B23007010EF022D8
:1036F000282000F03AFF012070BD62E0B4F5E16FD0
:1037000001DD012000E0002040F6E44188420CDAAF
:10371000A4F5E160642190FBF1F0C6B20F223146BE
:10372000282000F022FF0120E6E74AE0B4F52F7FD1
:1037300001DD012000E0002040F6AC5188420CDAA7
:10374000A4F52F70192190FBF1F0C6B27F2231460B
:10375000272000F00AFF0120CEE732E0B4F52F7FEA
:1037600001DD012000E0002040F6AC5188420CDA77
:10377000A4F52F70192190FBF1F0C6B27F223146DB
:10378000262000F0F2FE0120B6E71AE0B4F52F7F04
:1037900001DD012000E0002040F6E30188420DDA5F
:1037A000A4F52F70192190FBF1F0C6B25F223146CB
:1037B000232000F0DAFE01209EE700E001E0002077
:1037C0009AE700BF002097E738B50546052D52D28D
:1037D000DFE805F00313243342006946282000F097
:1037E0006FFE9DF80000040904EBC40000EB041018
:1037F0004FF4E16101EB80043FE06946282000F0CE
:103800005FFE9DF8000000F00F0404EBC40000EB25
:1038100004104FF4E16101EB80042EE0694627209B
:1038200000F04EFE9DF8000000F07F0404EBC400A1
:1038300000EB041000F52F741FE06946262000F00D
:103840003FFE9DF8000000F07F0404EBC40000EB95
:10385000041000F52F7410E06946232000F030FEBC
:103860009DF8000000F03F0404EBC40000EB0410DE
:1038700000F52F7401E0002400BF00BF204638BDD2
:1038800038B504466946122000F01AFE052C2CD2E9
:10389000DFE804F0030B131B23009DF8000010F079
:1038A000040F01D0012038BD20E09DF8000010F089
:1038B000080F01D00120F6E718E09DF8000010F095
:1038C000020F01D00120EEE710E09DF8000010F09B
:1038D000010F01D00120E6E708E09DF8000010F09C
:1038E000100F01D00120DEE700E000BF00BF002084
:1038F000D9E70000014640F24C4048434FF47A7249
:1039000090FBF2F07047014640F2A46048434FF448
:103910007A7290FBF2F0704701464FF4FA70484318
:103920004FF47A7290FBF2F07047014640F271203A
:1039300048434FF47A7290FBF2F07047014640F230
:10394000771048434FF47A7290FBF2F070477CB5E1
:1039500005460C466A460821562000F0CAFD9DF82F
:1039600000109DF8010061F31F1020819DF80210E6
:103970009DF8030061F31F1060819DF804109DF80D
:10398000050061F31F10A0819DF806109DF8070047
:1039900061F31F10E0816A460621782000F0A9FD3E
:1039A0009DF800109DF8010061F31F1020809DF824
:1039B00002109DF8030061F35F10A0809DF80410D1
:1039C0009DF8050061F35F10E0807CBD38B50446CA
:1039D0006A460221002000F08CFD9DF800009DF851
:1039E000011000EB012085B2C5F3803004F14004E2
:1039F0006070C5F340302070C5F3C0102071C5F36E
:103A000040106071C5F30010E071C5F38010A07123
:103A1000A079E17940EA01002072C5F3800060726C
:103A2000C5F34000A072C5F3C020E072C5F380204A
:103A300020734FEAD530607369464FF0330000F0D1
:103A40003FFD9DF80000C009A073A4F1400438BDFB
:103A500070B5044621462046FFF779FF25882846A1
:103A6000FFF748FF2065A088FFF756FF0646E0886D
:103A7000FFF752FF301A002808DDA088FFF74CFF3F
:103A80000646E088FFF748FF301A07E0E088FFF7B6
:103A900043FF0646A088FFF73FFF301A606525897F
:103AA0002846FFF730FFE06565892846FFF73DFFB0
:103AB0002066A5892846FFF726FF6066E589284627
:103AC000FFF73CFFA06694F8480018B9206D206706
:103AD000606D606770BD30B504463CB102FB03F019
:103AE0004FF47A7590FBF5F0081A30BD02FB03F035
:103AF0004FF47A7590FBF5F00844F6E7014641F281
:103B00003900814201DB6420704740F63C4081422D
:103B100001DA0020F8E740F6C940814206DAA1F652
:103B20003C408D2290FBF2F0C0B2EDE740F65650DB
:103B3000814207DAA1F6C9408D2290FBF2F0401CC9
:103B4000C0B2E1E740F6E350814209DAA1F65650EF
:103B500000EB40008D2290FBF2F0801CC0B2D3E756
:103B600040F62960814208DAA1F6E350400046227F
:103B700090FBF2F0401DC0B2C6E740F64C608142B7
:103B80000ADAA1F6296000EB40004000232290FBF6
:103B9000F2F0C01DC0B2B7E7B1F5676F09DAA1F660
:103BA0004C6000EB4000242290FBF2F00D30C0B2DC
:103BB000AAE740F6936081420ADAA1F5676000EB5C
:103BC00080004000232290FBF2F01030C0B29BE74F
:103BD00040F6B66081420ADAA1F6936000EB8000FD
:103BE0004000232290FBF2F01A30C0B28CE740F67E
:103BF000D96081420ADAA1F6B66000EB800040008D
:103C0000232290FBF2F02430C0B27DE740F6FC6046
:103C1000814209DAA1F6D960C0EBC000232290FBF3
:103C2000F2F02E30C0B26FE7B1F5726F08DAA1F68C
:103C3000FC60C000242290FBF2F03530C0B263E794
:103C400040F6667081420ADAA1F5726000EB40002E
:103C50008000462290FBF2F03D30C0B254E740F6BF
:103C6000AC7081420BDAA1F6667000EB400202EB09
:103C7000C000462290FBF2F04930C0B244E740F663
:103C8000F370814208DAA1F6AC70C000472290FBC5
:103C9000F2F05430C0B237E741F23900814208DA1D
:103CA000A1F6F370C000462290FBF2F05C30C0B287
:103CB0002AE7002028E738B504466A460221082092
:103CC00000F017FC9DF80100450094F849002B46D0
:103CD000D4E91412FFF7FFFEE066E06EFFF70EFF77
:103CE00038BDF8B504466A460221082000F001FC00
:103CF0009DF8010046002046FFF768FE2046FFF7CA
:103D0000A7FE94F8400020B9002020676067304685
:103D1000F8BD94F84800A0B3E088FFF7FDFD20B996
:103D2000A088FFF7F9FDC82804DC00202067606741
:103D30003046EDE794F8490020B90020206760671D
:103D40003046E5E7206F20B90020206760673046E5
:103D5000DEE7216F206D401A002803DD216F206D02
:103D6000401A02E0216D206F401A4FF47A714143EE
:103D7000626F606D1044002804DD626F606D104456
:103D800004E015E0626F606D1044404291FBF0F575
:103D90000020206760671E2D02DBB5F5B47F01DDD2
:103DA0003046B5E70121082000F0B4FB2846AFE714
:103DB0000020206760673046AAE7F8B5044694F80B
:103DC000410090B3A088FFF7A7FDC82846DD206D0D
:103DD000B0F5616F42DD606FB0F5C87F3EDB6946CC
:103DE000082000F06DFB9DF80000C0F3C00020B17A
:103DF0009DF8000010F0010F18D1FF48006802285C
:103E000014DB2046FFF76DFF05462E4605EBD57007
:103E1000C0F34701092000F04BFB0821084600F0E1
:103E200079FB0120F54908601BE017E09DF80000D0
:103E3000C0F3C00020B19DF8000010F0010F09D1BF
:103E4000ED480068022805DAEB480068401CEA49A2
:103E5000086006E00020E849086002E00020E6492A
:103E60000860F8BD38B519246946842000F028FBA5
:103E70009DF8000000F0C00000909DF80000801147
:103E800006D0012806D0022806D0032808D105E074
:103E9000192406E0322404E0642402E0C82400E08F
:103EA00000BF00BF204638BD2DE9FE4F01A9032009
:103EB00000F006FB9DF8040000F00F00032802D17B
:103EC0000120009001E00020009001AA0821B0200C
:103ED00000F00FFB0098E8B39DF8040000069DF881
:103EE000051000EB01409DF8061000EB01209DF845
:103EF00007104418E5179DF8080000069DF8091002
:103F000000EB01409DF80A1000EB01209DF80B101A
:103F10004618F717A21B65EB070000239A1A73EBEC
:103F2000000103DAA01B65EB070102E0301B67EB21
:103F300005014FF400630022A0FB038E01FB03E1A7
:103F400000FB0219FFF78EFFC0EB4011C1EB002A06
:103F5000524600E007E04FEAEA734046494601F066
:103F600032FA80463DE09DF8040000069DF80510F9
:103F700000EB01409DF8061000EB01209DF80710B2
:103F80004418E5179DF8080000069DF8091000EB9D
:103F900001409DF80A1000EB01209DF80B10461817
:103FA000F717A21B65EB070000239A1A73EB0001B9
:103FB00003DAA01B65EB070102E0301B67EB05018C
:103FC00080468946FFF74EFF4FF4616148434FEA50
:103FD000400A52464FEAEA734046494601F0F3F977
:103FE0008046A01B75EB070001DBC34602E0002002
:103FF000B0EB080B5846BDE8FE8F70B50446002CA8
:1040000002DB04F07F0507E0002C01DD204600E024
:104010006042C0B240F080052946062000F048FA10
:1040200070BD08B56946062000F04AFA9DF8000008
:10403000C00905D09DF8000000F07F00404208BD97
:104040009DF8000000F07F00F9E738B504466A46A5
:104050000221072000F04DFA2046E11704EB917190
:104060008C10802040EA2410C0B28DF800009DF82A
:10407000010000F00F008DF802009DF8020004F02E
:104080000F0140EA01108DF802009DF802008DF842
:1040900001006A460221072000F01AFA38BD38B53F
:1040A0006A460221072000F024FA9DF80000000172
:1040B0009DF8011000EB211414F4006F02D060058C
:1040C000C00C38BD4FF47A60FFF7BFFF4FF47A6041
:1040D000F7E708B56946B82000F0F2F99DF800004E
:1040E00040F0200000909DF8000000F0BF0000901C
:1040F0009DF80010B82000F0DBF99DF8000040F0BA
:10410000800000909DF8000000F0BF0000909DF836
:104110000010B82000F0CCF908BD2DE9FC5F044682
:104120004FF000080026B146A76F2046FFF74EFC6F
:104130002046FFF78DFC01A9082000F0C1F99DF889
:104140000400C0F3800B9DF80400C0F3400A9DF802
:10415000040000F0010000902046FFF7ACFD019044
:104160002046FFF72AFE2548006860B1E56F234826
:104170000068401C214908600846006803281BDBD2
:104180000020086018E09DF8040000F07F0594F816
:10419000400008B17F2D00D16425E06F281A002867
:1041A00002DDE06F281A01E0E06F401B052803DD07
:1041B0000121082000F0C4F9E5672046FFF774FEEE
:1041C0008046FFF72EFF0646FFF769FF8146BBF1E9
:1041D000000F71D0642008FB00F090FBF9F0304430
:1041E000A0670B2D16DA0098A0B1BAF1000F11D11B
:1041F0004FF0010A284603E0400000204400002060
:10420000FFF7FBFEA4480560FFF763FF02210820CB
:1042100000F080F9A06F642802DD6420A06704E04C
:10422000A06F002801DA0020A067622D1BDDA06FBF
:10423000632818DA94F84900012814D197480068D7
:1042400003280ADBA06F401CA067761C3046FFF7EE
:10425000D4FE00209149086008E090480068401CA6
:104260008E49086002E000208C49086041F2040198
:10427000E06E884221DBA06F64281EDA94F84900C2
:10428000D8B994F84800C0B194F84E00A8B1844859
:10429000006803280ADBA06F401CA067761C30462C
:1042A000FFF7ABFE00207E49086009E07C4800680B
:1042B000401C7B49086003E0AFE0002078490860BB
:1042C000092D12DDA06F0A280FDA94F8490060B9B1
:1042D000A06FB84208DA642008FB00F090FBF9F008
:1042E0003E1A3046FFF789FEA7670A2D1ADAA06F3B
:1042F000092817DD94F84900A0B96A480068032826
:104300000ADBA06F401EA067761E3046FFF775FEE1
:1043100000206449086008E062480068401C614968
:10432000086002E000205F490860012D12DDA06FE7
:1043300002280FDA94F8490060B9A06FB84208DA91
:10434000642008FB00F090FBF9F03E1A3046FFF7BE
:1043500054FEA767022D1ADAA06F012817DD94F822
:104360004900A0B95048006803280ADBA06F401E2E
:10437000A067761E3046FFF740FE00204A490860DD
:1043800008E049480068401C4749086002E00020F6
:104390004549086094F8490001280ED1A06F6428AF
:1043A0000BDB6320A067642008FB00F090FBF9F0B2
:1043B000C0F163063046FFF720FEBAF1000F4ED081
:1043C00094F8490040BBA06F642848D194F8480095
:1043D00010B3B8F1000F01DD404601E0C8F1000064
:1043E0002D490968C1F1640190FBF1F0642100FBE3
:1043F00001F94846FFF729FE4FF0000A0221082084
:1044000000F09EF8642008FB00F090FBF9F0C0F18A
:1044100064063046FFF7F1FD21E0A56741F2040193
:10442000206D88420ADB94F8410038B994F84800BE
:1044300020B194F84E0008B16420A06794F84100C0
:1044400020B1A06F642801DB6320A067A06FFFF795
:10445000D4FDFFF73EFE0421082000F05BF813486E
:104460000068042804DB0020206760670F490860AB
:1044700094F84800012805D10C480068401C0B49FD
:10448000086002E0002009490860A06FC01B00D04E
:10449000A76FBDE8FC9F0000480000204C000020F2
:1044A0005000002054000020580000205C00002034
:1044B00070B504460D462946A0B2FFF738F870BD26
:1044C00070B504460D46A0B2FFF706F8287070BD1F
:1044D0002DE9F04105460E461746002405E0395DFA
:1044E0002819FFF7E5FF601CC4B2B442F7DBBDE852
:1044F000F0812DE9F04105460E461746002405E0FF
:1045000039192819FFF7DCFF601CC4B2B442F7DB8D
:10451000BDE8F08138B505460C4669462846FFF7E8
:10452000CFFF9DF800002040A04208D09DF8000079
:10453000204300909DF800102846FFF7B9FF38BDD2
:1045400038B505460C4669462846FFF7B9FF9DF881
:104550000000204208D09DF80000A04300909DF884
:1045600000102846FFF7A4FF38BDF8B506460C46F4
:10457000154669463046FFF7A3FF9DF80000284026
:10458000A04209D09DF80000A843204300909DF868
:1045900000103046FFF78CFFF8BD000010B5044650
:1045A0006FF0040000F067F9E11704EB5171C910D6
:1045B0001F4A1170104600784FF47A7148431D4924
:1045C000088010BD01461B4A12884A434FF0E02381
:1045D0005A6100229A6101221A6100BF4FF0E02265
:1045E000106910F0010F02D010F4803FF6D00022C5
:1045F0004FF0E0231A619A61704701460C4A127825
:104600004A434FF0E0235A6100229A6101221A6165
:1046100000BF4FF0E022106910F0010F02D010F43B
:10462000803FF6D000224FF0E0231A619A61704774
:10463000600000206200002010B54FF4A06000F080
:10464000C1F810BD014600BF704700BF484A12883C
:1046500012F0400FFAD0C2B2464B1A80704710B524
:1046600086B00446012144F2050000F03AFC4FF404
:104670000070ADF8140003208DF8160018208DF896
:10468000170005A93C4800F079F94FF48060ADF8B7
:10469000140004208DF8170005A9374800F06EF9C2
:1046A00025208DF8000003208DF801008DF8020010
:1046B00001208DF80300684600F089F8019400207D
:1046C000ADF80800ADF80A00ADF80C00ADF8100028
:1046D0000C20ADF80E0001A9254800F0B0FC012225
:1046E00040F22551224800F042FD0121204800F00F
:1046F00032FD06B010BD10B540F225511C4800F047
:104700001EFE10B31A4800F09AFDC4B21B48007890
:1047100010F0800F2BD11948007810F0400F0CD00A
:104720000A2C03D000201549087020E013480078B7
:1047300040F080001149087019E00D2C06D10F4897
:10474000007840F040000D49087010E00B480078F8
:1047500000F03F000A490C5408480078401C074903
:104760000870084600783F2801DD0020087010BD61
:104770000038014004380140000801406400002076
:104780000C0100200948804709480047FEE7FEE782
:10479000FEE7FEE7FEE7FEE7FEE7FEE7FEE7FEE7F1
:1047A00004480549054A064B704700009D0800086B
:1047B000ED000008B0010020B0070020B003002089
:1047C000B003002036490143364A1160704770B586
:1047D000002100230F22C4784CB3324C246804F427
:1047E000E064C4F5E0644FEA1421C1F1040322FA45
:1047F00001F2447804FA03F1847804EA020444EAFA
:1048000001014FEA0111284C0678A155047804F003
:104810001F054FF0010404FA05F405784FEA651509
:104820004FF0E02606EB8505C5F8004109E0047865
:1048300004F01F050124AC401C4D0678761145F8A4
:10484000264070BD1A4A0A4002431A4B1A6070474C
:1048500041B1194A126842EA00024FF0E023C3F85E
:10486000102D07E0144A126822EA00024FF0E023FC
:10487000C3F8102D7047042808D14FF0E0210969D2
:1048800041F004014FF0E022116107E04FF0E02118
:10489000096921F004014FF0E02211617047000026
:1048A0000000FA050CED00E000E400E080E100E02B
:1048B00080FFFF1F08ED00E010ED00E010B504469A
:1048C000CA48844208D10121042000F024FB0021C1
:1048D000042000F020FB46E0C548844208D10121B5
:1048E000082000F018FB0021082000F014FB3AE03B
:1048F000C048844208D10121102000F00CFB0021A7
:10490000102000F008FB2EE0BB48844208D10121B2
:10491000202000F000FB0021202000F0FCFA22E023
:10492000B648844208D10121402000F0F4FA002169
:10493000402000F0F0FA16E0B148844208D101218D
:10494000802000F0E8FA0021802000F0E4FA0AE07C
:10495000AC48844207D10121801500F0DCFA002127
:10496000A01500F0D8FA10BD10B50121084600F0DE
:10497000D2FA0021012000F0CEFA10BD2DE9F0415D
:10498000024600250026002000230024002791F87D
:1049900003C00CF00F0591F803C01CF0100F03D0FA
:1049A00091F802C04CEA0505B1F800C01CF0FF0FF9
:1049B00031D0146800202BE04FF0010C0CFA00F30A
:1049C000B1F800C00CEA03069E4220D183004FF0EC
:1049D0000F0C0CFA03F7BC4305FA03FC4CEA040481
:1049E00091F803C0BCF1280F06D14FF0010C0CFA6E
:1049F00000FCC2F814C00AE091F803C0BCF1480FF3
:104A000005D14FF0010C0CFA00FCC2F810C0401C9C
:104A10000828D1D31460B1F800C0BCF1FF0F34DD19
:104A2000546800202EE000F1080C4FF0010808FA4D
:104A30000CF3B1F800C00CEA03069E4221D18300BA
:104A40004FF00F0C0CFA03F7BC4305FA03FC4CEAD9
:104A5000040491F803C0BCF1280F05D100F1080C43
:104A600008FA0CF8C2F8148091F803C0BCF1480FA2
:104A700007D100F1080C4FF0010808FA0CF8C2F851
:104A80001080401C0828CED35460BDE8F0814FF65A
:104A9000FF710180022181700421C17070470246BC
:104AA000002093680B4201D0012000E000207047F5
:104AB0000146886880B2704702460020D3680B42E6
:104AC00001D0012000E0002070470146C86880B294
:104AD000704701617047416170470AB1016100E0B0
:104AE00041617047C16070474FF480320A43826170
:104AF0008161826182698269704702460020424B6F
:104B000018684FF68073184040EA021008433E4B85
:104B1000186070473D49C8617047F0B50A460023E8
:104B200000240021002500F00046B6F1004F02D11C
:104B3000354EF16901E0344E7168C0F3034583B22C
:104B400000F44016B6F5401F08D121F070612E4EDA
:104B5000766826F070662C4F7E6012E000F48016B6
:104B6000B6F5801F06D1032606FA05F4A14341F0ED
:104B7000706106E0460D360103FA06F6B14341F0D6
:104B8000706122B1460D360103FA06F6314300F09A
:104B90000046B6F1004F02D11B4EF16101E01A4E02
:104BA0007160F0BD30B500228B071C0F0F2303FA94
:104BB00004F2154B08338C1053F824309343124CF5
:104BC00008348D1044F8253023468C1053F82430D7
:104BD0008C07240F00FA04F423430B4C08348D1087
:104BE00044F8253030BD0A4908607047000801408C
:104BF000000C014000100140001401400018014069
:104C0000001C014000200140000001400000204243
:104C1000DC002042DB48006840F00100D949086010
:104C200008464068D8490840D649486008460068A8
:104C3000D6490840D34908600846006820F480201F
:104C400008600846406820F4FE0048604FF41F00EA
:104C500088607047CB49096821F48031C94A1160E6
:104C60001146096821F480211160B0F5803F03D01E
:104C7000B0F5802F0ED106E0C249096841F48031B9
:104C8000C04A116007E0BF49096841F4A021BD4A4C
:104C9000116000E000BF00BF704710B50146002260
:104CA000002300204A11012A02D1B64C236806E0F5
:104CB000022A02D1B34C236A01E0B24C636A01F0CC
:104CC0001F02012494401C4201D0012000E000207A
:104CD00010BD70B500240025002600BF3120FFF76D
:104CE000DCFF0646641CB4F5A06F01D0002EF5D0A1
:104CF0003120FFF7D2FF08B1012500E0002528464A
:104D000070BD014600209F4A106820F0F80040EA7C
:104D1000C100106070479E4908607047024600203D
:104D2000984B586820F47C1042EA01031843954BD5
:104D30005860704796490866704701460020914ABE
:104D4000506820F003000843506070478D48406869
:104D500000F00C007047014600208A4A506820F09D
:104D6000F00008435060704701460020854A5068B3
:104D700020F4E06008435060704701460020814AFB
:104D8000506820F4605040EAC1005060704729B17B
:104D90007C4A527A02437B4B5A7206E0794A527A35
:104DA000C343DBB21A40774B5A72704779490860A7
:104DB000704701460020734A506820F44040084381
:104DC000506070470021744A11706E4A82F82010BA
:104DD000012802D0042808D103E001216E4A117095
:104DE00004E005216C4A117000E000BF00BF70476D
:104DF0006A49086070476349096A0143614A116260
:104E0000704767490860704730B5002100220024D0
:104E100000235C4D6D6805F00C0121B1042905D01B
:104E2000082923D105E05F4D056022E05D4D056056
:104E30001FE0544D6D6805F47012524D6D6805F415
:104E40008034022505EB92421CB9574D554305604D
:104E50000BE04C4D6D6815F4003F03D0524D5543A7
:104E6000056002E04F4D5543056002E04D4D056081
:104E700000BF00BF434D6D6805F0F00109094B4DBF
:104E80006B5C0568DD4045603E4D6D6805F4E06192
:104E9000090A464D6B5C4568DD408560394D6D689B
:104EA00005F46051C90A414D6B5C4568DD40C56041
:104EB000344D6D6805F44041890B3D4D6B5CC56810
:104EC000B5FBF3F5056130BD29B12E4A52690243A5
:104ED0002C4B5A6104E02B4A52698243294B5A6198
:104EE000704729B1274A92690243264B9A6104E030
:104EF000244A92698243234B9A61704729B1214A1F
:104F0000D26902431F4BDA6104E01E4AD269824330
:104F10001C4BDA61704729B11A4AD2680243194B17
:104F2000DA6004E0174AD2688243164BDA607047B1
:104F300029B1144A12690243124B1A6104E0114A62
:104F4000126982430F4B1A6170471A490860704713
:104F50000F49C86470470B49C87170470948406AD7
:104F600040F0807007494862704701460020054ABA
:104F700092680A4201D0012000E0002070470149F8
:104F800088727047001002400000FFF8FFFFF6FE35
:104F900000004242D80042422010024080044242B7
:104FA0003C04424200127A0000093D006C000020DF
:104FB0007C0000204004424210B50446FC48844274
:104FC00009D101218803FFF7A6FF00214FF480409B
:104FD000FFF7A1FF32E0F748844209D101214804DC
:104FE000FFF7A6FF00214FF40030FFF7A1FF25E0F7
:104FF000F148844209D101218804FFF799FF00217B
:105000004FF48020FFF794FF18E0EC48844209D168
:105010000121C804FFF78CFF00214FF40020FFF7A7
:1050200087FF0BE0E648844208D101210805FFF71D
:105030007FFF00214FF48010FFF77AFF10BD2DE9AC
:10504000F04786B005460E460024A24600BFA146A2
:105050000027B08900B100BF2F462C8A4CF6FF70A4
:105060000440F08804432C82AC894EF6F3100440CF
:10507000B08831890843718908430443AC81AC8A04
:105080004FF6FF400440B0890443AC8201A8FFF70B
:10509000BBFEC748874202D1DDF810A001E0DDF871
:1050A0000CA0A88910F4004F08D00AEBCA0000EB4E
:1050B0000A1031684900B0FBF1F807E00AEBCA00BA
:1050C00000EB0A1031688900B0FBF1F86420B8FBEE
:1050D000F0F004012009642101FB1089A88910F473
:1050E000004F08D0322000EBC900B0FBF1F000F017
:1050F0000700044308E0322000EB09106421B0FBF4
:10510000F1F000F00F0004432C8106B0BDE8F087F9
:105110004FF41651016000218180C18001810C2172
:10512000418100218181704710B502460020108A1C
:105130004FF2FF0318400B884C8823438C8823438D
:10514000CC8823431843108210BD00210180418088
:105150008180C180704721B1828942F400528281EE
:1051600004E082894DF6FF731A4082817047F0B5E2
:1051700003460024002600250020A1F510676A3FA1
:1051800000D100BF1846C1F3421401F01F060127E9
:1051900007FA06F5012C01D10C3004E0022C01D1F4
:1051A000103000E014301AB107682F43076002E0A6
:1051B0000768AF430760F0BD10B51AB1838A0B438F
:1051C000838204E0838ACC43A4B22340838210BD4F
:1051D000028A4FF6F0731A400282028A0A43028260
:1051E000704782894FF2FF731A40828182890A4395
:1051F0008281704721B1828942F00202828104E0FB
:1052000082894FF6FD731A4082817047028A4FF6F9
:10521000DF731A400282028A0A430282704721B178
:10522000028A42F48042028204E0028A4BF6FF7353
:105230001A4002827047C1F308028280704701461B
:105240008888C0F308007047818941F0010181819D
:105250007047028BD2B20283028B42EA01220283A0
:105260007047028B02F47F420283028B0A4302835F
:10527000704721B1828A42F02002828204E0828A51
:105280004FF6DF731A408282704721B1828A42F062
:105290001002828204E0828A4FF6EF731A40828203
:1052A000704721B1828A42F00802828204E0828A39
:1052B0004FF6F7731A408282704721B1828942F417
:1052C0000042828103E08289C2F30E02828170472C
:1052D00021B1828A42F40062828204E0828A4FF223
:1052E000FF731A4082827047828A4FF6FB731A401E
:1052F0008282828A0A438282704721B1828A42F086
:105300000202828204E0828A4FF6FD731A40828292
:10531000704702460020B1F5007F00D100BF13881E
:105320000B4201D0012000E00020704701F4007220
:10533000B2F5007F00D100BFCA430280704770B54C
:1053400002460024002300250020A1F510666A3ED5
:1053500000D100BFC1F3421501F01F03012606FA78
:1053600003F3012D02D19689334006E0022D02D1CC
:10537000168A334001E0968A33400C12012606FA61
:1053800004F41688344013B10CB1012000E0002071
:1053900070BD10B500220023A1F510646A3C00D155
:1053A00000BF0A1201249440A3B2DC43048010BD64
:1053B000003801400044004000480040004C0040DC
:1053C00000500040704710B54C1084EA530404D5D7
:1053D0004042C1F1000138BF491E1B4204D5524270
:1053E000C3F1000338BF5B1E00F086F814F0804F55
:1053F00004D04042C1F1000138BF491E14F0004FF3
:1054000004D05242C3F1000338BF5B1E10BD000040
:105410000FB4044910B503AA029800F03FF910BC7C
:105420005DF814FB680000202DE9F04104460E46AB
:1054300000200AE0E1682046884738B3252806D0D6
:10544000D4E901219047206A401C2062F2E7E1681C
:10545000204600278847050018D0A5F141001928EB
:1054600002D820354FF4006732462946204627608F
:10547000FAF776FE40B1012804D0F61D26F00706A3
:105480000836D7E7361DD5E72846D9E7206ABDE8B4
:10549000F081000070B504460D4621461068AFF358
:1054A00000802168090502D5104A7A4402E00F4ABB
:1054B0007A440E32002104F1240307E000F00F06C5
:1054C0004FEA1010965D5E5401F101010028F5D1FC
:1054D00020680023000704D5702D02D009B11132D5
:1054E00002232046BDE8704000F07DB8140E000095
:1054F000704770477047704753EA020C00F06980AC
:105500002DE9F04B4FF00006002B1FBFB3FA83F5D7
:1055100003FA05F424FA05F65E4012BF1643B2FA08
:1055200082F502FA05F4C5F120051EBF22FA05FC3A
:1055300044EA0C04203556EA044C4FEA144418BFE0
:10554000641C4FF000084FF00009904271EB030C0F
:1055500039D3002919BFB1FA81F701FA07F6B0FA79
:1055600080F700FA07F6C7F120071EBF20FA07FCF4
:1055700046EA0C062037B6FBF4FCA7EB0507103F04
:1055800007F01F0BCBF120060CFA0BFB2CFA06F6EA
:1055900044BFB3460026202FA4BF5E464FF0000B49
:1055A0005BEA060C08BF4FF0010B19EB0B09ABFBD4
:1055B000027C48EB0608C01B06FB02CC0BFB03CCAD
:1055C00071EB0C01C1E70B46024641464846BDE877
:1055D000F08B13B54FF000004FF00001AFF30080E7
:1055E000BDE81C4070472DE9F0470D460446924641
:1055F000994600F124080168880604D5E06921F085
:105600001001216000E001200027A84201DDA0EB8D
:105610000507A16907EB050202EB0300A1EB0000FF
:10562000A0612068C00602D42046AFF300800026A7
:1056300008E0D4E901211AF806009047206A401CCE
:10564000761C20624E45F4DB2068C0060AD5204651
:10565000AFF3008006E0D4E9012130209047206AB2
:10566000401C2062381EA7F10107F4DC07E0D4E9F2
:10567000012118F805009047206A401C2062281E6E
:10568000A5F10105F3DC2046AFF30080216802207C
:10569000090600D40120BDE8F0870000074B70B573
:1056A0000C467B4400F011F80546204600F020F837
:1056B00010B14FF0FF3070BD284670BDA5EFFFFF61
:1056C00001694A1C02610878704700B58FB0CDE9C6
:1056D00001310021059105497944CDE903101146B6
:1056E0006846FFF7A1FE0FB000BD0000E5FFFFFF19
:1056F000C06800F080007047754600F029F8AE469B
:1057000005006946534620F00700854618B020B5CD
:10571000FFF746F8BDE820404FF000064FF00007C5
:105720004FF000084FF0000B21F00701AC46ACE849
:10573000C009ACE8C009ACE8C009ACE8C0098D46B6
:1057400070470446AFF300802046FAF71DFD0000C5
:10575000004870474C01002001487047704700BF67
:105760005001002030B504460D4635480088A0F5AC
:105770000941893908D121464E20FBF7F9F929461C
:105780004F20FBF7F5F95AE02D480088A0F51341AA
:1057900041394CD12A20FBF7A5F94FF480702949F3
:1057A0000861400048612012274908604FF08000DE
:1057B0002449486108614FF4007008614FF480701B
:1057C00008614FF400704861E0B22049C1F80C0C48
:1057D0004FF080001B49486108614FF40070086178
:1057E0004FF02B00FBF77EF94FF4807015490861EC
:1057F000400048612812144908604FF080001149A8
:10580000486108614FF4007008614FF480700861CE
:105810004FF400704861E8B20B4908604FF0800017
:105820000849486108614FF40070086107E02146AB
:105830002020FBF79DF929462120FBF799F930BD7F
:105840003E000020001001400C0C0140000001400F
:1058500010B5FFF781FF4FF00001016010BD00009F
:105860000000000000000000000000000404040428
:1058700004040004000000140A0A000000000000F4
:105880000000000014143F140A3F0A0A000000043C
:105890001E1505060C14150F0400000012150D0A44
:1058A000142C2A1200000000040A0A1E15150936DD
:1058B00000000002020100000000000000000020C3
:1058C000100808080808081020000002040808084A
:1058D00008080804020000000004150E0E1504005C
:1058E000000000000404041F040404000000000081
:1058F0000000000000000002020100000000001F84
:105900000000000000000000000000000000000295
:105910000000001008080804040202020100000050
:105920000E1111111111110E0000000004060404E3
:105930000404040E000000000E1111080402011FEF
:10594000000000000E11100C1010110E00000000DD
:10595000080C0A0A091E0818000000001F01010FA8
:105960001010110E000000000E09010F1111110E90
:10597000000000001F0908040404040400000000E3
:105980000E11110E1111110E000000000E11111157
:105990001E10120E000000000000040000000004B1
:1059A00000000000000000040000000404000020CB
:1059B00010080402040810200000000000001F006E
:1059C000001F00000000000204081020100804025C
:1059D000000000000E111108040400040000000083
:1059E0000E111915151D011E0000000004040C0AFB
:1059F0000A1E1233000000000F12120E1212120FB4
:105A0000000000001E1101010101110E0000000044
:105A10000F1212121212120F000000001F120A0EB3
:105A20000A02121F000000001F120A0E0A020207DB
:105A3000000000001C1201013911120C00000000CE
:105A40003312121E12121233000000001F0404044D
:105A50000404041F000000003E08080808080809A4
:105A60000700000037120A060A0A12370000000079
:105A7000070202020202223F000000001B1B1B1B48
:105A800015151515000000003B1216161A1A1217EC
:105A9000000000000E1111111111110E0000000084
:105AA0000F12120E02020207000000000E11111167
:105AB0001117190E180000000F12120E0A121237D9
:105AC000000000001E1101060810110F0000000068
:105AD0001F1504040404040E000000003312121207
